:100000000C9464000C948C000C948C000C948C0068
:100010000C948C000C948C000C948C000C94B20CFE
:100020000C948C000C948C000C948C000C94EC03BD
:100030000C948C000C948C000C948C000C948C0010
:100040000C94E0050C948C000C9487090C94B9096D
:100050000C948C000C948C000C948C000C948C00F0
:100060000C948C000C948C0000000008000201002D
:100070000003040700000000000000000102040863
:100080001020408001020408102001020408102002
:10009000040404040404040402020202020203032E
:1000A00003030303000000002300260029000000D2
:1000B0000000250028002B0000000000240027007D
:1000C0002A000200DB01E90911241FBECFEFD8E0AE
:1000D000DEBFCDBF11E0A0E0B1E0ECECFEE102C07C
:1000E00005900D92A233B107D9F722E0A2E3B1E067
:1000F00001C01D92AB3AB207E1F710E0C8ECD0E0C6
:1001000004C02297FE010E94510FC43CD107C9F7D9
:100110000E94560D0C94640F0C940000CF92DF9255
:10012000EF92FF920F931F93E82FF92F05C0015014
:1001300011092109310961F1908196239417B9F3CE
:1001400005C0015011092109310911F1908196234F
:100150009413F7CFC12CD12CE12CF12C0AC08FEFD6
:10016000C81AD80AE80AF80A0C151D052E053F051D
:1001700079F080818623841791F36C2D7D2D8E2D4F
:100180009F2D1F910F91FF90EF90DF90CF900895DA
:1001900060E070E080E090E01F910F91FF90EF90A1
:1001A000DF90CF900895CF93C0E061E08C2F0E9444
:1001B0007E0760E08C2F0E94B707CF5FCE30A9F793
:1001C000CF91089526E040E052EC61E070E089EFC5
:1001D00091E00E9425090E94D30068EC70E080E065
:1001E00090E00C94590689EF91E00C946A0AFC01A6
:1001F000E45CFE4F80818093C40181818093C501BE
:100200008091C4019091C5010895E4E7F1E020E0F8
:1002100030E0419151914817590791F0452B41F435
:10022000F901EE0FFF1FEC58FE4F9183808308C049
:100230002F5F3F4F2830310561F780E090E008954F
:10024000C9010895FC01EE0FFF1FEC57FE4F2081FE
:100250003181232B39F421E030E03183208361E0C8
:100260000C947E070895FF920F931F93CF93DF9313
:1002700000D01F92CDB7DEB79C01F09042010F2D48
:1002800010E080910C0190910D010817190739F0C9
:1002900080910A0190910B010817190751F41092EF
:1002A000320110927001109271011092720110923D
:1002B00073012430310509F452C08CF4213031052A
:1002C00041F12330310509F06DC0C8010E942201BF
:1002D0006091430170E08F2D0E94F60663C02530C7
:1002E000310501F12830310509F05CC00E942A0671
:1002F0000E94D20D20E030E04AE754E40E946A0DEB
:1003000060933501709336018093370190933801E3
:1003100049C0C8010E942201609143018F2D0E94B3
:10032000B70740C0C8010E94220187E090E00E9408
:10033000F7008C0189E090E00E94F700181619067A
:1003400054F49C01442737FD4095542FB8018F2D5C
:100350000E946E0A27C08F2D0E949D0C23C0C801E9
:100360000E942201F090430184EB8F15D8F0C80160
:100370000E940501FC01EE0FFF1FE80FF91FE45575
:10038000FE4F20813181428129833A834B83B8011A
:10039000CE0101960E9442056F2D70E0CE010196BC
:1003A0000E947B050F900F900F90DF91CF911F91CE
:1003B0000F91FF900895CF93DF93CCEAD1E0CE0167
:1003C0000E94A804239681E0C43CD807C1F7DF91BE
:1003D000CF910895682F89EF91E00C94C0088FEFBA
:1003E0000E94EA0185E50C94EA01FF920F931F93A6
:1003F000CF93DF931F92CDB7DEB78B01F82E82E04B
:1004000099830E94EA01A8016F2D9981792F409369
:10041000C6015093C7016093C8017093C901802F32
:100420000E94EA018091C7010E94EA018091C801FF
:100430000E94EA018091C9010F90DF91CF911F9135
:100440000F91FF900C94EA01CF92DF92EF92FF920E
:1004500060E080910C010E94B70782E090E00E946A
:10046000930661E080910C010E94B7078AE090E05A
:100470000E94930660E080910C010E94B70720E380
:1004800035E740E050E061E080910A010E941608E3
:100490000E94D20D20E030E048EE51E40E946A0D47
:1004A00020E030E040E05FE30E94840E6B017C01BD
:1004B00020E030E0A9010E94660D811109C0C090C2
:1004C0007001D0907101E0907201F090730108C04A
:1004D000C0927001D0927101E0927201F0927301AA
:1004E0000E94EF01C701B6010E94F50180910C0145
:1004F0000E94EA0180910A010E94EA0187E00E94BD
:10050000EA01FF90EF90DF90CF900C94F300CF932F
:10051000C82F60E00E947E070E94EF018C2F0E948E
:10052000ED07BC01882777FD8095982F0E94D40D98
:100530000E94F5018C2F0E94EA0181E00E94EA01ED
:10054000CF910C94F300CF93C82F0E94EF018C2F12
:100550000E94D906BC01882777FD8095982F0E94BC
:10056000D40D0E94F5018C2F0E94EA0182E00E94C6
:10057000EA01CF910C94F3008FEF0E94EA0185E528
:100580000E94EA010C94F3001092330180913F0124
:10059000809334014091410150E08091420190915B
:1005A0004001923009F470C0933009F470C091306A
:1005B00009F06FC0282F30E04730510509F043C0E3
:1005C00040913201E0914301411108C09093320102
:1005D00030930D0120930C01F0E014C0F0E0409145
:1005E0000C0150910D012417350741F440910A0187
:1005F00050910B01E417F50709F44BC030930D013E
:1006000020930C01F0930B01E0930A01D901AA0F8A
:10061000BB1FAC57BE4F21E030E02D933C93EE0F53
:10062000FF1FEC57FE4F3183208361E00E947E075D
:1006300060E080910A010E947E0762E370E080E042
:1006400090E00C94590640910C0150910D01C901A4
:10065000880F991F2417350739F040910A015091EE
:100660000B012417350751F41092320110927001DA
:10067000109271011092720110927301FC01EC57FB
:10068000FE4F118210820895CA010E9433010C941A
:10069000BC02089590913301853561F491110AC02F
:1006A00080913B018F3FE1F481E080933A01809398
:1006B000330116C080933B01992391F0E0913A01F8
:1006C000E23019F48093390107C0E33028F09091AB
:1006D0003901915090933901F0E0E45CFE4F808342
:1006E00080913A018F5F843318F480933A0104C0FB
:1006F00010923A011092330180913301882371F0F6
:100700008091390181110AC080913A01843030F022
:10071000109233010E94C40210923A0108950F937F
:100720001F93CF93DF9304E811E0C0E0D0E0F8011D
:10073000819191918F01892B29F4CE010E9487022A
:100740000E94BC022196CC30D10589F700EA11E065
:10075000C0E0D0E0F801819191918F01892B29F4BB
:10076000CE010E94A3020E94BC022196C630D10590
:1007700089F780913201882341F00E942402DF91A1
:10078000CF911F910F910C94BC02DF91CF911F91DB
:100790000F91089589EF91E00E944208892B71F032
:1007A00089EF91E00E944208181619069CF789EF1C
:1007B00091E00E945B080E944A03ECCF6FE070E07A
:1007C00080E090E00E9459060E948F036AE070E08A
:1007D00080E090E00C9459061F920F920FB60F9292
:1007E00011242F933F934F935F936F937F938F9336
:1007F0009F93AF93BF93EF93FF938091CB0187FFBC
:1008000005C010928500109284001AC02091CB017F
:10081000332727FD30958091CA0190E028173907CA
:100820007CF48091CB01992787FD9095FC01EE0F18
:10083000FF1FE80FF91FE453FE4F808186FD15C0AE
:100840008091CB018F5F8093CB012091CB01332727
:1008500027FD30958091CA0190E028173907BCF434
:100860008091CB018C305CF112C08091CB01992733
:1008700087FD9095FC01EE0FFF1FE80FF91FE45371
:10088000FE4F808160E08F730E94B707D9CF8091BF
:10089000840090918500049680349C4918F480E48B
:1008A0009CE905C080918400909185000496909306
:1008B0008900809388008FEF8093CB0138C020910E
:1008C0008400309185008091CB01992787FD909518
:1008D000FC01EE0FFF1FE80FF91FE453FE4F81816B
:1008E0009281820F931F909389008093880080915A
:1008F000CB01992787FD9095FC01EE0FFF1FE80FB4
:10090000F91FE453FE4F808186FF11C08091CB0117
:10091000992787FD9095FC01EE0FFF1FE80FF91F47
:10092000E453FE4F808161E08F730E94B707FF910F
:10093000EF91BF91AF919F918F917F916F915F9157
:100940004F913F912F910F900FBE0F901F901895D0
:100950002091CA012C30A0F431E0320F3093CA014B
:10096000FC012083822F90E0FC01EE0FFF1FE80FB7
:10097000F91FE453FE4F88EB9BE092838183089537
:100980002FEFFC0120830895DF92EF92FF920F93E7
:100990001F93CF93DF93EC01D62E7A0189018881D2
:1009A0008C3008F066C061E08D2D0E947E07888142
:1009B000A82FB0E0FD01EE0FFF1FEA0FFB1FE4536D
:1009C000FE4F2D2D2F739081907C922B908360E2AF
:1009D00072E06E197F0977FF02C06D5F7F4F7595DA
:1009E000679575956795698340E659E0401B510B03
:1009F00057FF02C04D5F5F4F5595479555954795F9
:100A00004A836CE00E94F70E9CE0899FB00111249C
:100A100020E030E0A901460F571FFA01EE0FFF1F3B
:100A2000E40FF51FE453FE4F908196FD16C02F5F33
:100A30003F4F2C30310571F781110FC010928000AB
:100A400082E0809381001092850010928400B19A18
:100A500080916F00826080936F00888190E0FC013C
:100A6000EE0FFF1FE80FF91FE453FE4F80818064F3
:100A700080838881DF91CF911F910F91FF90EF903C
:100A8000DF90089520E639E040E252E00C94C4047F
:100A9000FC0180818C3070F5918128E830E0291BC1
:100AA000310997FD3395220F331F220F331F621731
:100AB00073077CF0928128E532E0291B310997FD0C
:100AC0003395220F331F220F331F621773070CF465
:100AD0009B0122503109220F331F4FB7F89490E049
:100AE000FC01EE0FFF1FE80FF91FE453FE4F3283A6
:100AF00021834FBF08954F925F926F927F92AF9282
:100B0000BF92CF92DF92EF92FF920F931F93CF93FA
:100B1000DF93EC01603282E078070CF040C077FD93
:100B200006C0653B71052CF064EB70E002C060E02C
:100B300070E0898128E830E0281B310987FD339572
:100B4000220F331F220F331F5901CC24B7FCC0944E
:100B5000DC2C882777FD8095982F2A8148E552E084
:100B6000421B510927FD5395440F551F440F551F34
:100B70002A01662457FC6094762C7F926F925F92D4
:100B80004F9214EBE12EF12C00E010E020E030E079
:100B9000A9010E940E0D0F900F900F900F90CE01A3
:100BA000DF91CF911F910F91FF90EF90DF90CF9049
:100BB000BF90AF907F906F905F904F900C944805DE
:100BC0001F920F920FB60F9211242F933F938F9382
:100BD0009F93AF93BF938091F1019091F201A09107
:100BE000F301B091F4013091F00123E0230F2D3790
:100BF00020F40196A11DB11D05C026E8230F029621
:100C0000A11DB11D2093F0018093F1019093F20199
:100C1000A093F301B093F4018091F5019091F60156
:100C2000A091F701B091F8010196A11DB11D80932B
:100C3000F5019093F601A093F701B093F801BF91ED
:100C4000AF919F918F913F912F910F900FBE0F9079
:100C50001F9018952FB7F8946091F1017091F201EF
:100C60008091F3019091F4012FBF08953FB7F8945C
:100C70008091F5019091F601A091F701B091F801F2
:100C800026B5A89B05C02F3F19F00196A11DB11DE7
:100C90003FBF6627782F892F9A2F620F711D811D04
:100CA000911D42E0660F771F881F991F4A95D1F763
:100CB00008958F929F92AF92BF92CF92DF92EF9260
:100CC000FF926B017C010E9436064B015C01C1144E
:100CD000D104E104F104F1F00E94650D0E94360692
:100CE000681979098A099B09683E73408105910555
:100CF00070F321E0C21AD108E108F10888EE880EED
:100D000083E0981EA11CB11CC114D104E104F104BC
:100D100029F7DDCFFF90EF90DF90CF90BF90AF909D
:100D20009F908F9008958230910538F0880F991F19
:100D3000880F991F05970197F1F70895789484B566
:100D4000826084BD84B5816084BD85B5826085BDC7
:100D500085B5816085BDEEE6F0E0808181608083AD
:100D6000E1E8F0E010828081826080838081816090
:100D70008083E0E8F0E0808181608083E1EBF0E057
:100D8000808184608083E0EBF0E0808181608083FB
:100D9000EAE7F0E0808184608083808182608083E4
:100DA0008081816080838081806880831092C1000F
:100DB00008958E3008F08E50877020910E0190E4D7
:100DC000299F90011124822B80937C0080917A00CE
:100DD000806480937A0080917A0086FDFCCF8091B8
:100DE00078002091790090E0922B08951F93CF9383
:100DF000DF93182FEB0161E00E947E07209711F42A
:100E000060E004C0CF3FD10539F461E0812FDF916C
:100E1000CF911F910C94B707E12FF0E0E859FF4FF5
:100E2000E491E330F9F048F4E130B9F0E230A1F5B3
:100E300084B5806284BDC8BD34C0E730E9F0E830D5
:100E400019F1E43049F58091800080628093800040
:100E5000D0938B00C0938A0024C084B5806884BD81
:100E6000C7BD1FC080918000806880938000D093B0
:100E70008900C093880015C08091B000806880937D
:100E8000B000C093B3000DC08091B0008062809329
:100E9000B000C093B40005C0C038D1050CF0B5CF88
:100EA000AFCFDF91CF911F910895833081F028F467
:100EB000813099F08230A1F008958730A9F0883010
:100EC000B9F08430D1F4809180008F7D03C080918F
:100ED00080008F7780938000089584B58F7702C05B
:100EE00084B58F7D84BD08958091B0008F7703C055
:100EF0008091B0008F7D8093B0000895CF93DF93F1
:100F000090E0FC01E458FF4F2491FC01E057FF4FB3
:100F10008491882349F190E0880F991FFC01E854DF
:100F2000FF4FA591B49182559F4FFC01C591D4917B
:100F30009FB7611108C0F8948C91209582238C93FF
:100F4000888182230AC0623051F4F8948C91322F48
:100F5000309583238C938881822B888304C0F894F6
:100F60008C91822B8C939FBFDF91CF9108950F932B
:100F70001F93CF93DF931F92CDB7DEB7282F30E0BA
:100F8000F901E859FF4F8491F901E458FF4F14919A
:100F9000F901E057FF4F04910023C9F0882321F0A5
:100FA00069830E9455076981E02FF0E0EE0FFF1F73
:100FB000E255FF4FA591B4919FB7F8948C916111C0
:100FC00003C01095812301C0812B8C939FBF0F908C
:100FD000DF91CF911F910F910895CF93DF93282F29
:100FE00030E0F901E859FF4F8491F901E458FF4FCF
:100FF000D491F901E057FF4FC491CC2391F08111B6
:101000000E945507EC2FF0E0EE0FFF1FEC55FF4F4D
:10101000A591B4912C912D2381E090E021F480E002
:1010200002C080E090E0DF91CF9108950F931F936D
:10103000762F90E0FC01E458FF4F6491FC01E057EB
:10104000FF4FE4917111762FF0E0EE0FFF1FEC558A
:10105000FF4F8591949189019A013F70472F0E941B
:101060008E00611571058105910531F06F5F7F4F2D
:101070008F4F9F4F9F7003C060E070E0CB011F91C6
:101080000F910895FC01818D228D90E0805C9F4F2F
:10109000821B91098F7399270895FC01918D828D90
:1010A000981731F0828DE80FF11D858D90E008953D
:1010B0008FEF9FEF0895FC01918D828D981761F05D
:1010C000828DDF01A80FB11D5D968C91928D9F5F7F
:1010D0009F73928F90E008958FEF9FEF08958FEDAB
:1010E00099E0892B49F080E090E0892B29F00E945B
:1010F000DF0981110C9400000895FC01848DDF014B
:10110000A80FB11DA35ABF4F2C91848D90E001967A
:101110008F739927848FA689B7892C93A089B18969
:101120008C9180648C93938D848D981306C0028873
:10113000F389E02D80818F7D80830895CF93DF93A5
:10114000EC01888D8823C9F0EA89FB89808185FDBF
:1011500005C0A889B9898C9186FD0FC00FB607FC20
:10116000F5CF808185FFF2CFA889B9898C9185FF61
:10117000EDCFCE010E947D08E7CFDF91CF9108959A
:10118000CF92DF92FF920F931F93CF93DF931F9223
:10119000CDB7DEB76C0181E0D60158968C93589795
:1011A0005B969C915B975C968C915C97981307C0BB
:1011B0005096ED91FC915197808185FD2EC0F601EE
:1011C000038D10E00F5F1F4F0F731127F02EF601F4
:1011D000848DF81211C00FB607FCF9CFD6015096D6
:1011E000ED91FC915197808185FFF1CFC601698314
:1011F0000E947D086981EBCF838DE80FF11DE35AD2
:10120000FF4F6083D6015B960C935B975296ED91EE
:10121000FC915397808180620CC0D6015696ED9167
:10122000FC91579760835096ED91FC915197808186
:101230008064808381E090E00F90DF91CF911F91D7
:101240000F91FF90DF90CF900895BF92CF92DF92E1
:10125000EF92FF92CF93DF93EC016A017B01B22EF4
:10126000E889F98982E08083411581EE580761059C
:101270007105A1F060E079E08DE390E0A7019601AF
:101280000E94030F21503109410951095695479594
:1012900037952795211580E1380798F0E889F98975
:1012A000108260E874E88EE190E0A70196010E9448
:1012B000030F21503109410951095695479537953A
:1012C0002795EC85FD853083EE85FF852083188E7C
:1012D000EC89FD89B082EA89FB8980818061808305
:1012E000EA89FB89808188608083EA89FB89808123
:1012F00080688083EA89FB8980818F7D8083DF918C
:10130000CF91FF90EF90DF90CF90BF9008951F9204
:101310000F920FB60F9211242F938F939F93EF93F9
:10132000FF93E0910902F0910A028081E0910F029F
:10133000F091100282FD12C09081809112028F5FA5
:101340008F7320911302821751F0E0911202F0E0A6
:10135000E750FE4F958F8093120201C08081FF916C
:10136000EF919F918F912F910F900FBE0F901F9033
:1013700018951F920F920FB60F9211242F933F933F
:101380004F935F936F937F938F939F93AF93BF938D
:10139000EF93FF9389EF91E00E947D08FF91EF9119
:1013A000BF91AF919F918F917F916F915F914F917D
:1013B0003F912F910F900FBE0F901F90189589EFBE
:1013C00091E00E94420821E0892B09F420E0822F5D
:1013D00008951092FC011092FB0188EE93E0A0E0CA
:1013E000B0E08093FD019093FE01A093FF01B093C4
:1013F000000284E191E09093FA018093F90185EC79
:1014000090E0909306028093050284EC90E0909324
:1014100008028093070280EC90E090930A02809388
:10142000090281EC90E090930C0280930B0282EC15
:1014300090E090930E0280930D0286EC90E09093E2
:10144000100280930F021092120210921302109257
:101450001402109215020895CF92DF92EF92FF923C
:101460000F931F93CF93DF937C016A01EB0100E0A0
:1014700010E00C151D0571F06991D701ED91FC91FB
:101480000190F081E02DC7010995892B19F00F5FBC
:101490001F4FEFCFC801DF91CF911F910F91FF90A8
:1014A000EF90DF90CF9008956115710581F0DB0119
:1014B0000D900020E9F7AD0141505109461B570B33
:1014C000DC01ED91FC910280F381E02D099480E034
:1014D00090E0089560E271E00C94540A3F924F92BC
:1014E0005F926F927F928F929F92AF92BF92CF92B4
:1014F000DF92EF92FF920F931F93CF93DF9300D071
:1015000000D0CDB7DEB78B0129013A0190910F01D0
:10151000981721F09F3F09F0DAC104C0E2ECF0E037
:10152000349081C080930F01E2ECF0E0E491EF3F52
:1015300009F4CDC1E13031F1E23009F44BC0E111E1
:1015400071C014BC15BC94B5926094BD95B5916002
:1015500095BD282F30E0F901E057FF4FE491F0E00E
:10156000EE0FFF1FE255FF4F459154915093A60295
:101570004093A502F901E458FF4F24912093A4025F
:10158000312C53C010928000109281009091810004
:101590009860909381009091810091609093810078
:1015A000282F30E0F901E057FF4FE491F0E0EE0F13
:1015B000FF1FE255FF4F4591549150939F02409376
:1015C0009E02F901E458FF4F249120939D02332499
:1015D00033942BC01092B0001092B1009091B000E3
:1015E00092609093B0009091B10091609093B1009F
:1015F000282F30E0F901E057FF4FE491F0E0EE0FC3
:10160000FF1FE255FF4F459154915093980240932C
:101610009702F901E458FF4F24912093960252E07B
:10162000352E03C03E2E37FC52C161E00E947E077A
:101630004801A12CB12C832D8D7F09F0C7C060E03B
:1016400072E18AE790E0A50194010E94250F2983A9
:101650003A834B835C8369017A0181E0C81AD1081F
:10166000E108F1089FEFC916D104E104F10409F083
:1016700008F49AC060E472E48FE090E0A501940160
:101680000E94250F69017A01E1E0CE1AD108E10834
:10169000F108F2E03F1219C08FEFC816D104E1043F
:1016A000F10409F008F48AC060E970ED83E090E08D
:1016B000A50194010E94250F69017A0191E0C91AE0
:1016C000D108E108F10883E001C082E0EFEFCE1617
:1016D000D104E104F10409F008F467C068E478EE8D
:1016E00081E090E0A50194010E94250F69017A0133
:1016F000F1E0CF1AD108E108F1083320E1F082E0EF
:1017000038121BC09FEFC916D104E104F10409F09F
:1017100008F4DBC064E274EF80E090E0A50194017E
:101720000E94250F69017A01E1E0CE1AD108E10893
:10173000F10885E003C083E001C084E0FFEFCF162D
:10174000D104E104F10489F180F162E17AE780E0FB
:1017500090E0A50194010E94250F69017A0181E0C2
:10176000C81AD108E108F108311002C084E001C0B4
:1017700086E09FEFC916D104E104F104B1F0A8F0AE
:10178000C980DA80EB80FC809AE0F594E794D794E6
:10179000C7949A95D1F7E1E0CE1AD108E108F10893
:1017A000332031F087E00BC081E0332011F007C017
:1017B00085E095B5987F982B95BD38C082E09091D3
:1017C000B100987F982B9093B10030C060E072E137
:1017D0008AE790E0A50194010E94250F69017A0132
:1017E000F1E0CF1AD108E108F108C114D10481E079
:1017F000E806F10488F068E478EE81E090E0A50165
:1018000094010E94250F69017A0191E0C91AD1085B
:10181000E108F10893E001C091E0E1E03E1206C06A
:1018200080918100887F892B80938100411451042D
:101830006104710471F0D801AA0FBB1FA3019201CA
:101840000E94440F28EE33E040E050E00E94030F76
:1018500003C02FEF3FEFA901F1E03F16A1F082E0B6
:10186000381619F1311033C0C7BC2093A70230934A
:10187000A8024093A9025093AA0280916E00826050
:1018800080936E0024C0D0928900C092880020937B
:10189000A0023093A1024093A2025093A302809130
:1018A0006F00826080936F0012C0C092B3002093DB
:1018B000990230939A0240939B0250939C0280912C
:1018C000700082608093700002C084E078CF0F9037
:1018D0000F900F900F90DF91CF911F910F91FF907C
:1018E000EF90DF90CF90BF90AF909F908F907F90C0
:1018F0006F905F904F903F900895813039F018F0CD
:10190000823051F0089510926E00089580916F001A
:101910008D7F80936F000895809170008D7F8093FC
:10192000700081E08093B0008091B100887F846076
:101930008093B1001092B3000895CF93C82F809187
:101940000F018C1307C0E2ECF0E084919FEF9093BD
:101950000F0101C08FEF0E947D0C60E08C2FCF91B2
:101960000C94B7071F920F920FB60F9211242F936A
:101970003F934F935F936F937F938F939F93AF9317
:10198000BF93EF93FF938091990290919A02A09157
:101990009B02B0919C02892B8A2B8B2B51F1909149
:1019A0009602E0919702F0919802808189278083C6
:1019B0008091990290919A02A0919B02B0919C0211
:1019C000181619061A061B06C4F480919902909104
:1019D0009A02A0919B02B0919C020197A109B109C2
:1019E0008093990290939A02A0939B02B0939C02D9
:1019F00004C080910F010E949D0CFF91EF91BF9157
:101A0000AF919F918F917F916F915F914F913F9196
:101A10002F910F900FBE0F901F9018954F925F92CD
:101A20006F927F92AF92BF92CF92DF92EF92FF922E
:101A30000F931F93CF93DF93CDB7DEB729013A0100
:101A4000621B730B840B950B29893A894B895C893E
:101A50002A193B094C095D09298B3A8B4B8B5C8B0E
:101A60009B01AC0169897A898B899C890E94E70E68
:101A7000E418F50806091709A80197010E94250F27
:101A80002A0D3B1D4C1D5D1DCA01B901DF91CF918F
:101A90001F910F91FF90EF90DF90CF90BF90AF908C
:101AA0007F906F905F904F90089508950E949E06DA
:101AB0000E94550D0E94E200CFE6D8E00E94CA03C2
:101AC0002097E1F30E946F08F9CF0895A8D008F499
:101AD00081E008950CD0DEC0D6D040F0CDD030F0FB
:101AE00021F45F3F19F0BFC0511108C1C2C0E3D05B
:101AF00098F39923C9F35523B1F3951B550BBB27D5
:101B0000AA2762177307840738F09F5F5F4F220F81
:101B1000331F441FAA1FA9F333D00E2E3AF0E0E87A
:101B200030D091505040E695001CCAF729D0FE2FC6
:101B300027D0660F771F881FBB1F26173707480758
:101B4000AB07B0E809F0BB0B802DBF01FF2793580E
:101B50005F4F2AF09E3F510568F085C0CFC05F3FC0
:101B6000ECF3983EDCF3869577956795B795F795F6
:101B70009F5FC9F7880F911D9695879597F90895EE
:101B8000E1E0660F771F881FBB1F6217730784078A
:101B9000BA0720F0621B730B840BBA0BEE1F88F799
:101BA000E0950895E89409C097FB3EF490958095E0
:101BB000709561957F4F8F4F9F4F9923A9F0F92F13
:101BC00096E9BB279395F695879577956795B79591
:101BD000F111F8CFFAF4BB0F11F460FF1BC06F5F77
:101BE0007F4F8F4F9F4F16C0882311F096E911C089
:101BF000772321F09EE8872F762F05C0662371F0AA
:101C000096E8862F70E060E02AF09A95660F771FBD
:101C1000881FDAF7880F9695879597F90895990F99
:101C20000008550FAA0BE0E8FEEF16161706E807A6
:101C3000F907C0F012161306E407F50798F0621BC7
:101C4000730B840B950B39F40A2661F0232B242B9C
:101C5000252B21F408950A2609F4A140A6958FEFBB
:101C6000811D811D089597F99F6780E870E060E00D
:101C700008959FEF80EC089500240A941616170625
:101C800018060906089500240A941216130614066D
:101C900005060895092E0394000C11F4882352F0D0
:101CA000BB0F40F4BF2B11F460FF04C06F5F7F4F88
:101CB0008F4F9F4F089557FD9058440F551F59F06F
:101CC0005F3F71F04795880F97FB991F61F09F3F29
:101CD00079F087950895121613061406551FF2CF52
:101CE0004695F1DF08C0161617061806991FF1CFA2
:101CF00086957105610508940895E894BB276627C9
:101D00007727CB0197F908950BD0C4CFB5DF28F022
:101D1000BADF18F0952309F0A6CFABCF1124EECF90
:101D2000CADFA0F3959FD1F3950F50E0551F629F36
:101D3000F001729FBB27F00DB11D639FAA27F00D24
:101D4000B11DAA1F649F6627B00DA11D661F829F4B
:101D50002227B00DA11D621F739FB00DA11D621F30
:101D6000839FA00D611D221F749F3327A00D611D4D
:101D7000231F849F600D211D822F762F6A2F11242F
:101D80009F5750408AF0E1F088234AF0EE0FFF1F82
:101D9000BB1F661F771F881F91505040A9F79E3FB9
:101DA000510570F060CFAACF5F3FECF3983EDCF3B3
:101DB000869577956795B795F795E7959F5FC1F7F6
:101DC000FE2B880F911D9695879597F90895DB0155
:101DD0008F939F930E94440FBF91AF91A29F800D5C
:101DE000911DA39F900DB29F900D11240895991BF2
:101DF00079E004C0991F961708F0961B881F7A9502
:101E0000C9F780950895A1E21A2EAA1BBB1BFD01FC
:101E10000DC0AA1FBB1FEE1FFF1FA217B307E407C9
:101E2000F50720F0A21BB30BE40BF50B661F771F21
:101E3000881F991F1A9469F7609570958095909501
:101E40009B01AC01BD01CF010895052E97FB1EF447
:101E500000940E943C0F57FD07D00E94030F07FC1F
:101E600003D04EF40C943C0F50954095309521953D
:101E70003F4F4F4F5F4F08959095809570956195B6
:101E80007F4F8F4F9F4F08950E94550FA59F900D34
:101E9000B49F900DA49F800D911D11240895EE0F05
:101EA000FF1F0590F491E02D0994A29FB001B39F0C
:101EB000C001A39F700D811D1124911DB29F700D53
:0C1EC000811D1124911D0895F894FFCF9E
:101ECC000000AB028000010000000C000D0001FFBF
:101EDC0000000000C0082C0A42085B084D089E0850
:101EEC000D0A006E616E00696E66006F7666002EDC
:021EFC000000E4
:00000001FF
