:100000000C9463000C948B000C948B000C948B006C
:100010000C948B000C948B000C948B000C943E037E
:100020000C948B000C948B000C948B000C942D067C
:100030000C948B000C948B000C948B000C948B0014
:100040000C9410040C948B000C9488020C946202A3
:100050000C948B000C948B000C948B000C948B00F4
:100060000C945A040C948B0000000000250028001A
:100070002B0002000000080002010000030407003A
:1000800000000000000000000000002300260029FE
:100090000004040404040404040202020202020331
:1000A000030303030301020408102040800102043B
:1000B000081020010204081020000000002400277E
:1000C000002A0000980E11241FBECFEFD8E0DEBF3B
:1000D000CDBF11E0A0E0B1E0E8E3F2E202C005909C
:1000E0000D92A436B107D9F723E0A4E6B1E001C030
:1000F0001D92AD37B207E1F710E0C3E6D0E004C0CF
:100100002197FE010E94290FC236D107C9F70E942C
:10011000C5070C941A110C940000CF92DF92EF9255
:10012000FF920F931F93CF93DF936C017A018B01A2
:10013000C0E0D0E0CE15DF0589F0D8016D918D01CA
:10014000D601ED91FC910190F081E02DC601099559
:10015000892B11F47E0102C02196ECCFC701DF91FB
:10016000CF911F910F91FF90EF90DF90CF90089566
:10017000FC01918D828D981761F0828DDF01A80FAF
:10018000B11D5D968C91928D9F5F9F73928F90E0D1
:1001900008958FEF9FEF0895FC01918D828D981740
:1001A00031F0828DE80FF11D858D90E008958FEF7D
:1001B0009FEF0895FC01918D228D892F90E0805C46
:1001C0009F4F821B91098F73992708958BE892E0C6
:1001D0000E94DA0021E0892B09F420E0822F0895A3
:1001E000FC01848DDF01A80FB11DA35ABF4F2C91D4
:1001F000848D90E001968F739927848FA689B789A3
:100200002C93A089B1898C9180648C93938D848D7B
:10021000981306C00288F389E02D80818F7D80834A
:100220000895EF92FF920F931F93CF93DF93EC010A
:1002300081E0888F9B8D8C8D981305C0E889F989A2
:10024000808185FD24C0F62E0B8D10E00F5F1F4FBF
:100250000F731127E02E8C8DE8120CC00FB607FC2F
:10026000FACFE889F989808185FFF5CFCE010E9418
:10027000F000F1CF8B8DFE01E80FF11DE35AFF4F27
:10028000F0820B8FEA89FB898081806207C0EE894A
:10029000FF896083E889F98980818064808381E0B7
:1002A00090E0DF91CF911F910F91FF90EF90089513
:1002B000CF93DF93EC01888D8823C9F0EA89FB890D
:1002C000808185FD05C0A889B9898C9186FD0FC004
:1002D0000FB607FCF5CF808185FFF2CFA889B989D9
:1002E0008C9185FFEDCFCE010E94F000E7CFDF912A
:1002F000CF91089580E090E0892B29F00E94E600DC
:1003000081110C94000008953FB7F8948091870202
:1003100090918802A0918902B0918A0226B5A89B8B
:1003200005C02F3F19F00196A11DB11D3FBFBA2F87
:10033000A92F982F8827820F911DA11DB11DBC01E7
:10034000CD0142E0660F771F881F991F4A95D1F7AC
:10035000089585ED8093BC008091BC0084FDFCCFA6
:1003600010926601089540913D02262F30E0240F3F
:10037000311D21323105DCF4209166012430C9F4AD
:10038000FC0180E090E0861758F430913D02219105
:10039000DC01A55EBD4FA30FB11D2C930196F3CFD9
:1003A00080913D02680F60933D0280E0089581E0F6
:1003B000089582E00895089581E090E030916A0107
:1003C00020916901321710F480E090E091958195B9
:1003D0009109089580916A0190916901891730F41B
:1003E0008F5F80936A0180E090E008958FEF9FEF28
:1003F00008958091690190E020916A01821B910922
:100400000895CF92DF92EF92FF920F931F93CF93B5
:10041000DF937C01262F972F8A0180911A0288236F
:1004200091F0C62FD72F6E01C40ED51ECC15DD0559
:1004300071F06991D701ED91FC910190F081E02D6F
:10044000C7010995F3CF642F822F0E94B301C80121
:10045000DF91CF911F910F91FF90EF90DF90CF90A0
:100460000895CF93DF931F92CDB7DEB769832091B4
:100470001A022223D1F020916701203240F021E0BE
:1004800030E0FC013383228380E090E015C080914E
:100490006801E82FF0E0E650FE4F998190838F5F6E
:1004A000809368018093670105C061E0CE010196E9
:1004B0000E94B30181E090E00F90DF91CF91089509
:1004C0000E94A10F1F920F920FB60F9211242F932B
:1004D0003F934F935F936F937F938F939F93AF93CC
:1004E000BF93EF93FF938BE892E00E94F000FF919F
:1004F000EF91BF91AF919F918F917F916F915F919C
:100500004F913F912F910F900FBE0F901F90189514
:100510001F920F920FB60F9211242F938F939F93D8
:10052000EF93FF93E0919B02F0919C028081E09118
:10053000A102F091A20282FD12C090818091A402DA
:100540008F5F8F732091A502821751F0E091A40272
:10055000F0E0E557FD4F958F8093A40201C08081A4
:10056000FF91EF919F918F912F910F900FBE0F9060
:100570001F901895833081F028F4813099F08230F3
:10058000A1F008958730A9F08830B9F08430D1F413
:10059000809180008F7D03C0809180008F77809351
:1005A0008000089584B58F7702C084B58F7D84BDA7
:1005B00008958091B0008F7703C08091B0008F7D47
:1005C0008093B00008951F93CF93DF93282F30E0DE
:1005D000F901ED58FF4F8491F901EB55FF4FD4918C
:1005E000F901EF56FF4FC491CC23C9F0162F8111AA
:1005F0000E94BA02EC2FF0E0EE0FFF1FE859FF4F08
:10060000A591B4918FB7F894111105C09C91ED2F6D
:10061000E095E92302C0EC91ED2BEC938FBFDF91C5
:10062000CF911F91089590910001981324C0E2E7A3
:10063000F0E0E4919FEF90930001E130B9F098F081
:10064000E230C9F4909170009D7F9093700091E02A
:100650009093B0009091B100987F94609093B10016
:100660001092B30008C010926E0005C090916F0008
:100670009D7F90936F0060E00C94E3021F920F92B5
:100680000FB60F9211242F933F934F935F936F9365
:100690007F938F939F93AF93BF93EF93FF9380913B
:1006A0006E0190916F01A0917001B0917101892B41
:1006B0008A2B8B2B51F180916B01E0916C01F091B1
:1006C0006D0190818927808380916E0190916F01E7
:1006D000A0917001B0917101181619061A061B0637
:1006E000C4F480916E0190916F01A0917001B0915E
:1006F00071010197A109B10980936E0190936F0177
:10070000A0937001B093710104C0809100010E9418
:100710001303FF91EF91BF91AF919F918F917F91C3
:100720006F915F914F913F912F910F900FBE0F905E
:100730001F901895CF93DF9390E0FC01EB55FF4F8E
:100740002491FC01EF56FF4F8491882361F190E0E2
:10075000880F991FFC01E754FF4FC591D491FC010C
:10076000E859FF4FA591B491611109C09FB7F89462
:100770008881209582238883EC912E230BC06230E0
:1007800061F49FB7F8943881822F80958323888302
:10079000EC912E2B2C939FBF06C08FB7F894E88165
:1007A0002E2B28838FBFDF91CF9108958F929F9238
:1007B000AF92BF92CF92DF92EF92FF926B017C01DA
:1007C0000E9484014B015C01C114D104E104F104D5
:1007D000F1F00E948401DC01CB0188199909AA0972
:1007E000BB09883E9340A105B10570F321E0C21A10
:1007F000D108E108F10888EE880E83E0981EA11C5C
:10080000B11CC114D104E104F10419F7DDCFFF904C
:10081000EF90DF90CF90BF90AF909F908F90089512
:100820001F920F920FB60F9211242F933F938F9325
:100830009F93AF93BF938091720190917301A091A8
:100840007401B09175013091860223E0230F2D379A
:1008500020F40196A11DB11D05C026E8230F0296C4
:10086000A11DB11D209386028093720190937301A4
:10087000A0937401B09375018091870290918802D2
:10088000A0918902B0918A020196A11DB11D8093A9
:10089000870290938802A0938902B0938A02BF9145
:1008A000AF919F918F913F912F910F900FBE0F901D
:1008B0001F9018951F920F920FB60F9211242F932D
:1008C0003F934F935F936F937F938F939F93AF93D8
:1008D000BF93EF93FF938091B900887F803609F42E
:1008E0009CC068F5883209F45BC090F4803109F44B
:1008F00054C038F4882309F4F6C0883009F44DC098
:10090000F6C0883109F44CC0803209F45DC0EFC0F4
:10091000803409F468C048F4803309F455C0883342
:1009200009F0E5C080936202D8C0803509F44FC059
:10093000883509F45DC0883409F0D9C0D6C088393B
:1009400009F4C7C0A8F4883709F467C038F48836BA
:1009500009F463C0803709F460C0C9C0883809F45D
:10096000B8C0803909F45FC0803809F0C0C05BC0EE
:10097000803B09F486C038F4803A09F466C0883AAE
:1009800009F47FC0B4C0803C09F4A7C0883C09F4D6
:10099000A4C0883B09F48AC0AAC08091850210C017
:1009A0009091840280918302981770F5E0918402FF
:1009B00081E08E0F80938402F0E0ED59FD4F80813D
:1009C0008093BB0085EC86C0809362028EC0E0916C
:1009D000840281E08E0F809384028091BB00F0E05E
:1009E000ED59FD4F808390918402809183026EC007
:1009F000E091840281E08E0F809384028091BB009D
:100A0000F0E0ED59FD4F80838091650181116DC04B
:100A100081E08093640184EA61C083E08093660191
:100A200010926102CFCF80916102803208F051C0F4
:100A3000E091610281E08E0F809361028091BB00A2
:100A4000F0E0EF5BFD4F8083BDCF85EC8093BC0071
:100A50001092660180916102803230F4E09161026F
:100A6000F0E0EF5BFD4F10826091610270E0E09179
:100A70003F02F091400281E492E0099510926102F8
:100A800036C084E08093660110923E0210923D02CF
:100A9000E0913B02F0913C02099580913D02811169
:100AA00005C081E080933D0210921B02E0913E025E
:100AB00081E08E0F80933E02F0E0E55EFD4F808185
:100AC0008093BB0090913E0280913D02981708F4FC
:100AD00079CF85E88093BC000AC085EC8093BC0088
:100AE0001092660104C0109262020E94A901FF9157
:100AF000EF91BF91AF919F918F917F916F915F9196
:100B00004F913F912F910F900FBE0F901F9018950E
:100B1000CF93FC01C48121E020931A02C093F90114
:100B200010926801109267018385682B88E293E038
:100B30000E94310280916701813208F046C0909195
:100B400066019111FCCF92E09093660191E0909341
:100B500065019FEF9093620210928402809383025A
:100B6000AAEFB1E023E632E0F9019E2F921B98171D
:100B700018F49D919193F9CF10928502809185028E
:100B8000CC0FC82BC093850280916401813061F441
:100B900010926401809185028093BB008091BC001B
:100BA00083FDF8CF85EC01C085EE8093BC00809179
:100BB00066018230E1F3809162028F3F31F08091D3
:100BC0006202803211F080916202109268011092EC
:100BD000670110921A02CF9108950F931F93CF933C
:100BE0008C01C62F0E9488056C2F6460C8010E948A
:100BF00088056C2F6B7FC8010E94880583EC90E00C
:100C00000197F1F7CF911F910F910895FF920F93E4
:100C10001F93CF93DF931F92CDB7DEB78C01F62ED3
:100C2000962F907F692F642BC80149830E94ED05A0
:100C300080E1F89EB00111244981642BC8010F9016
:100C4000DF91CF911F910F91FF900C94ED0541E042
:100C50000E94060681E090E008951F920F920FB661
:100C60000F9211242F933F934F935F936F937F9332
:100C70008F939F93AF93BF93EF93FF938091F8016E
:100C800087FF05C010928500109284001BC0209140
:100C9000F801022E000C330B8091580390E02817C6
:100CA000390784F48091F801082E000C990BFC019F
:100CB000EE0FFF1F8E0F9F1FFC01EC5CFC4F80812D
:100CC00086FD15C08091F8018F5F8093F801209117
:100CD000F801022E000C330B8091580390E0281786
:100CE0003907C4F48091F8018C3064F113C080910D
:100CF000F801082E000C990BFC01EE0FFF1F8E0F60
:100D00009F1FFC01EC5CFC4F808160E08F730E94B0
:100D1000E302D8CF809184009091850004968034BE
:100D20009C4918F480E49CE905C08091840090916E
:100D30008500049690938900809388008FEF8093BC
:100D4000F8013BC020918400309185008091F8012A
:100D5000082E000C990BFC01EE0FFF1F8E0F9F1F3A
:100D6000FC01EC5CFC4F81819281820F931F909378
:100D70008900809388008091F801082E000C990B5F
:100D8000FC01EE0FFF1F8E0F9F1FFC01EC5CFC4F60
:100D9000808186FF12C08091F801082E000C990B0B
:100DA000FC01EE0FFF1F8E0F9F1FFC01EC5CFC4F40
:100DB000808161E08F730E94E302FF91EF91BF9108
:100DC000AF919F918F917F916F915F914F913F91E3
:100DD0002F910F900FBE0F901F901895FC01EE0FF2
:100DE000FF1FEA58FE4F20813181232B39F421E087
:100DF00030E03183208361E00C949A030895682FDA
:100E00008BE892E00C9411018FEF0E94FF0685E5BC
:100E10000E94FF060C947807CF92DF92FF920F9307
:100E20001F93CF93DF931F92CDB7DEB7162FF72E08
:100E3000082F82E099830E94FF0684EFC82E81E08C
:100E4000D82E412F5F2D602F9981792FF601408395
:100E5000518362837383812F0E94FF06F601818193
:100E60000E94FF06F60182810E94FF06F60183813F
:100E70000F90DF91CF911F910F91FF90DF90CF9056
:100E80000C94FF068FEF0E94FF0685E50C94FF0689
:100E9000CF93DF93CDB7DEB728970FB6F894DEBFB8
:100EA0000FBECDBF28E0E5E1F1E0DE011196019033
:100EB0000D922A95E1F720916103261710F46FEF48
:100EC000620FFE013196E60FF11DE60FF11D9081D4
:100ED000682F690F606840E089E593E028960FB6B7
:100EE000F894DEBF0FBECDBFDF91CF910C94060604
:100EF00042E050E061E671E08BE892E00C948D00F6
:100F0000CF92DF92EF92FF920F931F93E82FF92F6A
:100F100005C0015011092109310961F19081962321
:100F20009417B9F305C0015011092109310911F1D4
:100F3000908196239413F7CFC12CD12CE12CF12C66
:100F40000AC08FEFC81AD80AE80AF80A0C151D055E
:100F50002E053F0579F080818623841791F36C2D4F
:100F60007D2D8E2D9F2D1F910F91FF90EF90DF9083
:100F7000CF90089560E070E080E090E01F910F91C5
:100F8000FF90EF90DF90CF900895CF93DF9300D044
:100F90001F92CDB7DEB7789484B5826084BD84B5E6
:100FA000816084BD85B5826085BD85B5816085BD64
:100FB00080916E00816080936E001092810080911C
:100FC00081008260809381008091810081608093A4
:100FD0008100809180008160809380008091B100C9
:100FE00084608093B1008091B00081608093B000F4
:100FF00080917A00846080937A0080917A00826088
:1010000080937A0080917A00816080937A00809149
:101010007A00806880937A001092C100E0919B0270
:10102000F0919C0282E08083E0919702F091980217
:101030001082E0919902F0919A0280E180831092EF
:10104000A302E0919F02F091A00286E08083E091EC
:101050009D02F0919E02808180618083E0919D02DB
:10106000F0919E02808188608083E0919D02F091E2
:101070009E02808180688083E0919D02F0919E02B3
:1010800080818F7D808310E061E0812F0E949A0330
:1010900060E0812F0E94E3021F5F1E30A9F768EC19
:1010A00070E080E090E00E94D60310926A011092F6
:1010B000690110926801109267011092660181E047
:1010C000809365011092640161E082E10E94E30275
:1010D00061E083E10E94E3028091B9008E7F8093FA
:1010E000B9008091B9008D7F8093B90088E4809326
:1010F000B80085E48093BC0010925E038091630386
:10110000823018F098E090935E038093610362E36D
:1011100070E080E090E00E94D6036091640389E56E
:1011200093E00E94880568EE73E080E090E00E9402
:10113000D60360E389E593E00E94ED050BE416E435
:10114000C8010197F1F760E389E593E00E94ED059E
:10115000C8010197F1F760E389E593E00E94ED058E
:1011600083E592E00197F1F760E289E593E00E9460
:10117000ED0560915E03606240E089E593E00E94C6
:10118000060684E080935F0340E06CE089E593E02D
:101190000E94060640E061E089E593E00E940606B1
:1011A0000BE31FE1C8010197F1F782E08093600330
:1011B00040E066E089E593E00E94060640E062E0D8
:1011C00089E593E00E940606C8010197F1F788E0DF
:1011D0008093640360E089E593E00E94880540E025
:1011E00061E089E593E00E940606C8010197F1F7E6
:1011F00060E080E00E94480740E150E065E471E073
:1012000089E593E00E948D0061E086E00E94480736
:101210004AE050E066E571E089E593E00E948D00C8
:1012200072E7272E70E0372E8BE892E00E94DA00FA
:10123000892B09F40AC48BE892E00E94DA001816A0
:10124000190694F78BE892E00E94B8009091EE01A5
:10125000853561F491110AC08091ED018F3FE1F471
:1012600081E08093EC018093EE0116C08093ED0144
:10127000992391F0E091EC01E23019F48093EB01B5
:1012800007C0E33028F09091EB0191509093EB016F
:10129000F0E0E954FE4F80838091EC018F5F84334E
:1012A00018F48093EC0104C01092EC011092EE014E
:1012B0008091EE01882309F4B7CF8091EB01811171
:1012C000B3CF8091EC01843008F4AECF1092EE01E0
:1012D0008091BA018093B6018091BC01D090BD018C
:1012E000ED2CF12C9091BB01923009F485C0933024
:1012F00009F4A6C3913009F0A5C3873009F05BC09B
:101300008091F3011091BE0181111DC09093F301F2
:10131000F0920401E0920301812F90E0909302018A
:1013200080930101F701EE0FFF1FEA58FE4F21E005
:1013300030E031832083880F991FFC01EA58FE4F6B
:101340003183208329C0212F30E0809103019091C7
:101350000401E816F90641F480910101909102011F
:101360002817390709F46EC3F0920401E0920301D3
:101370003093020120930101F701EE0FFF1FEA589D
:10138000FE4F81E090E091838083220F331FF901AB
:10139000EA58FE4F9183808361E08D2D0E949A036D
:1013A00060E0812F0E949A0362E370E080E090E0A9
:1013B0000E94D60347C32091030130910401C70165
:1013C000880F991FE216F30639F020910101309140
:1013D0000201E216F30651F41092F3011092EF01AC
:1013E0001092F0011092F1011092F201FC01EA5802
:1013F000FE4F1182108226C3209103013091040117
:10140000E216F30639F02091010130910201E21653
:10141000F30651F41092F3011092EF011092F001D3
:101420001092F1011092F201843009F470C228F494
:10143000813029F1833049F103C3853009F47FC03D
:10144000883009F0FDC22FB7F89460917201709155
:10145000730180917401909175012FBF0E94AB0FB1
:1014600020E030E04AE754E40E942F0F6093B2017D
:101470007093B3018093B4019093B501E1C2C701A9
:101480000E94EE066091BE0156C0C7010E94EE06A2
:101490001091BE0161E08D2D0E949A03112309F481
:1014A00047C0812F90E01F3F09F444C0F701ED5879
:1014B000FF4FE491E330F9F048F4E130B9F0E23065
:1014C000A1F584B5806284BD18BDBAC2E730E9F0E9
:1014D000E83019F1E43049F5209180002062209332
:1014E000800090938B0080938A00AAC284B58068A4
:1014F00084BD17BDA5C22091800020682093800084
:1015000090938900809388009BC28091B00080688E
:101510008093B0001093B30093C28091B0008062BA
:101520008093B0001093B4008BC28038910514F4FE
:1015300060E001C061E08D2D0E94E30281C2C7011D
:101540000E94EE068091BE01809392018091BF01BE
:101550008093930180919201909193019A83898362
:101560008091C001809392018091C1018093930189
:101570000091920110919301101611060CF0C3C155
:10158000809100018D1104C0F101F491FB837DC0B5
:101590008F3F09F055C2D0920001F10184918F3F35
:1015A00009F44EC2813021F1823009F447C0811123
:1015B0006BC014BC15BC84B5826084BD85B58160E8
:1015C00085BDF701EF56FF4FE491F0E0EE0FFF1FEE
:1015D000E859FF4F859194919093990180939801D8
:1015E000F701EB55FF4FE491E09397011B8250C048
:1015F0001092800010928100809181008860809319
:10160000810080918100816080938100F701EF5615
:10161000FF4FE491F0E0EE0FFF1FE859FF4F859177
:1016200094919093960180939501F701EB55FF4FAC
:10163000E491E0939401F1E0FB832AC01092B000A2
:101640001092B1008091B00082608093B0008091D0
:10165000B10081608093B100F701EF56FF4FE49134
:10166000F0E0EE0FFF1FE859FF4F859194919093A2
:101670006D0180936C01F701EB55FF4FE491E0930E
:101680006B0122E02B8304C08B838B8187FDD8C143
:1016900061E08D2D0E949A03E981FA814F01A12C0E
:1016A000B12C8B818D7F09F0B9C060E072E18AE7CF
:1016B00090E0A50194010E94CA1029013A01690134
:1016C0007A01F1E0CF1AD108E108F1082FEFC21634
:1016D000D104E104F10409F008F44DC060E472E4BF
:1016E0008FE090E0A50194010E94CA1069017A017F
:1016F00081E0C81AD108E108F1089B81923001F518
:10170000EFEFCE16D104E104F10409F008F40EC3A2
:1017100060E970ED83E090E0A50194010E94CA1099
:1017200069017A01F1E0CF1AD108E108F1082FEF41
:10173000C216D104E104F10409F0D0F583E067C0DA
:101740008FEFC816D104E104F104B9F0B0F068E4F9
:1017500078EE81E090E0A50194010E94CA10690131
:101760007A0191E0C91AD108E108F108EB81EE2372
:1017700009F4BAC2B0C281E001C082E02B8121111C
:1017800046C011C0D301C2012AE0B595A79597952F
:1017900087952A95D1F76C017D01E1E0CE1AD10839
:1017A000E108F10885E095B5987F892B85BD66C075
:1017B00068E478EE81E090E0A50194010E94CA10EF
:1017C00069017A01F1E0CF1AD108E108F1082FEFA1
:1017D000C216D104E104F10409F008F44CC264E239
:1017E00074EF80E090E0A50194010E94CA106901A5
:1017F0007A01F1E0CF1AD108E108F1082FEFC21603
:10180000D104E104F10411F008F037C285E09091B1
:10181000B100987F892B8093B10030C060E072E105
:101820008AE790E0A50194010E94CA1069017A013B
:1018300081E0C81AD108E108F108C114D10491E08F
:10184000E906F10488F068E478EE81E090E0A50113
:1018500094010E94CA1069017A01E1E0CE1AD10810
:10186000E108F10893E001C091E0FB81F13031F42F
:1018700080918100887F892B8093810029813A8122
:10188000220F331FD8010E94220F28EE33E040E0E0
:1018900050E00E94E9108B81813099F0823019F17B
:1018A0008111CEC0C7BC20939E0130939F0140930D
:1018B000A0015093A10180916E00826080936E0020
:1018C000BFC0D0928900C092880020939A013093C3
:1018D0009B0140939C0150939D0180916F00826019
:1018E00080936F00ADC0C092B30020936E0130931F
:1018F0006F0140937001509371018091700082607C
:10190000809370009DC08D2D0E94130399C0C70164
:101910000E94EE061091BE01153B08F091C0E2EA6C
:10192000F1E080E090E0219131912E153F0581F0AA
:10193000232B41F4FC01EE0FFF1FEE55FE4FF18209
:10194000E08206C001968830910569F780E090E05A
:10195000FC01EE0FFF1F8E0F9F1FFC01EB59FC4F88
:1019600000810C3008F06CC061E08D2D0E949A035C
:10197000E02EF12CC701880F991FFC01EE0DFF1D11
:10198000EC5CFC4F2D2D2F733081307CD32ED22A6E
:10199000D08220E030E0F901EE0FFF1FE20FF31FCD
:1019A000EC5CFC4F408146FD14C02F5F3F4F2C3054
:1019B000310589F71092800022E020938100109277
:1019C000850010928400B19A20916F0022602093CC
:1019D0006F008E0D9F1DFC01EC5CFC4F80818064CC
:1019E0008083A12FB0E0A53BB10514F0A4EBB0E0DB
:1019F00020E437E00E94220F24EB30E040E050E08A
:101A00000E94CA10DA01C901805E9D4FAF4FBF4FDF
:101A10009C01213699E0390714F020E639E0225084
:101A20003109220F331F4FB7F894C701880F991F50
:101A30008E0D9F1D8C5C9C4FFC01328321834FBF18
:101A40000E9404071092EC01EFCB6FE070E080E0A1
:101A500090E00E94D60366E7862E61E0962E00E0B5
:101A600010E0F401C190D1904F01C114D10409F0EC
:101A70003AC0F02E60E0802F0E949A030E94420735
:101A8000F801ED58FF4F8491F801EB55FF4FE490BA
:101A9000F801EF56FF4FB490BB2099F081110E94DE
:101AA000BA02EB2DF0E0EE0FFF1FE957FF4FA591B3
:101AB000B491EC91EE2291E080E009F490E0C92E1F
:101AC000D82EB601DD0C880B990B0E94AD0F0E9439
:101AD0000C078F2D0E94FF0681E00E94FF060E94E6
:101AE00078070E9404070F5F1F4F0C30110509F0A3
:101AF000B8CF49E0E42E41E0F42E10E0F7018191E7
:101B000091917F01892B39F50E944207812F8064D2
:101B100080937C0080917A00806480937A00809129
:101B20007A0086FDFCCF609178008091790070E0AA
:101B3000782B072E000C880B990B0E94AD0F0E948A
:101B40000C07812F0E94FF0682E00E94FF060E9480
:101B500078070E9404071F5F163081F68091F30119
:101B6000882309F47FC01091030160E0812F0E9457
:101B7000E30283E090E00197F1F761E0812F0E949A
:101B8000E30283E290E00197F1F760E0812F0E9489
:101B9000E30280910101909102019927FC01EB552C
:101BA000FF4F6491FC01EF56FF4FE491F0E0EE0F20
:101BB000FF1FE957FF4F8591949100E315E720E05F
:101BC00030E0462F0E94800761157105810591055F
:101BD00049F0DC01CB010196A11DB11DBC01CD0175
:101BE0009F7003C060E070E0CB010E94AB0F20E06B
:101BF00030E048EE51E40E942F0F20E030E040E05A
:101C00005FE30E940C106B017C0120E030E0A90131
:101C10000E94A60F811109C0C090EF01D090F00181
:101C2000E090F101F090F20108C0C092EF01D09273
:101C3000F001E092F101F092F2010E944207C70127
:101C4000B6010E940C07809103010E94FF0680915B
:101C500001010E94FF0687E00E94FF060E947807AC
:101C60000E9404076AE070E080E090E00E94D603E2
:101C70000E947A01D5CA84E0CACD62E17AE780E0A9
:101C800090E0A50194010E94CA1069017A0181E0E7
:101C9000C81AD108E108F1089FEFC916D104E10480
:101CA000F104B9F0B0F0D301C2015AE0B595A7959F
:101CB000979587955A95D1F76C017D01E1E0CE1A91
:101CC000D108E108F108FB81FF2309F46BCD87E01F
:101CD0009ECD86E053CDEFEFCE16D104E104F104A2
:101CE00009F058F684E04ACD8FEFC816D104E1041C
:101CF000F104D1F0C8F062E17AE780E090E0A5015C
:101D000094010E94CA1069017A01F1E0CF1AD1084A
:101D1000E108F1082FEFC216D104E104F10411F03B
:101D200008F030CD84E03FCD83E03DCD82E06FCD43
:101D300010928E0210928D0288EE93E0A0E0B0E047
:101D400080938F0290939002A0939102B09392029D
:101D500021E231E030938C0220938B0225EC30E0BD
:101D6000309398022093970224EC30E030939A024B
:101D70002093990220EC30E030939C0220939B0248
:101D800021EC30E030939E0220939D0222EC30E063
:101D90003093A00220939F0226EC30E03093A20201
:101DA0002093A1021092A4021092A5021092A60202
:101DB0001092A70210922B0310922A0380932C03F7
:101DC00090932D03A0932E03B0932F0381E391E012
:101DD000909329038093280380915803A5E6B3E0EC
:101DE0009FEF48EB5BE08C3078F48C93282F30E049
:101DF000F901EE0FFF1F2E0F3F1FF901EC5CFC4FA6
:101E0000528341838F5F01C09C93139623E0AD37CB
:101E1000B20749F78093580310925C0310925B035A
:101E200081E491E090935A038093590387E2809371
:101E30005D0380E18093620382E0809363031092EC
:101E4000640308950E940B11B7FF0895821B930B42
:101E50000895EE0FFF1F0590F491E02D09940E9464
:101E6000430F0C9490100E94891058F00E94821029
:101E700040F029F45F3F29F00C94791051110C9433
:101E8000C4100C947F100E94A11068F39923B1F341
:101E9000552391F3951B550BBB27AA276217730790
:101EA000840738F09F5F5F4F220F331F441FAA1F24
:101EB000A9F335D00E2E3AF0E0E832D091505040E0
:101EC000E695001CCAF72BD0FE2F29D0660F771F8E
:101ED000881FBB1F261737074807AB07B0E809F074
:101EE000BB0B802DBF01FF2793585F4F3AF09E3FF9
:101EF000510578F00C9479100C94C4105F3FE4F312
:101F0000983ED4F3869577956795B795F7959F5F3B
:101F1000C9F7880F911D9695879597F90895E1E087
:101F2000660F771F881FBB1F621773078407BA07E6
:101F300020F0621B730B840BBA0BEE1F88F7E09541
:101F4000089581E090E0F8940C941A110E94E80F33
:101F500008F481E00895E89409C097FB3EF4909559
:101F60008095709561957F4F8F4F9F4F9923A9F072
:101F7000F92F96E9BB279395F69587957795679501
:101F8000B795F111F8CFFAF4BB0F11F460FF1BC045
:101F90006F5F7F4F8F4F9F4F16C0882311F096E9D8
:101FA00011C0772321F09EE8872F762F05C0662386
:101FB00071F096E8862F70E060E02AF09A95660F3F
:101FC000771F881FDAF7880F9695879597F90895F8
:101FD000990F0008550FAA0BE0E8FEEF161617063A
:101FE000E807F907C0F012161306E407F50798F0A2
:101FF000621B730B840B950B39F40A2661F0232BBB
:10200000242B252B21F408950A2609F4A140A69536
:102010008FEF811D811D08950E941F100C94901058
:102020000E94821038F00E94891020F0952311F050
:102030000C9479100C947F1011240C94C4100E94FD
:10204000A11070F3959FC1F3950F50E0551F629F4B
:10205000F001729FBB27F00DB11D639FAA27F00D01
:10206000B11DAA1F649F6627B00DA11D661F829F28
:102070002227B00DA11D621F739FB00DA11D621F0D
:10208000839FA00D611D221F749F3327A00D611D2A
:10209000231F849F600D211D822F762F6A2F11240C
:1020A0009F5750409AF0F1F088234AF0EE0FFF1F3F
:1020B000BB1F661F771F881F91505040A9F79E3F96
:1020C000510580F00C9479100C94C4105F3FE4F338
:1020D000983ED4F3869577956795B795F795E795EC
:1020E0009F5FC1F7FE2B880F911D9695879597F9F5
:1020F000089597F99F6780E870E060E008959FEF8A
:1021000080EC089500240A9416161706180609068E
:10211000089500240A94121613061406050608955D
:10212000092E0394000C11F4882352F0BB0F40F4E5
:10213000BF2B11F460FF04C06F5F7F4F8F4F9F4F25
:10214000089557FD9058440F551F59F05F3F71F0A7
:102150004795880F97FB991F61F09F3F79F087950E
:102160000895121613061406551FF2CF4695F1DF97
:1021700008C0161617061806991FF1CF8695710527
:10218000610508940895E894BB2766277727CB015B
:1021900097F90895052E97FB1EF400940E94E11014
:1021A00057FD07D00E94E91007FC03D04EF40C94B1
:1021B000E11050954095309521953F4F4F4F5F4F1F
:1021C000089590958095709561957F4F8F4F9F4FA3
:1021D0000895A1E21A2EAA1BBB1BFD010DC0AA1F68
:1021E000BB1FEE1FFF1FA217B307E407F50720F080
:1021F000A21BB30BE40BF50B661F771F881F991FFB
:102200001A9469F760957095809590959B01AC0143
:10221000BD01CF010895A29FB001B39FC001A39F4C
:10222000700D811D1124911DB29F700D811D11240F
:08223000911D0895F894FFCF01
:10223800FF0C000D0001000000000000000000007D
:1022480000000000000000400014005400000000DE
:102258000011018D00DA00B800CC00580100000020
:102268000031020102F901EA01DC01DB0100000092
:102278000027068D00426C61636B736D697468207A
:10228800426F617264007769746820456E74727970
:04229800000D0A002B
:00000001FF
