:100000000C9464000C948C000C948C000C948C0068
:100010000C948C000C948C000C948C000C942C0C84
:100020000C948C000C948C000C948C000C94C303E6
:100030000C948C000C948C000C948C000C948C0010
:100040000C94B7050C948C000C9401090C943309A2
:100050000C948C000C948C000C948C000C948C00F0
:100060000C948C000C948C0000000008000201002D
:100070000003040700000000000000000102040863
:100080001020408001020408102001020408102002
:10009000040404040404040402020202020203032E
:1000A00003030303000000002300260029000000D2
:1000B0000000250028002B0000000000240027007D
:1000C0002A0002009901630911241FBECFEFD8E076
:1000D000DEBFCDBF11E0A0E0B1E0E2E7F3E202C095
:1000E00005900D92A034B107D9F722E0A0E4B1E069
:1000F00001C01D92A639B207E1F710E0C8ECD0E0CC
:1001000004C02297FE010E946C0FC43CD107C9F7BE
:100110000E94670D0C94B7110C940000CF92DF92EF
:10012000EF92FF920F931F93E82FF92F05C0015014
:1001300011092109310961F1908196239417B9F3CE
:1001400005C0015011092109310911F1908196234F
:100150009413F7CFC12CD12CE12CF12C0AC08FEFD6
:10016000C81AD80AE80AF80A0C151D052E053F051D
:1001700079F080818623841791F36C2D7D2D8E2D4F
:100180009F2D1F910F91FF90EF90DF90CF900895DA
:1001900060E070E080E090E01F910F91FF90EF90A1
:1001A000DF90CF90089526E040E052EC61E070E0EF
:1001B00080EE91E00C949F0880EE91E00C94E409AD
:1001C000E9E4F1E020E030E041915191481759070E
:1001D00091F0452B41F4F901EE0FFF1FE75BFE4F55
:1001E0009183808308C02F5F3F4F2830310561F72E
:1001F00080E090E00895C9010895FC01EB59FE4F9D
:10020000808180935901818180935A0180915901A5
:1002100090915A010895EF92FF920F931F93CF93FD
:10022000DF9300D01F92CDB7DEB700916B01843011
:10023000910509F453C08CF48130910539F103978D
:1002400009F06DC061E0802F0E94F80660916C019A
:1002500070E0802F0E94700662C08530910501F128
:10026000089709F05CC00E9401060E94740E20E00D
:1002700030E04AE754E40E94DB0D6093450170933F
:100280004601809347019093480149C061E0802F67
:100290000E94F80660916C01802F0E9431073FC0D8
:1002A00061E0802F0E94F80687E090E00E94FD0048
:1002B0007C0189E090E00E94FD001816190654F4B4
:1002C0009C01442737FD4095542FB701802F0E9491
:1002D000E80925C0802F0E94170C21C0F0906C0106
:1002E00084EB8F15E0F010E0C8010E94E000FC01F3
:1002F000EE0FFF1FE80FF91FE756FE4F20813181F7
:10030000428129833A834B83B801CE0101960E9432
:1003100019056F2D70E0CE0101960E9452050F90D5
:100320000F900F90DF91CF911F910F91FF90EF9061
:100330000895CF93DF93C9E9D1E0CE010E947F04F5
:10034000239681E0C13BD807C1F7DF91CF91089593
:10035000682F80EE91E00C943A088FEF0E94A8017C
:1003600085E50C94A8018FEF0E94A80185E50E9405
:10037000A8010C94DC00EF92FF920F931F93CF9390
:10038000DF937C01FC01C4810C2F158184E00E9465
:10039000A8018C2F0E94A801C0E0D0E0C017D107AF
:1003A00044F4BE01C7010E94640D0E94A801219679
:1003B000F5CFDF91CF911F910F91FF90EF900895AE
:1003C000FF920F931F93CF93DF931F92CDB7DEB7AA
:1003D0008B01F82E82E099830E94A801A8016F2D5D
:1003E0009981792F40935B0150935C0160935D018B
:1003F00070935E01802F0E94A80180915C010E9491
:10040000A80180915D010E94A80180915E010F907A
:10041000DF91CF911F910F91FF900C94A801CF9283
:10042000DF92EF92FF926B017C0183E00E94A801B2
:10043000C701B6010E94430E862F262F372F309317
:100440005A01209359010E94A80180915A01FF90FE
:10045000EF90DF90CF900C94A801CF92DF92EF92B3
:10046000FF920F931F93CF93DF9300D000D000D063
:10047000CDB7DEB710916B018230910509F451C000
:10048000D4F40097F1F1019709F0B6C060E0812F34
:100490000E94F806812F0E946707BC01882777FD1C
:1004A0008095982F0E94760E0E94E001812F0E9475
:1004B000A80181E09FC08730910509F44EC08830C3
:1004C000910509F48CC0069709F096C087E090E08A
:1004D0000E94FD007C0160E0812F0E94F8069701D8
:1004E000442737FD4095542F61E0812F0E949007EB
:1004F0000E94740E0E940F02812F0E94A80186E0C4
:1005000079C068E171E0CE0101960E943D0DCE01F7
:1005100001960E94BB01CE0101960E94CF0C80E0A3
:1005200069C0E12FF0E0EE0FFF1FE65FFE4F108184
:1005300060E0812F0E94F806812F0E945306BC01C3
:10054000882777FD8095982F0E94760E0E94E00103
:10055000812F0E94A80182E04DC000916C0161E0F2
:10056000812F0E94F80660E0812F0E94310782E00F
:1005700090E00E940D0661E0812F0E9431078AE021
:1005800090E00E940D0660E0812F0E94310760E03C
:10059000802F0E94F80620E335E740E050E061E05C
:1005A000802F0E9490076B017C010E94AD01809119
:1005B00040010E94A801C701B6010E94740E20E00C
:1005C00030E048E652E40E94DB0D0E94E001812FFA
:1005D0000E94A801802F0E94A80187E00BC06091B3
:1005E00041017091420180914301909144010E9428
:1005F000E00188E00E94A80126960FB6F894DEBFBD
:100600000FBECDBFDF91CF911F910F91FF90EF9063
:10061000DF90CF9008950F931F93CF93DF931F9296
:10062000CDB7DEB7109260018091680180934001E0
:1006300000916A0110E0909169019230B9F0933015
:10064000C1F09130E9F40730110531F089830E943F
:10065000AD0189810E94A801C8010E942D020F905E
:10066000DF91CF911F910F910C94DC00C8010E9483
:100670000B010F90DF91CF911F910F910C94B3015B
:100680000F90DF91CF911F910F910895109261010A
:1006900080EE91E00E94BC07181619064CF481E028
:1006A0008093610180EE91E00E94D50780935F0105
:1006B00008950E9401060E94740E20E030E04AE78F
:1006C00054E40E94DB0D2091450130914601409198
:1006D0004701509148010E94760D6093410170934B
:1006E000420180934301909344010E94460380910C
:1006F0006101882309F446C080915F0190916001F7
:10070000853561F491110AC0809162018F3FE1F457
:1007100081E0809364018093600116C08093620140
:10072000992391F0E0916401E23019F48093630120
:1007300007C0E33028F090916301915090936301DA
:10074000F0E0EB59FE4F8083809164018F5F84332A
:1007500018F48093640104C0109264011092600147
:1007600080916001882371F08091630181110AC03A
:1007700080916401843030F0109260010E940B037C
:100780001092640108951F920F920FB60F921124D8
:100790002F933F934F935F936F937F938F939F9389
:1007A000AF93BF93EF93FF938091B20187FF05C092
:1007B00010928500109284001AC02091B201332754
:1007C00027FD30958091B10190E0281739077CF41E
:1007D0008091B201992787FD9095FC01EE0FFF1FD4
:1007E000E80FF91FED54FE4F808186FD15C0809102
:1007F000B2018F5F8093B2012091B201332727FDB0
:1008000030958091B10190E028173907BCF48091B0
:10081000B2018C305CF112C08091B201992787FD42
:100820009095FC01EE0FFF1FE80FF91FED54FE4FEE
:10083000808160E08F730E943107D9CF809184005E
:1008400090918500049680349C4918F480E49CE9DA
:1008500005C0809184009091850004969093890052
:10086000809388008FEF8093B20138C0209184007C
:10087000309185008091B201992787FD9095FC0108
:10088000EE0FFF1FE80FF91FED54FE4F818192819B
:10089000820F931F90938900809388008091B2010A
:1008A000992787FD9095FC01EE0FFF1FE80FF91FB8
:1008B000ED54FE4F808186FF11C08091B2019927CF
:1008C00087FD9095FC01EE0FFF1FE80FF91FED5417
:1008D000FE4F808161E08F730E943107FF91EF919D
:1008E000BF91AF919F918F917F916F915F914F9148
:1008F0003F912F910F900FBE0F901F901895209150
:10090000B1012C30A0F431E0320F3093B101FC0181
:100910002083822F90E0FC01EE0FFF1FE80FF91FEC
:10092000ED54FE4F88EB9BE09283818308952FEF77
:10093000FC0120830895DF92EF92FF920F931F93A3
:10094000CF93DF93EC01D62E7A01890188818C3018
:1009500008F066C061E08D2D0E94F8068881A82FFE
:10096000B0E0FD01EE0FFF1FEA0FFB1FED54FE4F3D
:100970002D2D2F739081907C922B908360E272E0FA
:100980006E197F0977FF02C06D5F7F4F7595679580
:1009900075956795698340E659E0401B510B57FFF9
:1009A00002C04D5F5F4F55954795559547954A83D2
:1009B0006CE00E94120F9CE0899FB001112420E09E
:1009C00030E0A901460F571FFA01EE0FFF1FE40F99
:1009D000F51FED54FE4F908196FD16C02F5F3F4FDF
:1009E0002C30310571F781110FC01092800082E028
:1009F000809381001092850010928400B19A8091BA
:100A00006F00826080936F00888190E0FC01EE0FA0
:100A1000FF1FE80FF91FED54FE4F80818064808333
:100A20008881DF91CF911F910F91FF90EF90DF9020
:100A3000089520E639E040E252E00C949B04FC016A
:100A400080818C3070F5918128E830E0291B3109D4
:100A500097FD3395220F331F220F331F6217730741
:100A60007CF0928128E532E0291B310997FD33950E
:100A7000220F331F220F331F621773070CF49B01E1
:100A800022503109220F331F4FB7F89490E0FC0138
:100A9000EE0FFF1FE80FF91FED54FE4F3283218345
:100AA0004FBF08954F925F926F927F92AF92BF9225
:100AB000CF92DF92EF92FF920F931F93CF93DF932A
:100AC000EC01603282E078070CF040C077FD06C090
:100AD000653B71052CF064EB70E002C060E070E0F3
:100AE000898128E830E0281B310987FD3395220FE2
:100AF000331F220F331F5901CC24B7FCC094DC2CC8
:100B0000882777FD8095982F2A8148E552E0421B7F
:100B1000510927FD5395440F551F440F551F2A01B6
:100B2000662457FC6094762C7F926F925F924F926E
:100B300014EBE12EF12C00E010E020E030E0A90100
:100B40000E94880C0F900F900F900F90CE01DF91B4
:100B5000CF911F910F91FF90EF90DF90CF90BF90BA
:100B6000AF907F906F905F904F900C941F051F92F5
:100B70000F920FB60F9211242F933F938F939F9351
:100B8000AF93BF938091D8019091D901A091DA01E0
:100B9000B091DB013091D70123E0230F2D3720F4F2
:100BA0000196A11DB11D05C026E8230F0296A11DC7
:100BB000B11D2093D7018093D8019093D901A093C0
:100BC000DA01B093DB018091DC019091DD01A0910D
:100BD000DE01B091DF010196A11DB11D8093DC0102
:100BE0009093DD01A093DE01B093DF01BF91AF913F
:100BF0009F918F913F912F910F900FBE0F901F905B
:100C000018952FB7F8946091D8017091D90180910F
:100C1000DA019091DB012FBF08958230910538F001
:100C2000880F991F880F991F05970197F1F708956D
:100C3000789484B5826084BD84B5816084BD85B5B7
:100C4000826085BD85B5816085BDEEE6F0E080817E
:100C500081608083E1E8F0E010828081826080839F
:100C6000808181608083E0E8F0E080818160808322
:100C7000E1EBF0E0808184608083E0EBF0E0808154
:100C800081608083EAE7F0E08081846080838081F6
:100C9000826080838081816080838081806880839E
:100CA0001092C10008958E3008F08E508770209108
:100CB000160190E4299F90011124822B80937C00DF
:100CC00080917A00806480937A0080917A0086FD1A
:100CD000FCCF809178002091790090E0922B0895CC
:100CE0001F93CF93DF93182FEB0161E00E94F8066A
:100CF000209711F460E004C0CF3FD10539F461E0E2
:100D0000812FDF91CF911F910C943107E12FF0E0FB
:100D1000E859FF4FE491E330F9F048F4E130B9F0DD
:100D2000E230A1F584B5806284BDC8BD34C0E7302F
:100D3000E9F0E83019F1E43049F5809180008062F3
:100D400080938000D0938B00C0938A0024C084B528
:100D5000806884BDC7BD1FC080918000806880937B
:100D60008000D0938900C093880015C08091B000A6
:100D700080688093B000C093B3000DC08091B00034
:100D800080628093B000C093B40005C0C038D10524
:100D90000CF0B5CFAFCFDF91CF911F910895833085
:100DA00081F028F4813099F08230A1F008958730E5
:100DB000A9F08830B9F08430D1F4809180008F7D23
:100DC00003C0809180008F7780938000089584B560
:100DD0008F7702C084B58F7D84BD08958091B00067
:100DE0008F7703C08091B0008F7D8093B00008950D
:100DF000CF93DF9390E0FC01E458FF4F2491FC0176
:100E0000E057FF4F8491882349F190E0880F991FA4
:100E1000FC01E854FF4FA591B49182559F4FFC010E
:100E2000C591D4919FB7611108C0F8948C91209519
:100E300082238C93888182230AC0623051F4F89413
:100E40008C91322F309583238C938881822B8883D9
:100E500004C0F8948C91822B8C939FBFDF91CF912B
:100E600008950F931F93CF93DF931F92CDB7DEB7F3
:100E7000282F30E0F901E859FF4F8491F901E45837
:100E8000FF4F1491F901E057FF4F04910023C9F07F
:100E9000882321F069830E94CF066981E02FF0E06A
:100EA000EE0FFF1FE255FF4FA591B4919FB7F89445
:100EB0008C91611103C01095812301C0812B8C930B
:100EC0009FBF0F90DF91CF911F910F910895CF9306
:100ED000DF93282F30E0F901E859FF4F8491F901A1
:100EE000E458FF4FD491F901E057FF4FC491CC2350
:100EF00091F081110E94CF06EC2FF0E0EE0FFF1F62
:100F0000EC55FF4FA591B4912C912D2381E090E0F9
:100F100021F480E002C080E090E0DF91CF9108955D
:100F20000F931F93762F90E0FC01E458FF4F6491DC
:100F3000FC01E057FF4FE4917111762FF0E0EE0FC6
:100F4000FF1FEC55FF4F8591949189019A013F70E5
:100F5000472F0E948E00611571058105910531F0C2
:100F60006F5F7F4F8F4F9F4F9F7003C060E070E0B7
:100F7000CB011F910F910895FC01818D228D90E08E
:100F8000805C9F4F821B91098F7399270895FC0104
:100F9000918D828D981731F0828DE80FF11D858D2E
:100FA00090E008958FEF9FEF0895FC01918D828D61
:100FB000981761F0828DDF01A80FB11D5D968C91AD
:100FC000928D9F5F9F73928F90E008958FEF9FEFB8
:100FD000089589E599E0892B49F080E090E0892B1C
:100FE00029F00E94590981110C9400000895FC0118
:100FF000848DDF01A80FB11DA35ABF4F2C91848DA2
:1010000090E001968F739927848FA689B7892C93D6
:10101000A089B1898C9180648C93938D848D981371
:1010200006C00288F389E02D80818F7D808308953A
:10103000CF93DF93EC01888D8823C9F0EA89FB897F
:10104000808185FD05C0A889B9898C9186FD0FC076
:101050000FB607FCF5CF808185FFF2CFA889B9894B
:101060008C9185FFEDCFCE010E94F707E7CFDF918E
:10107000CF910895CF92DF92FF920F931F93CF935A
:10108000DF931F92CDB7DEB76C0181E0D601589691
:101090008C9358975B969C915B975C968C915C9730
:1010A000981307C05096ED91FC915197808185FD72
:1010B0002EC0F601038D10E00F5F1F4F0F73112735
:1010C000F02EF601848DF81211C00FB607FCF9CF8F
:1010D000D6015096ED91FC915197808185FFF1CF1B
:1010E000C60169830E94F7076981EBCF838DE80F02
:1010F000F11DE35AFF4F6083D6015B960C935B971B
:101100005296ED91FC915397808180620CC0D6017C
:101110005696ED91FC91579760835096ED91FC9116
:10112000519780818064808381E090E00F90DF910F
:10113000CF911F910F91FF90DF90CF900895BF92B4
:10114000CF92DF92EF92FF92CF93DF93EC016A018F
:101150007B01B22EE889F98982E08083411581EE16
:10116000580761057105A1F060E079E08DE390E03A
:10117000A70196010E941E0F215031094109510912
:101180005695479537952795211580E1380798F0B2
:10119000E889F989108260E874E88EE190E0A7019F
:1011A00096010E941E0F215031094109510956959F
:1011B000479537952795EC85FD853083EE85FF852E
:1011C0002083188EEC89FD89B082EA89FB898081B1
:1011D00080618083EA89FB89808188608083EA89D5
:1011E000FB89808180688083EA89FB8980818F7D8B
:1011F0008083DF91CF91FF90EF90DF90CF90BF90F1
:1012000008951F920F920FB60F9211242F938F9370
:101210009F93EF93FF93E091F001F091F1018081B2
:10122000E091F601F091F70182FD12C0908180916A
:10123000F9018F5F8F732091FA01821751F0E091CD
:10124000F901F0E0E052FE4F958F8093F90101C063
:101250008081FF91EF919F918F912F910F900FBE01
:101260000F901F9018951F920F920FB60F92112496
:101270002F933F934F935F936F937F938F939F939E
:10128000AF93BF93EF93FF9380EE91E00E94F70737
:10129000FF91EF91BF91AF919F918F917F916F914E
:1012A0005F914F913F912F910F900FBE0F901F9024
:1012B000189580EE91E00E94BC0721E0892B09F48B
:1012C00020E0822F08951092E3011092E20188EE4F
:1012D00093E0A0E0B0E08093E4019093E501A09357
:1012E000E601B093E70183E291E09093E1018093FE
:1012F000E00185EC90E09093ED018093EC0184ECAB
:1013000090E09093EF018093EE0180EC90E0909359
:10131000F1018093F00181EC90E09093F3018093D0
:10132000F20182EC90E09093F5018093F40186EC59
:1013300090E09093F7018093F6011092F9011092DA
:10134000FA011092FB011092FC010895CF92DF92F6
:10135000EF92FF920F931F93CF93DF937C016A016B
:10136000EB0100E010E00C151D0571F06991D7014B
:10137000ED91FC910190F081E02DC7010995892B39
:1013800019F00F5F1F4FEFCFC801DF91CF911F9171
:101390000F91FF90EF90DF90CF9008956115710548
:1013A00081F0DB010D900020E9F7AD0141505109BA
:1013B000461B570BDC01ED91FC910280F381E02D7F
:1013C000099480E090E008956FE271E00C94CE09FA
:1013D0003F924F925F926F927F928F929F92AF92C5
:1013E000BF92CF92DF92EF92FF920F931F93CF9312
:1013F000DF9300D000D0CDB7DEB78B0129013A01D1
:1014000090911701981721F09F3F09F0DAC104C0AD
:10141000E2ECF0E0349081C080931701E2ECF0E060
:10142000E491EF3F09F4CDC1E13031F1E23009F44C
:101430004BC0E11171C014BC15BC94B5926094BD51
:1014400095B5916095BD282F30E0F901E057FF4F29
:10145000E491F0E0EE0FFF1FE255FF4F45915491EC
:1014600050938D0240938C02F901E458FF4F249170
:1014700020938B02312C53C0109280001092810077
:10148000909181009860909381009091810091608B
:1014900090938100282F30E0F901E057FF4FE4914D
:1014A000F0E0EE0FFF1FE255FF4F4591549150932E
:1014B000860240938502F901E458FF4F249120935E
:1014C0008402332433942BC01092B0001092B100E8
:1014D0009091B00092609093B0009091B1009160B3
:1014E0009093B100282F30E0F901E057FF4FE491CD
:1014F000F0E0EE0FFF1FE255FF4F459154915093DE
:101500007F0240937E02F901E458FF4F249120931B
:101510007D0252E0352E03C03E2E37FC52C161E001
:101520000E94F8064801A12CB12C832D8D7F09F073
:10153000C7C060E072E18AE790E0A50194010E94D3
:10154000400F29833A834B835C8369017A0181E0F0
:10155000C81AD108E108F1089FEFC916D104E104C7
:10156000F10409F008F49AC060E472E48FE090E0BE
:10157000A50194010E94400F69017A01E1E0CE1AB1
:10158000D108E108F108F2E03F1219C08FEFC81648
:10159000D104E104F10409F008F48AC060E970EDB7
:1015A00083E090E0A50194010E94400F69017A0157
:1015B00091E0C91AD108E108F10883E001C082E096
:1015C000EFEFCE16D104E104F10409F008F467C08E
:1015D00068E478EE81E090E0A50194010E94400F5C
:1015E00069017A01F1E0CF1AD108E108F10833204E
:1015F000E1F082E038121BC09FEFC916D104E1046C
:10160000F10409F008F4DBC064E274EF80E090E0DC
:10161000A50194010E94400F69017A01E1E0CE1A10
:10162000D108E108F10885E003C083E001C084E04F
:10163000FFEFCF16D104E104F10489F180F162E1FA
:101640007AE780E090E0A50194010E94400F6901D3
:101650007A0181E0C81AD108E108F108311002C00E
:1016600084E001C086E09FEFC916D104E104F104D3
:10167000B1F0A8F0C980DA80EB80FC809AE0F594A4
:10168000E794D794C7949A95D1F7E1E0CE1AD108A0
:10169000E108F108332031F087E00BC081E033200E
:1016A00011F007C085E095B5987F982B95BD38C09F
:1016B00082E09091B100987F982B9093B10030C058
:1016C00060E072E18AE790E0A50194010E94400F7A
:1016D00069017A01F1E0CF1AD108E108F108C114DB
:1016E000D10481E0E806F10488F068E478EE81E056
:1016F00090E0A50194010E94400F69017A0191E0F8
:10170000C91AD108E108F10893E001C091E0E1E0D5
:101710003E1206C080918100887F892B80938100D2
:10172000411451046104710471F0D801AA0FBB1F68
:10173000A30192010E945F0F28EE33E040E050E0E9
:101740000E941E0F03C02FEF3FEFA901F1E03F16EB
:10175000A1F082E0381619F1311033C0C7BC2093D4
:101760008E0230938F0240939002509391028091A9
:101770006E00826080936E0024C0D0928900C09277
:101780008800209387023093880240938902509307
:101790008A0280916F00826080936F0012C0C092B5
:1017A000B3002093800230938102409382025093D1
:1017B00083028091700082608093700002C084E098
:1017C00078CF0F900F900F900F90DF91CF911F91D6
:1017D0000F91FF90EF90DF90CF90BF90AF909F90D0
:1017E0008F907F906F905F904F903F9008958130E1
:1017F00039F018F0823051F0089510926E0008957B
:1018000080916F008D7F80936F00089580917000AC
:101810008D7F8093700081E08093B0008091B10053
:10182000887F84608093B1001092B3000895CF93B5
:10183000C82F809117018C1307C0E2ECF0E084916F
:101840009FEF9093170101C08FEF0E94F70B60E0AC
:101850008C2FCF910C9431071F920F920FB60F92DD
:1018600011242F933F934F935F936F937F938F93A5
:101870009F93AF93BF93EF93FF93809180029091DA
:101880008102A0918202B0918302892B8A2B8B2B3B
:1018900051F190917D02E0917E02F0917F02808172
:1018A000892780838091800290918102A091820299
:1018B000B0918302181619061A061B06C4F480910B
:1018C000800290918102A0918202B09183020197DF
:1018D000A109B1098093800290938102A0938202B2
:1018E000B093830204C0809117010E94170CFF91EE
:1018F000EF91BF91AF919F918F917F916F915F9188
:101900004F913F912F910F900FBE0F901F90189500
:101910004F925F926F927F92AF92BF92CF92DF927F
:10192000EF92FF920F931F93CF93DF93CDB7DEB764
:1019300029013A01621B730B840B950B29893A89A3
:101940004B895C892A193B094C095D09298B3A8B23
:101950004B8B5C8B9B01AC0169897A898B899C8953
:101960000E94020FE418F50806091709A80197015B
:101970000E94400F2A0D3B1D4C1D5D1DCA01B9017F
:10198000DF91CF911F910F91FF90EF90DF90CF905B
:10199000BF90AF907F906F905F904F900895FC0143
:1019A000808191810C941710CF93DF93EC01888193
:1019B0009981009711F00E941710198218821D82D8
:1019C0001C821B821A82DF91CF9108950F931F937F
:1019D000CF93DF93EC018B016F5F7F4F88819981FB
:1019E0000E94A610009731F0998388831B830A8395
:1019F00081E001C080E0DF91CF911F910F910895A8
:101A0000CF93DF93EC0188819981892B29F08A811A
:101A10009B818617970760F4CE010E94E60C88230D
:101A200041F08C819D81892B19F4E881F981108224
:101A300081E0DF91CF910895EF92FF920F931F9372
:101A4000CF93DF93EC017B018A01BA010E94000D64
:101A5000811104C0CE010E94D40C07C01D830C83E9
:101A6000B701888199810E947911CE01DF91CF91D0
:101A70001F910F91FF90EF900895FC011182108249
:101A800013821282158214826115710559F0FB01CF
:101A900001900020E9F7AF0141505109461B570B57
:101AA0000C941C0D0895FC01248135816217730785
:101AB00048F480819181009729F0FC01E60FF71F1F
:101AC0008081089580E008950C94530D08950E943C
:101AD00018060E94660D0E94D300C9EED7E00E944E
:101AE00059032097E1F30E94E907F9CF5058BB272B
:101AF000AA270ED04DC13ED130F043D120F031F4B1
:101B00009F3F11F41EF433C10EF4E095E7FB29C1A9
:101B1000E92F4FD180F3BA1762077307840795073F
:101B200018F071F49EF567C10EF4E0950B2EBA2FF4
:101B3000A02D0B01B90190010C01CA01A0011124D3
:101B4000FF27591B99F0593F50F4503E68F11A167F
:101B5000F040A22F232F342F4427585FF3CF469510
:101B600037952795A795F0405395C9F77EF41F1632
:101B7000BA0B620B730B840BBAF09150A1F0FF0FFC
:101B8000BB1F661F771F881FC2F70EC0BA0F621FE8
:101B9000731F841F48F4879577956795B795F795D8
:101BA0009E3F08F0B3CF9395880F08F09927EE0F6A
:101BB0009795879508950CD0EBC0E3D040F0DAD02C
:101BC00030F021F45F3F19F0CCC0511115C1CFC0E6
:101BD000F0D098F39923C9F35523B1F3951B550B16
:101BE000BB27AA2762177307840738F09F5F5F4FF0
:101BF000220F331F441FAA1FA9F333D00E2E3AF031
:101C0000E0E830D091505040E695001CCAF729D04A
:101C1000FE2F27D0660F771F881FBB1F2617370799
:101C20004807AB07B0E809F0BB0B802DBF01FF27C9
:101C300093585F4F2AF09E3F510568F092C0DCC078
:101C40005F3FECF3983EDCF3869577956795B79503
:101C5000F7959F5FC9F7880F911D9695879597F91E
:101C60000895E1E0660F771F881FBB1F6217730797
:101C70008407BA0720F0621B730B840BBA0BEE1FAC
:101C800088F7E095089504D06894B111B5C008951F
:101C900098D088F09F5790F0B92F9927B751A0F0AE
:101CA000D1F0660F771F881F991F1AF0BA95C9F7F0
:101CB00012C0B13081F09FD0B1E008959CC0672F71
:101CC000782F8827B85F39F0B93FCCF386957795A0
:101CD0006795B395D9F73EF4909580957095619589
:101CE0007F4F8F4F9F4F0895E89409C097FB3EF4B4
:101CF00090958095709561957F4F8F4F9F4F992359
:101D0000A9F0F92F96E9BB279395F69587957795D6
:101D10006795B795F111F8CFFAF4BB0F11F460FF96
:101D20001BC06F5F7F4F8F4F9F4F16C0882311F0EE
:101D300096E911C0772321F09EE8872F762F05C002
:101D4000662371F096E8862F70E060E02AF09A959D
:101D5000660F771F881FDAF7880F9695879597F992
:101D6000089597F99F6780E870E060E008959FEF1D
:101D700080EC089500240A94161617061806090622
:101D8000089500240A9412161306140605060895F1
:101D9000092E0394000C11F4882352F0BB0F40F479
:101DA000BF2B11F460FF04C06F5F7F4F8F4F9F4FB9
:101DB000089557FD9058440F551F59F05F3F71F03B
:101DC0004795880F97FB991F61F09F3F79F08795A2
:101DD0000895121613061406551FF2CF4695F1DF2B
:101DE00008C0161617061806991FF1CF86957105BB
:101DF000610508940895E894BB2766277727CB01EF
:101E000097F90895DB018F939F930E945F0FBF9115
:101E1000AF91A29F800D911DA39F900DB29F900D39
:101E200011240895991B79E004C0991F961708F0B2
:101E3000961B881F7A95C9F780950895A1E21A2EFE
:101E4000AA1BBB1BFD010DC0AA1FBB1FEE1FFF1F5E
:101E5000A217B307E407F50720F0A21BB30BE40BAE
:101E6000F50B661F771F881F991F1A9469F76095F5
:101E70007095809590959B01AC01BD01CF010895AF
:101E8000052E97FB1EF400940E94570F57FD07D0B4
:101E90000E941E0F07FC03D04EF40C94570F509570
:101EA0004095309521953F4F4F4F5F4F0895909546
:101EB0008095709561957F4F8F4F9F4F08950E9439
:101EC000700FA59F900DB49F900DA49F800D911D44
:101ED00011240895EE0FFF1F0590F491E02D099451
:101EE000A29FB001B39FC001A39F700D811D11245B
:101EF000911DB29F700D811D1124911D0895CF93E6
:101F0000DF938230910510F482E090E0E09194023A
:101F1000F091950220E030E0A0E0B0E0309739F198
:101F20004081518148175907B8F04817590771F493
:101F300082819381109729F013969C938E93129728
:101F40002CC0909395028093940227C021153105EF
:101F500031F04217530718F0A901DB0101C0EF016E
:101F60009A01BD01DF010280F381E02DD7CF211559
:101F70003105F9F0281B390B2430310580F48A81B2
:101F80009B816115710521F0FB019383828304C05D
:101F90009093950280939402FE01329644C0FE0114
:101FA000E20FF31F819391932250310939832883E3
:101FB0003AC02091920230919302232B41F4209158
:101FC00002013091030130939302209392022091F9
:101FD0000001309101012115310541F42DB73EB7C3
:101FE0004091040150910501241B350BE0919202B0
:101FF000F0919302E217F307A0F42E1B3F0B281772
:10200000390778F0AC014E5F5F4F2417350748F071
:102010004E0F5F1F509393024093920281939193CE
:1020200002C0E0E0F0E0CF01DF91CF910895CF93BF
:10203000DF93009709F487C0FC0132971382128264
:10204000C0919402D0919502209781F42081318132
:10205000280F391F80919202909193028217930763
:1020600079F5F0939302E09392026DC0DE0120E0D7
:1020700030E0AE17BF0750F412964D915C91139764
:102080009D014115510509F1DA01F3CFB383A28314
:1020900040815181840F951F8A179B0771F48D91A0
:1020A0009C911197840F951F0296918380831296BD
:1020B0008D919C911397938382832115310529F487
:1020C000F0939502E09394023EC0D9011396FC93DD
:1020D000EE9312974D915D91A40FB51FEA17FB0780
:1020E00079F480819181840F951F0296D901119610
:1020F0009C938E938281938113969C938E931297D7
:10210000E0E0F0E08A819B81009719F0FE01EC018C
:10211000F9CFCE01029628813981820F931F209139
:102120009202309193022817390769F4309729F405
:10213000109295021092940202C013821282D093E0
:102140009302C0939202DF91CF910895A0E0B0E096
:10215000ECEAF0E10C948411EC01CB01209719F426
:102160000E947F0FB8C0FE01E60FF71F9E012250AC
:102170003109E217F30708F4ACC0D9010D911C91A5
:10218000119706171707B8F00530110508F49FC01E
:10219000A801445051094617570708F498C0025047
:1021A0001109061B170B019311936D937C93CF01BB
:1021B0000E9417108CC05B01A01AB10A4E01800E5C
:1021C000911EA0919402B0919502612C712C60E057
:1021D00070E0109709F449C0A815B905C9F5ED904C
:1021E000FC901197670142E0C40ED11CCA14DB04B5
:1021F00078F147018A189B08640142E0C40ED11CA3
:102200001296BC9012971396AC91B5E0CB16D10400
:1022100040F0B282A38391828082D9018D939C93F6
:1022200009C00E5F1F4F0E0D1F1DF90111830083A2
:10223000EB2DFA2F6115710531F0DB011396FC933C
:10224000EE93129744C0F0939502E09394023FC03E
:102250006D917C9111976616770608F43B01BD01DC
:1022600012960D90BC91A02DB4CF60919202709106
:10227000930268157905E9F468167906D0F440915F
:102280000001509101014115510541F44DB75EB770
:102290006091040170910501461B570BE417F50787
:1022A000C0F4F0939302E0939202F901918380834A
:1022B0000EC00E947F0F7C01009759F0A801BE015B
:1022C0000E947011CE010E941710C70104C0CE01F8
:1022D00002C080E090E0CDB7DEB7EEE00C94A01134
:1022E000FB01DC0102C001900D9241505040D8F733
:1022F0000895FB01DC0101900D920020E1F70895A3
:102300002F923F924F925F926F927F928F929F9205
:10231000AF92BF92CF92DF92EF92FF920F931F93F3
:10232000CF93DF93CDB7DEB7CA1BDB0B0FB6F894A4
:10233000DEBF0FBECDBF09942A88398848885F84E4
:102340006E847D848C849B84AA84B984C884DF8055
:10235000EE80FD800C811B81AA81B981CE0FD11D39
:102360000FB6F894DEBF0FBECDBFED010895F8940F
:02237000FFCF9D
:10237200000096028000010000000E000F00100015
:1023820011001200130001FF414C49564521000083
:102392000000003A08A609BC07D507C70718080DB0
:1023A2000A006E616E00696E66006F7666002E002E
:00000001FF
