:100000000C9464000C948C000C948C000C948C0068
:100010000C948C000C948C000C948C000C94BC0CF4
:100020000C948C000C948C000C948C000C94910318
:100030000C948C000C948C000C948C000C948C0010
:100040000C9493050C948C000C9480090C94B209C8
:100050000C948C000C948C000C948C000C948C00F0
:100060000C948C000C948C0000000008000201002D
:100070000003040700000000000000000102040863
:100080001020408001020408102001020408102002
:10009000040404040404040402020202020203032E
:1000A00003030303000000002300260029000000D2
:1000B0000000250028002B0000000000240027007D
:1000C0002A0002006701E20911241FBECFEFD8E029
:1000D000DEBFCDBF11E0A0E0B1E0E4E7F4E202C092
:1000E00005900D92A836B107D9F722E0A8E6B1E055
:1000F00001C01D92AE3BB207E1F710E0C8ECD0E0C2
:1001000004C02297FE010E94ED0FC43CD107C9F73D
:100110000E94260A0C9438120C94000026E040E05D
:1001200052EC61E070E088E092E00C941E0988E0F7
:1001300092E00C94640AE1E7F1E020E030E04191C4
:1001400051914817590791F0452B41F4F901EE0FF1
:10015000FF1FEF58FE4F9183808308C02F5F3F4FF2
:100160002830310561F780E090E00895C9010895D5
:10017000FC01E357FE4F8081809381018181809350
:10018000820180918101909182010895DF92EF9226
:10019000FF920F931F93CF93DF9300D01F92CDB7A1
:1001A000DEB7D09093018430910509F450C08CF4EF
:1001B0008130910539F1039709F07EC061E08D2D02
:1001C0000E941E076091940170E08D2D0E9496069A
:1001D00073C085309105E9F0089709F06DC00E9461
:1001E000DD050E94F50E20E030E04AE754E40E946D
:1001F0005C0E60936D0170936E0180936F0190931C
:1002000070015AC061E08D2D0E941E07609194011B
:100210004AC061E08D2D0E941E0787E090E00E9499
:10022000B8008C0189E090E00E94B8001816190609
:1002300054F49C01442737FD4095542FB8018D2D6F
:100240000E94780A39C08D2D0E94A70C35C0ED2C74
:10025000F12C0091940110E0C7010E949B00FC0169
:10026000EE0FFF1FE80FF91FEF53FE4F2081318182
:10027000428129833A834B83B701CE0101960E94C4
:10028000E7040115110599F4CE0101960E94ED04D1
:1002900064E670E080E090E00E940C0661E08D2D45
:1002A0000E941E0760E08D2D0E94570705C0B8010F
:1002B000CE0101960E942E050F900F900F90DF91B6
:1002C000CF911F910F91FF90EF90DF900895CF9302
:1002D000DF93C1ECD1E0CE010E944D04239681E072
:1002E000C93DD807C1F7DF91CF910895682F88E005
:1002F00092E00C94B9088FEF0E94760185E50C948A
:1003000076018FEF0E94760185E50E9476010C94BC
:100310009700EF92FF920F931F93CF93DF937C018F
:10032000FC01C4810C2F158184E00E9476018C2F82
:100330000E947601C0E0D0E0C017D10744F4BE01AE
:10034000C7010E94F40D0E9476012196F5CFDF913E
:10035000CF911F910F91FF90EF900895FF920F930F
:100360001F93CF93DF931F92CDB7DEB78B01F82E8B
:1003700082E099830E947601A8016F2D9981792FDF
:1003800040938301509384016093850170938601AB
:10039000802F0E947601809184010E9476018091D5
:1003A00085010E947601809186010F90DF91CF91A7
:1003B0001F910F91FF900C947601CF92DF92EF92F4
:1003C000FF926B017C0183E00E947601C701B601B8
:1003D0000E94C40E862F262F372F30938201209340
:1003E00081010E94760180918201FF90EF90DF9061
:1003F000CF900C947601CF92DF92EF92FF920F9301
:100400001F93CF93DF9300D000D000D0CDB7DEB7DD
:10041000109193018230910509F451C0D4F40097F2
:10042000F1F1019709F0B6C060E0812F0E941E072C
:10043000812F0E948D07BC01882777FD8095982F1A
:100440000E94F70E0E94AE01812F0E94760181E08A
:100450009FC08730910509F44EC08830910509F49A
:100460008CC0069709F096C087E090E00E94B80023
:100470007C0160E0812F0E941E079701442737FD11
:100480004095542F61E0812F0E94B6070E94F50E1F
:100490000E94DD01812F0E94760186E079C06CE127
:1004A00071E0CE0101960E94CD0DCE0101960E9411
:1004B0008901CE0101960E945F0D80E069C0E12FA5
:1004C000F0E0EE0FFF1FE65FFE4F108160E0812F2E
:1004D0000E941E07812F0E947906BC01882777FDA4
:1004E0008095982F0E94F70E0E94AE01812F0E94E6
:1004F000760182E04DC00091940161E0812F0E945D
:100500001E0760E0812F0E94570782E090E00E9462
:10051000340661E0812F0E9457078AE090E00E9434
:10052000340660E0812F0E94570760E0802F0E9410
:100530001E0720E335E740E050E061E0802F0E9495
:10054000B6076B017C010E947B01809168010E94CB
:100550007601C701B6010E94F50E20E030E048E6C2
:1005600052E40E945C0E0E94AE01812F0E9476012F
:10057000802F0E94760187E00BC060916901709125
:100580006A0180916B0190916C010E94AE0188E03C
:100590000E94760126960FB6F894DEBF0FBECDBF3F
:1005A000DF91CF911F910F91FF90EF90DF90CF904F
:1005B00008950F931F93CF93DF931F92CDB7DEB7AC
:1005C00010928801809190018093680100919201BE
:1005D00010E0909191019230B9F09330C1F09130D8
:1005E000E9F40730110531F089830E947B0189818C
:1005F0000E947601C8010E94FB010F90DF91CF910C
:100600001F910F910C949700C8010E94C6000F9093
:10061000DF91CF911F910F910C9481010F90DF9189
:10062000CF911F910F9108951092890188E092E077
:100630000E943B08181619064CF481E0809389014A
:1006400088E092E00E9454088093870108950E94F8
:10065000DD050E94F50E20E030E04AE754E40E94F8
:100660005C0E20916D0130916E0140916F015091AF
:1006700070010E94F70D6093690170936A01809385
:100680006B0190936C010E9414038091890188236F
:1006900009F446C08091870190918801853561F405
:1006A00091110AC080918A018F3FE1F481E080932B
:1006B0008C018093880116C080938A01992391F060
:1006C000E0918C01E23019F480938B0107C0E33094
:1006D00028F090918B01915090938B01F0E0E357BB
:1006E000FE4F808380918C018F5F843318F4809358
:1006F0008C0104C010928C011092880180918801B5
:10070000882371F080918B0181110AC080918C0146
:10071000843030F0109288010E94D90210928C012E
:1007200008951F920F920FB60F9211242F933F93AB
:100730004F935F936F937F938F939F93AF93BF93E9
:10074000EF93FF938091DA0187FF05C01092850037
:10075000109284001AC02091DA01332727FD3095CA
:100760008091D90190E0281739077CF48091DA0153
:10077000992787FD9095FC01EE0FFF1FE80FF91FE9
:10078000E552FE4F808186FD15C08091DA018F5FB2
:100790008093DA012091DA01332727FD309580918B
:1007A000D90190E028173907BCF48091DA018C3028
:1007B0005CF112C08091DA01992787FD9095FC01C8
:1007C000EE0FFF1FE80FF91FE552FE4F808160E03A
:1007D0008F730E945707D9CF809184009091850034
:1007E000049680349C4918F480E49CE905C080910B
:1007F00084009091850004969093890080938800EE
:100800008FEF8093DA0138C0209184003091850009
:100810008091DA01992787FD9095FC01EE0FFF1F6B
:10082000E80FF91FE552FE4F81819281820F931FDD
:1008300090938900809388008091DA01992787FD41
:100840009095FC01EE0FFF1FE80FF91FE552FE4FD8
:10085000808186FF11C08091DA01992787FD9095EC
:10086000FC01EE0FFF1FE80FF91FE552FE4F8081DC
:1008700061E08F730E945707FF91EF91BF91AF9195
:100880009F918F917F916F915F914F913F912F91A8
:100890000F900FBE0F901F9018952091D9012C300A
:1008A000A0F431E0320F3093D901FC012083822F74
:1008B00090E0FC01EE0FFF1FE80FF91FE552FE4F1D
:1008C00088EB9BE09283818308952FEFFC012083C6
:1008D0000895DF92EF92FF920F931F93CF93DF93D0
:1008E000EC01D62E7A01890188818C3008F066C02F
:1008F00061E08D2D0E941E078881A82FB0E0FD01C8
:10090000EE0FFF1FEA0FFB1FE552FE4F2D2D2F7339
:100910009081907C922B908360E272E06E197F0947
:1009200077FF02C06D5F7F4F7595679575956795E9
:10093000698340E659E0401B510B57FF02C04D5FF1
:100940005F4F55954795559547954A836CE00E94B2
:10095000930F9CE0899FB001112420E030E0A901B1
:10096000460F571FFA01EE0FFF1FE40FF51FE55268
:10097000FE4F908196FD16C02F5F3F4F2C30310502
:1009800071F781110FC01092800082E08093810086
:100990001092850010928400B19A80916F0082605D
:1009A00080936F00888190E0FC01EE0FFF1FE80F3D
:1009B000F91FE552FE4F8081806480838881DF913A
:1009C000CF911F910F91FF90EF90DF90089520E657
:1009D00039E040E252E00C946904FC01808190E02F
:1009E000FC01EE0FFF1FE80FF91FE552FE4F80815B
:1009F0008F7B80830895FC0180818C3070F591811C
:100A000028E830E0291B310997FD3395220F331F69
:100A1000220F331F621773077CF0928128E532E0C2
:100A2000291B310997FD3395220F331F220F331FE6
:100A3000621773070CF49B0122503109220F331FF8
:100A40004FB7F89490E0FC01EE0FFF1FE80FF91F7D
:100A5000E552FE4F328321834FBF08954F925F923C
:100A60006F927F92AF92BF92CF92DF92EF92FF92FE
:100A70000F931F93CF93DF93EC01603282E07807EE
:100A80000CF040C077FD06C0653B71052CF064EBAF
:100A900070E002C060E070E0898128E830E0281B47
:100AA000310987FD3395220F331F220F331F590160
:100AB000CC24B7FCC094DC2C882777FD8095982F38
:100AC0002A8148E552E0421B510927FD5395440F06
:100AD000551F440F551F2A01662457FC6094762C3D
:100AE0007F926F925F924F9214EBE12EF12C00E017
:100AF00010E020E030E0A9010E94180D0F900F9047
:100B00000F900F90CE01DF91CF911F910F91FF9029
:100B1000EF90DF90CF90BF90AF907F906F905F90FD
:100B20004F900C94FB041F920F920FB60F9211245A
:100B30002F933F938F939F93AF93BF938091000226
:100B400090910102A0910202B09103023091FF0145
:100B500023E0230F2D3720F40196A11DB11D05C000
:100B600026E8230F0296A11DB11D2093FF0180935B
:100B7000000290930102A0930202B09303028091BD
:100B8000040290910502A0910602B091070201961D
:100B9000A11DB11D8093040290930502A09306024B
:100BA000B0930702BF91AF919F918F913F912F9189
:100BB0000F900FBE0F901F9018952FB7F89460916B
:100BC00000027091010280910202909103022FBFF6
:100BD00008953FB7F8948091040290910502A09186
:100BE0000602B091070226B5A89B05C02F3F19F059
:100BF0000196A11DB11D3FBF6627782F892F9A2F1F
:100C0000620F711D811D911D42E0660F771F881FC5
:100C1000991F4A95D1F70895CF92DF92EF92FF92F4
:100C2000CF93DF936B017C010E94E905EB01C114B6
:100C3000D104E104F10489F00E94F60D0E94E90557
:100C40006C1B7D0B683E734090F381E0C81AD1089D
:100C5000E108F108C851DC4FEACFDF91CF91FF9056
:100C6000EF90DF90CF900895019739F0880F991F8A
:100C7000880F991F02970197F1F70895789484B52A
:100C8000826084BD84B5816084BD85B5826085BD88
:100C900085B5816085BDEEE6F0E08081816080836E
:100CA000E1E8F0E010828081826080838081816051
:100CB0008083E0E8F0E0808181608083E1EBF0E018
:100CC000808184608083E0EBF0E0808181608083BC
:100CD000EAE7F0E0808184608083808182608083A5
:100CE0008081816080838081806880831092C100D0
:100CF00008958E3008F08E50877020911A0190E48C
:100D0000299F90011124822B80937C0080917A008E
:100D1000806480937A0080917A0086FDFCCF809178
:100D200078002091790090E0922B08951F93CF9343
:100D3000DF93182FEB0161E00E941E07209711F44A
:100D400060E004C0CF3FD10539F461E0812FDF912D
:100D5000CF911F910C945707E12FF0E0E859FF4F16
:100D6000E491E330F9F048F4E130B9F0E230A1F574
:100D700084B5806284BDC8BD34C0E730E9F0E83096
:100D800019F1E43049F58091800080628093800001
:100D9000D0938B00C0938A0024C084B5806884BD42
:100DA000C7BD1FC080918000806880938000D09371
:100DB0008900C093880015C08091B000806880933E
:100DC000B000C093B3000DC08091B00080628093EA
:100DD000B000C093B40005C0C038D1050CF0B5CF49
:100DE000AFCFDF91CF911F910895833081F028F428
:100DF000813099F08230A1F008958730A9F08830D1
:100E0000B9F08430D1F4809180008F7D03C080914F
:100E100080008F7780938000089584B58F7702C01B
:100E200084B58F7D84BD08958091B0008F7703C015
:100E30008091B0008F7D8093B0000895CF93DF93B1
:100E400090E0FC01E458FF4F2491FC01E057FF4F74
:100E50008491882349F190E0880F991FFC01E854A0
:100E6000FF4FA591B49182559F4FFC01C591D4913C
:100E70009FB7611108C0F8948C91209582238C93C0
:100E8000888182230AC0623051F4F8948C91322F09
:100E9000309583238C938881822B888304C0F894B7
:100EA0008C91822B8C939FBFDF91CF9108950F93EC
:100EB0001F93CF93DF931F92CDB7DEB7282F30E07B
:100EC000F901E859FF4F8491F901E458FF4F14915B
:100ED000F901E057FF4F04910023C9F0882321F066
:100EE00069830E94F5066981E02FF0E0EE0FFF1F95
:100EF000E255FF4FA591B4919FB7F8948C91611181
:100F000003C01095812301C0812B8C939FBF0F904C
:100F1000DF91CF911F910F910895CF93DF93282FE9
:100F200030E0F901E859FF4F8491F901E458FF4F8F
:100F3000D491F901E057FF4FC491CC2391F0811176
:100F40000E94F506EC2FF0E0EE0FFF1FEC55FF4F6F
:100F5000A591B4912C912D2381E090E021F480E0C3
:100F600002C080E090E0DF91CF910895CF92DF92B0
:100F7000EF92FF920F931F93CF93DF9390E0FC01CA
:100F8000E458FF4FD491FC01E057FF4F7491611179
:100F900002C0C0E001C0CD2FDA01C901BF70672FC8
:100FA00070E0660F771F6C557F4F00E010E09801EE
:100FB000FB01E590F490F70140814D234C131EC0D6
:100FC000680179014FEFC41AD40AE40AF40A081739
:100FD00019072A073B0709F442C097018601E8CFA9
:100FE00068017901FFEFCF1ADF0AEF0AFF0A08173D
:100FF00019072A073B0799F197018601FB01E59044
:10100000F490F70140814D234C13EACF801B910BE4
:10101000A20BB30B20E030E0A901FB01E590F490B6
:10102000F701F080FD22FC120AC0281739074A0791
:101030005B07A9F02F5F3F4F4F4F5F4FEECFA8E107
:10104000B0E00E94E00F605F7F4F8F4F9F4F24E022
:1010500096958795779567952A95D1F703C060E0B7
:1010600070E0CB01DF91CF911F910F91FF90EF9036
:10107000DF90CF900895FC01818D228D90E0805CFF
:101080009F4F821B91098F7399270895FC01918DC1
:10109000828D981731F0828DE80FF11D858D90E0DB
:1010A00008958FEF9FEF0895FC01918D828D981721
:1010B00061F0828DDF01A80FB11D5D968C91928D3C
:1010C0009F5F9F73928F90E008958FEF9FEF089539
:1010D00088ED99E0892B49F080E090E0892B29F098
:1010E0000E94D80981110C9400000895FC01848DA0
:1010F000DF01A80FB11DA35ABF4F2C91848D90E042
:1011000001968F739927848FA689B7892C93A0891C
:10111000B1898C9180648C93938D848D981306C0D3
:101120000288F389E02D80818F7D80830895CF939D
:10113000DF93EC01888D8823C9F0EA89FB898081DF
:1011400085FD05C0A889B9898C9186FD0FC00FB6B1
:1011500007FCF5CF808185FFF2CFA889B9898C91F2
:1011600085FFEDCFCE010E947608E7CFDF91CF91CA
:101170000895CF92DF92FF920F931F93CF93DF9347
:101180001F92CDB7DEB76C01DC015B969C915B973B
:101190005C968C915C97981307C05096ED91FC91EA
:1011A0005197808185FD32C0F601038D10E00F5FFD
:1011B0001F4F0F731127F02EF601848DF81211C006
:1011C0000FB607FCF9CFD6015096ED91FC915197DF
:1011D000808185FFF1CFC60169830E94760869810D
:1011E000EBCF838DE80FF11DE35AFF4F6083D601EB
:1011F0005B960C935B975296ED91FC91539780818F
:101200008062808381E058968C930DC0D6015696FB
:10121000ED91FC91579760835096ED91FC91519719
:1012200080818064808381E090E00F90DF91CF9196
:101230001F910F91FF90DF90CF900895BF92CF92B2
:10124000DF92EF92FF92CF93DF93EC016A017B0173
:10125000B22EE889F98982E08083411581EE580732
:1012600061057105A1F060E079E08DE390E0A701F0
:1012700096010E949F0F215031094109510956954D
:10128000479537952795211580E1380798F0E8892B
:10129000F989108260E874E88EE190E0A701960178
:1012A0000E949F0F215031094109510956954795D8
:1012B00037952795EC85FD853083EE85FF85208366
:1012C000188EEC89FD89B082EA89FB898081806172
:1012D0008083EA89FB89808188608083EA89FB8931
:1012E000808180688083EA89FB8980818F7D80830B
:1012F000DF91CF91FF90EF90DF90CF90BF90089556
:101300001F920F920FB60F9211242F938F939F93DA
:10131000EF93FF93E0911802F09119028081E09120
:101320001E02F0911F0282FD12C090818091210265
:101330008F5F8F7320912202821751F0E09121027A
:10134000F0E0E85FFD4F958F8093210201C080811E
:10135000FF91EF919F918F912F910F900FBE0F9062
:101360001F9018951F920F920FB60F9211242F9372
:101370003F934F935F936F937F938F939F93AF931D
:10138000BF93EF93FF9388E092E00E947608FF916D
:10139000EF91BF91AF919F918F917F916F915F91ED
:1013A0004F913F912F910F900FBE0F901F90189566
:1013B00088E092E00E943B0821E0892B09F420E0BC
:1013C000822F089510920B0210920A0288EE93E089
:1013D000A0E0B0E080930C0290930D02A0930E0267
:1013E000B0930F028BE591E090930902809308027D
:1013F00085EC90E0909315028093140284EC90E0C9
:10140000909317028093160280EC90E0909319025B
:101410008093180281EC90E090931B0280931A0253
:1014200082EC90E090931D0280931C0286EC90E089
:1014300090931F0280931E021092210210922202AA
:101440001092230210922402089508950E943E06ED
:101450000E94250A0E948E00C8E6D8E00E94270359
:101460002097E1F30E946808F9CFCF92DF92EF92C4
:10147000FF920F931F93CF93DF936C017A01EB01DF
:10148000E60EF71E00E010E0CE15DF0561F0699171
:10149000D601ED91FC910190F081E02DC6010995F6
:1014A000080F191FF1CFC801DF91CF911F910F9144
:1014B000FF90EF90DF90CF900895DC01ED91FC91CB
:1014C0000190F081E02D09940F931F93CF93DF9348
:1014D000EC016DE00E945D0A8C016AE0CE010E9481
:1014E0005D0A800F911FDF91CF911F910F91089599
:1014F0003F924F925F926F927F928F929F92AF92A4
:10150000BF92CF92DF92EF92FF920F931F93CF93F0
:10151000DF9300D000D0CDB7DEB78B0129013A01AF
:1015200090911B01981721F09F3F09F0DAC104C088
:10153000E2ECF0E0349081C080931B01E2ECF0E03B
:10154000E491EF3F09F4CDC1E13031F1E23009F42B
:101550004BC0E11171C014BC15BC94B5926094BD30
:1015600095B5916095BD282F30E0F901E057FF4F08
:10157000E491F0E0EE0FFF1FE255FF4F45915491CB
:101580005093B5024093B402F901E458FF4F2491FF
:101590002093B302312C53C010928000109281002E
:1015A000909181009860909381009091810091606A
:1015B00090938100282F30E0F901E057FF4FE4912C
:1015C000F0E0EE0FFF1FE255FF4F4591549150930D
:1015D000AE024093AD02F901E458FF4F24912093ED
:1015E000AC02332433942BC01092B0001092B1009F
:1015F0009091B00092609093B0009091B100916092
:101600009093B100282F30E0F901E057FF4FE491AB
:10161000F0E0EE0FFF1FE255FF4F459154915093BC
:10162000A7024093A602F901E458FF4F24912093AA
:10163000A50252E0352E03C03E2E37FC52C161E0B8
:101640000E941E074801A12CB12C832D8D7F09F02B
:10165000C7C060E072E18AE790E0A50194010E94B2
:10166000C10F29833A834B835C8369017A0181E04E
:10167000C81AD108E108F1089FEFC916D104E104A6
:10168000F10409F008F49AC060E472E48FE090E09D
:10169000A50194010E94C10F69017A01E1E0CE1A0F
:1016A000D108E108F108F2E03F1219C08FEFC81627
:1016B000D104E104F10409F008F48AC060E970ED96
:1016C00083E090E0A50194010E94C10F69017A01B5
:1016D00091E0C91AD108E108F10883E001C082E075
:1016E000EFEFCE16D104E104F10409F008F467C06D
:1016F00068E478EE81E090E0A50194010E94C10FBA
:1017000069017A01F1E0CF1AD108E108F10833202C
:10171000E1F082E038121BC09FEFC916D104E1044A
:10172000F10409F008F4DBC064E274EF80E090E0BB
:10173000A50194010E94C10F69017A01E1E0CE1A6E
:10174000D108E108F10885E003C083E001C084E02E
:10175000FFEFCF16D104E104F10489F180F162E1D9
:101760007AE780E090E0A50194010E94C10F690131
:101770007A0181E0C81AD108E108F108311002C0ED
:1017800084E001C086E09FEFC916D104E104F104B2
:10179000B1F0A8F0C980DA80EB80FC809AE0F59483
:1017A000E794D794C7949A95D1F7E1E0CE1AD1087F
:1017B000E108F108332031F087E00BC081E03320ED
:1017C00011F007C085E095B5987F982B95BD38C07E
:1017D00082E09091B100987F982B9093B10030C037
:1017E00060E072E18AE790E0A50194010E94C10FD8
:1017F00069017A01F1E0CF1AD108E108F108C114BA
:10180000D10481E0E806F10488F068E478EE81E034
:1018100090E0A50194010E94C10F69017A0191E055
:10182000C91AD108E108F10893E001C091E0E1E0B4
:101830003E1206C080918100887F892B80938100B1
:10184000411451046104710471F0D801AA0FBB1F47
:10185000A30192010E94E00F28EE33E040E050E047
:101860000E949F0F03C02FEF3FEFA901F1E03F1649
:10187000A1F082E0381619F1311033C0C7BC2093B3
:10188000B6023093B7024093B8025093B9028091E8
:101890006E00826080936E0024C0D0928900C09256
:1018A00088002093AF023093B0024093B10250936E
:1018B000B20280916F00826080936F0012C0C0926C
:1018C000B3002093A8023093A9024093AA02509338
:1018D000AB028091700082608093700002C084E04F
:1018E00078CF0F900F900F900F90DF91CF911F91B5
:1018F0000F91FF90EF90DF90CF90BF90AF909F90AF
:101900008F907F906F905F904F903F9008958130BF
:1019100039F018F0823051F0089510926E00089559
:1019200080916F008D7F80936F000895809170008B
:101930008D7F8093700081E08093B0008091B10032
:10194000887F84608093B1001092B3000895CF9394
:10195000C82F80911B018C1307C0E2ECF0E084914A
:101960009FEF90931B0101C08FEF0E94870C60E0F6
:101970008C2FCF910C9457071F920F920FB60F9296
:1019800011242F933F934F935F936F937F938F9384
:101990009F93AF93BF93EF93FF938091A802909191
:1019A000A902A091AA02B091AB02892B8A2B8B2BA2
:1019B00051F19091A502E091A602F091A7028081D9
:1019C000892780838091A8029091A902A091AA0200
:1019D000B091AB02181619061A061B06C4F48091C2
:1019E000A8029091A902A091AA02B091AB0201971E
:1019F000A109B1098093A8029093A902A093AA0219
:101A0000B093AB0204C080911B010E94A70CFF9110
:101A1000EF91BF91AF919F918F917F916F915F9166
:101A20004F913F912F910F900FBE0F901F901895DF
:101A30004F925F926F927F92AF92BF92CF92DF925E
:101A4000EF92FF920F931F93CF93DF93CDB7DEB743
:101A500029013A01621B730B840B950B29893A8982
:101A60004B895C892A193B094C095D09298B3A8B02
:101A70004B8B5C8B9B01AC0169897A898B899C8932
:101A80000E94830FE418F50806091709A8019701B9
:101A90000E94C10F2A0D3B1D4C1D5D1DCA01B901DD
:101AA000DF91CF911F910F91FF90EF90DF90CF903A
:101AB000BF90AF907F906F905F904F900895FC0122
:101AC000808191810C949810CF93DF93EC018881F1
:101AD0009981009711F00E949810198218821D8236
:101AE0001C821B821A82DF91CF9108950F931F935E
:101AF000CF93DF93EC018B016F5F7F4F88819981DA
:101B00000E942711009731F0998388831B830A83F1
:101B100081E001C080E0DF91CF911F910F91089586
:101B2000CF93DF93EC0188819981892B29F08A81F9
:101B30009B818617970760F4CE010E94760D88235B
:101B400041F08C819D81892B19F4E881F981108203
:101B500081E0DF91CF910895EF92FF920F931F9351
:101B6000CF93DF93EC017B018A01BA010E94900DB3
:101B7000811104C0CE010E94640D07C01D830C8337
:101B8000B701888199810E94FA11CE01DF91CF912E
:101B90001F910F91FF90EF900895FC011182108228
:101BA00013821282158214826115710559F0FB01AE
:101BB00001900020E9F7AF0141505109461B570B36
:101BC0000C94AC0D0895FC012481358162177307D4
:101BD00048F480819181009729F0FC01E60FF71FFE
:101BE0008081089580E008950C94E30D0895505885
:101BF000BB27AA270ED04DC13ED130F043D120F0F3
:101C000031F49F3F11F41EF433C10EF4E095E7FB6D
:101C100029C1E92F4FD180F3BA17620773078407F0
:101C2000950718F071F49EF567C10EF4E0950B2E40
:101C3000BA2FA02D0B01B90190010C01CA01A0011E
:101C40001124FF27591B99F0593F50F4503E68F179
:101C50001A16F040A22F232F342F4427585FF3CFBA
:101C6000469537952795A795F0405395C9F77EF48B
:101C70001F16BA0B620B730B840BBAF09150A1F0D4
:101C8000FF0FBB1F661F771F881FC2F70EC0BA0F5A
:101C9000621F731F841F48F4879577956795B795E2
:101CA000F7959E3F08F0B3CF9395880F08F09927DA
:101CB000EE0F9795879508950CD0EBC0E3D040F0D8
:101CC000DAD030F021F45F3F19F0CCC0511115C1CA
:101CD000CFC0F0D098F39923C9F35523B1F3951BE6
:101CE000550BBB27AA2762177307840738F09F5F3D
:101CF0005F4F220F331F441FAA1FA9F333D00E2EAC
:101D00003AF0E0E830D091505040E695001CCAF718
:101D100029D0FE2F27D0660F771F881FBB1F2617DD
:101D200037074807AB07B0E809F0BB0B802DBF01B0
:101D3000FF2793585F4F2AF09E3F510568F092C0ED
:101D4000DCC05F3FECF3983EDCF3869577956795B2
:101D5000B795F7959F5FC9F7880F911D9695879561
:101D600097F90895E1E0660F771F881FBB1F621780
:101D700073078407BA0720F0621B730B840BBA0B3E
:101D8000EE1F88F7E095089504D06894B111B5C0AE
:101D9000089598D088F09F5790F0B92F9927B751A0
:101DA000A0F0D1F0660F771F881F991F1AF0BA951F
:101DB000C9F712C0B13081F09FD0B1E008959CC046
:101DC000672F782F8827B85F39F0B93FCCF3869515
:101DD00077956795B395D9F73EF490958095709572
:101DE00061957F4F8F4F9F4F0895E89409C097FBEF
:101DF0003EF490958095709561957F4F8F4F9F4FE2
:101E00009923A9F0F92F96E9BB279395F695879525
:101E100077956795B795F111F8CFFAF4BB0F11F4E8
:101E200060FF1BC06F5F7F4F8F4F9F4F16C088238F
:101E300011F096E911C0772321F09EE8872F762FC5
:101E400005C0662371F096E8862F70E060E02AF006
:101E50009A95660F771F881FDAF7880F96958795F2
:101E600097F9089597F99F6780E870E060E008951A
:101E70009FEF80EC089500240A94161617061806A2
:101E80000906089500240A9412161306140605067E
:101E90000895092E0394000C11F4882352F0BB0F0F
:101EA00040F4BF2B11F460FF04C06F5F7F4F8F4F72
:101EB0009F4F089557FD9058440F551F59F05F3FAD
:101EC00071F04795880F97FB991F61F09F3F79F05C
:101ED00087950895121613061406551FF2CF4695DE
:101EE000F1DF08C0161617061806991FF1CF869560
:101EF0007105610508940895E894BB276627772744
:101F0000CB0197F90895DB018F939F930E94E00F17
:101F1000BF91AF91A29F800D911DA39F900DB29F85
:101F2000900D11240895991B79E004C0991F96170C
:101F300008F0961B881F7A95C9F780950895A1E24D
:101F40001A2EAA1BBB1BFD010DC0AA1FBB1FEE1F33
:101F5000FF1FA217B307E407F50720F0A21BB30B7E
:101F6000E40BF50B661F771F881F991F1A9469F7FA
:101F700060957095809590959B01AC01BD01CF0156
:101F80000895052E97FB1EF400940E94D80F57FD6C
:101F900007D00E949F0F07FC03D04EF40C94D80F7B
:101FA00050954095309521953F4F4F4F5F4F089585
:101FB00090958095709561957F4F8F4F9F4F0895B5
:101FC0000E94F10FA59F900DB49F900DA49F800DCE
:101FD000911D11240895EE0FFF1F0590F491E02D3F
:101FE0000994A29FB001B39FC001A39F700D811DF2
:101FF0001124911DB29F700D811D1124911D089512
:10200000CF93DF938230910510F482E090E0E0916D
:10201000BC02F091BD0220E030E0A0E0B0E03097DB
:1020200039F14081518148175907B8F048175907CD
:1020300071F482819381109729F013969C938E936B
:1020400012972CC09093BD028093BC0227C021152B
:10205000310531F04217530718F0A901DB0101C027
:10206000EF019A01BD01DF010280F381E02DD7CF9E
:1020700021153105F9F0281B390B2430310580F486
:102080008A819B816115710521F0FB019383828315
:1020900004C09093BD028093BC02FE01329644C0FE
:1020A000FE01E20FF31F819391932250310939838E
:1020B00028833AC02091BA023091BB02232B41F40D
:1020C00020910201309103013093BB022093BA02A8
:1020D00020910001309101012115310541F42DB706
:1020E0003EB74091040150910501241B350BE0914E
:1020F000BA02F091BB02E217F307A0F42E1B3F0BCC
:102100002817390778F0AC014E5F5F4F2417350769
:1021100048F04E0F5F1F5093BB024093BA02819369
:10212000919302C0E0E0F0E0CF01DF91CF910895FC
:10213000CF93DF93009709F487C0FC013297138295
:102140001282C091BC02D091BD02209781F42081FF
:102150003181280F391F8091BA029091BB028217FA
:10216000930779F5F093BB02E093BA026DC0DE01EC
:1021700020E030E0AE17BF0750F412964D915C910D
:1021800013979D014115510509F1DA01F3CFB3838E
:10219000A28340815181840F951F8A179B0771F498
:1021A0008D919C911197840F951F02969183808346
:1021B00012968D919C9113979383828321153105FB
:1021C00029F4F093BD02E093BC023EC0D9011396FE
:1021D000FC93EE9312974D915D91A40FB51FEA17F2
:1021E000FB0779F480819181840F951F0296D901B4
:1021F00011969C938E938281938113969C938E93D8
:102200001297E0E0F0E08A819B81009719F0FE01CF
:10221000EC01F9CFCE01029628813981820F931FFC
:102220002091BA023091BB022817390769F4309720
:1022300029F41092BD021092BC0202C013821282D5
:10224000D093BB02C093BA02DF91CF910895A0E072
:10225000B0E0EDE2F1E10C940512EC01CB01209726
:1022600019F40E940010B8C0FE01E60FF71F9E018E
:1022700022503109E217F30708F4ACC0D9010D91DF
:102280001C91119706171707B8F00530110508F4CF
:102290009FC0A801445051094617570708F498C039
:1022A00002501109061B170B019311936D937C9338
:1022B000CF010E9498108CC05B01A01AB10A4E0198
:1022C000800E911EA091BC02B091BD02612C712CB8
:1022D00060E070E0109709F449C0A815B905C9F588
:1022E000ED90FC901197670142E0C40ED11CCA1416
:1022F000DB0478F147018A189B08640142E0C40EB0
:10230000D11C1296BC9012971396AC91B5E0CB16E7
:10231000D10440F0B282A38391828082D9018D934F
:102320009C9309C00E5F1F4F0E0D1F1DF9011183F5
:102330000083EB2DFA2F6115710531F0DB01139647
:10234000FC93EE93129744C0F093BD02E093BC025D
:102350003FC06D917C9111976616770608F43B019A
:10236000BD0112960D90BC91A02DB4CF6091BA0220
:102370007091BB0268157905E9F468167906D0F406
:1023800040910001509101014115510541F44DB7B3
:102390005EB76091040170910501461B570BE4176D
:1023A000F507C0F4F093BB02E093BA02F901918300
:1023B00080830EC00E9400107C01009759F0A80194
:1023C000BE010E94F111CE010E949810C70104C005
:1023D000CE0102C080E090E0CDB7DEB7EEE00C9415
:1023E0002112FB01DC0102C001900D9241505040CE
:1023F000D8F70895FB01DC0101900D920020E1F770
:1024000008952F923F924F925F926F927F928F9298
:102410009F92AF92BF92CF92DF92EF92FF920F9373
:102420001F93CF93DF93CDB7DEB7CA1BDB0B0FB67D
:10243000F894DEBF0FBECDBF09942A88398848883A
:102440005F846E847D848C849B84AA84B984C884D0
:10245000DF80EE80FD800C811B81AA81B981CE0FC7
:10246000D11D0FB6F894DEBF0FBECDBFED010895AC
:04247000F894FFCF0E
:102474000000BE028000010000000E000F001000EA
:102484001100120013001400150001FF436F70794E
:10249400726967687420284329203230313620530A
:1024A400617963686565736520436F2E2C204C74D5
:1024B400642E20416C6C20726967687420726573A5
:1024C40065727665642E0000000000B908350A3B89
:0824D4000854084608970800AF
:00000001FF
