:100000000C9464000C948C000C948C000C948C0068
:100010000C948C000C948C000C948C000C94A10912
:100020000C948C000C948C000C948C000C948C0020
:100030000C948C000C948C000C948C000C948C0010
:100040000C947D030C948C000C9490060C94C206C6
:100050000C948C000C948C000C948C000C948C00F0
:100060000C948C000C948C0000000008000201002D
:100070000003040700000000000000000102040863
:100080001020408001020408102001020408102002
:10009000040404040404040402020202020203032E
:1000A00003030303000000002300260029000000D2
:1000B0000000250028002B0000000000240027007D
:1000C0002A000200EE01F20611241FBECFEFD8E095
:1000D000DEBFCDBF11E0A0E0B1E0E0EFF4E102C08F
:1000E00005900D92A036B107D9F722E0A0E6B1E065
:1000F00001C01D92AA32B207E1F710E0C8ECD0E0CF
:1001000004C02297FE010E94630AC43CD107C9F7CC
:100110000E94FE090C94760A0C940000DC01ED911B
:10012000FC910190F081E02D0994CF93C0E061E053
:100130008C2F0E94B30460E08C2F0E94EC04CF5FF0
:10014000CE30A9F7CF9108950F931F93CF93DF93EC
:10015000EC010E940E048C01BE016770772783E0DA
:10016000660F771F8A95E1F7606C9801220F232FA5
:10017000221F330B27703327622B732B88E791E004
:100180000E948E00B8016F77772788E791E0DF91B2
:10019000CF911F910F910C948E00CF93DF93EC01C0
:1001A0000E942205CF70DD27BE01660F771F660F04
:1001B000771F019711F4616801C0606888E791E0DA
:1001C000DF91CF910C948E008830910524F024B1FA
:1001D00030E0089702C02AB130E002C0359527957B
:1001E0008A95E2F7822F81700895CF93DF93EC0117
:1001F0000997029758F0CE010E94E400882331F05D
:1002000060E08C2FDF91CF910C94B304DF91CF91FC
:100210000895CF93DF93EC010997029788F0C230DD
:10022000D10571F0C430D10559F0CE010E94E4002F
:10023000811106C061E08C2FDF91CF910C94B30443
:10024000DF91CF910895EF92FF921F93CF93DF93A9
:1002500000D0CDB7DEB7182F992787FD909597FF6F
:1002600033C016FF1DC015FF18C07C01F594E7943C
:100270008FE0E822FF24C7010E94090110FF02C09D
:1002800061E001C060E08E2D0F900F90DF91CF9163
:100290001F91FF90EF900C94EC041093600159C0F3
:1002A000959587958F7099278230910521F084303C
:1002B000910509F04EC00F900F90DF91CF911F91E3
:1002C000FF90EF900C94F50060916001772767FD37
:1002D00070957B01F594E794EFE0EE22FF2476958C
:1002E000762F66277795679577271F77610F711DA2
:1002F000C70169837A830E94090180914C01909122
:100300004D0169817A81E816F90629F481E691E0C8
:100310000E945A021CC0FAE0EF16F104A9F46436F8
:10032000710521F48AE00E948C0911C0FB01EE0FD7
:10033000FF1FE050FF4F6081718120E030E0A90194
:100340008AE00E945D0703C08E2D0E942B0410924C
:1003500060010F900F90DF91CF911F91FF90EF9070
:10036000089520E030E02817390749F00F920F90E8
:100370000F920F900F920F902F5F3F4FF4CF089581
:10038000CF93DF93C0E0D0E0CE010E94E400811162
:1003900003C0CE010E94CD002196C930D105A1F73E
:1003A000CBE0D0E0CE010E94E400811103C0CE0179
:1003B0000E94CD002196CE30D105A1F7C0E0D0E05B
:1003C000CE010E94A40084EF91E00E94B101219629
:1003D000C630D105A9F7DF91CF91089581E691E06C
:1003E0000C942F0226E040E052EC61E070E088E7D8
:1003F00091E00E942E0688E791E00E94A7050E94E6
:10040000950060914C0170914D0181E691E00C9452
:100410003C0288E791E00E944B05892B39F088E780
:1004200091E00E9464050E942301F3CF80914A016C
:1004300090914B01893E934044F010924B011092F1
:100440004A010E94C0010E949F0280914A0190913E
:100450004B01019690934B0180934A010895FC0152
:1004600010828FEF81831382128282E2848386E975
:100470008583178216820895CF93DF93EC01862F30
:1004800068839FEF99831B821A8220916D013091BE
:100490006E013F832E83D0936E01C0936D0160E0A7
:1004A0000E94EC0461E088810E94B30481E0DF9146
:1004B000CF910895CF92DF92EF92FF92CF93DF9387
:1004C000EC0177FD06C0653B71052CF064EB70E034
:1004D00002C060E070E06983CC802D8130E02C198F
:1004E0003109D12CE12CF12CFE2CED2CDC2CCC2470
:1004F000C901AA2797FDA095BA2F2227382F492F87
:100500005A2FDB010E94590A24EB30E040E050E012
:100510000E942F0AC20ED31EE41EF51EC701B601AB
:1005200020E430E040E050E00E942F0A3B832A8321
:10053000DF91CF91FF90EF90DF90CF9008957F9261
:100540008F929F92AF92BF92CF92DF92EF92FF92E3
:100550000F931F93CF93DF93CDB7DEB70DB71EB7C1
:100560000E94C703C0906901D0906A01E0906B01BE
:10057000F0906C016C157D058E059F0558F024E107
:10058000C20ED11CE11CF11C6C157D058E059F056A
:1005900008F49BC06093690170936A0180936B01BA
:1005A00090936C01E0916D01F0916E01DF01B12C2F
:1005B000109761F012968D919C911397892B09F0F9
:1005C000B39416960D90BC91A02DF2CFBB2009F4E8
:1005D0007CC08DB79EB7A2E0BA9E80199109112404
:1005E0000FB6F8949EBF0FBE8DBF01967C0120E030
:1005F000309781F082819381892B41F0D701A20F3E
:10060000B11DA20FB11DED93FC932F5F0680F78102
:10061000E02DEECFC12CDD24D394DB1438F5ED2D85
:10062000F0E04F01880C991C8E0C9F1CD4018D9119
:100630009C913197EE0FFF1FEE0DFF1D2081318140
:10064000DC0112966D917C911397D90112964D9110
:100650005C9113976417750738F4D4012D933C937C
:1006600091838083CC24C394D394D7CFC110D2CFAD
:100670006701A12CD601ED91FD916D0161E08081B2
:100680000E94EC04A394AB10F5CFA6B4C12CD12CDE
:10069000712C8A2C912CD701ED91FD917D018281E5
:1006A0009381880D991D2A2DA6B4A21608F4D3941F
:1006B00096012A0D311D82179307A8F760E080810B
:1006C0000E94EC0473947B10E6CF0FB6F8941EBF23
:1006D0000FBE0DBF0FB6F8941EBF0FBE0DBFDF914A
:1006E000CF911F910F91FF90EF90DF90CF90BF902F
:1006F000AF909F908F907F9008951F920F920FB6AA
:100700000F9211242F933F938F939F93AF93BF9397
:100710008091700190917101A0917201B09173016B
:1007200030916F0123E0230F2D3720F40196A11D96
:10073000B11D05C026E8230F0296A11DB11D20930F
:100740006F018093700190937101A0937201B09337
:1007500073018091740190917501A0917601B0911F
:1007600077010196A11DB11D8093740190937501CD
:10077000A0937601B0937701BF91AF919F918F9134
:100780003F912F910F900FBE0F901F9018952FB78C
:10079000F894609170017091710180917201909153
:1007A00073012FBF0895789484B5826084BD84B5A9
:1007B000816084BD85B5826085BD85B5816085BD5C
:1007C000EEE6F0E0808181608083E1E8F0E0108275
:1007D000808182608083808181608083E0E8F0E0B6
:1007E000808181608083E1EBF0E0808184608083A0
:1007F000E0EBF0E0808181608083EAE7F0E08081D7
:100800008460808380818260808380818160808336
:100810008081806880831092C10008958E3008F036
:100820008E50877020914E0190E4299F90011124F1
:10083000822B80937C0080917A00806480937A0080
:1008400080917A0086FDFCCF80917800209179001C
:1008500090E0922B08951F93CF93DF93182FEB0115
:1008600061E00E94B304209711F460E004C0CF3F20
:10087000D10539F461E0812FDF91CF911F910C9464
:10088000EC04E12FF0E0E859FF4FE491E330F9F098
:1008900048F4E130B9F0E230A1F584B5806284BD5E
:1008A000C8BD34C0E730E9F0E83019F1E43049F56B
:1008B00080918000806280938000D0938B00C093F1
:1008C0008A0024C084B5806884BDC7BD1FC08091E4
:1008D0008000806880938000D0938900C093880056
:1008E00015C08091B00080688093B000C093B300C1
:1008F0000DC08091B00080628093B000C093B400BE
:1009000005C0C038D1050CF0B5CFAFCFDF91CF9186
:100910001F910895833081F028F4813099F082305E
:10092000A1F008958730A9F08830B9F08430D1F46F
:10093000809180008F7D03C0809180008F778093AD
:100940008000089584B58F7702C084B58F7D84BD03
:1009500008958091B0008F7703C08091B0008F7DA3
:100960008093B0000895CF93DF9390E0FC01E458AA
:10097000FF4F2491FC01E057FF4F8491882349F1F8
:1009800090E0880F991FFC01E854FF4FA591B491A6
:1009900082559F4FFC01C591D4919FB7611108C04A
:1009A000F8948C91209582238C93888182230AC0AD
:1009B000623051F4F8948C91322F309583238C93CC
:1009C0008881822B888304C0F8948C91822B8C932D
:1009D0009FBFDF91CF9108950F931F93CF93DF9324
:1009E0001F92CDB7DEB7282F30E0F901E859FF4F4D
:1009F0008491F901E458FF4F1491F901E057FF4F3A
:100A000004910023C9F0882321F069830E948A049D
:100A10006981E02FF0E0EE0FFF1FE255FF4FA59137
:100A2000B4919FB7F8948C91611103C01095812304
:100A300001C0812B8C939FBF0F90DF91CF911F91AD
:100A40000F910895CF93DF93282F30E0F901E859F3
:100A5000FF4F8491F901E458FF4FD491F901E05719
:100A6000FF4FC491CC2391F081110E948A04EC2F96
:100A7000F0E0EE0FFF1FEC55FF4FA591B4912C91C4
:100A80002D2381E090E021F480E002C080E090E03E
:100A9000DF91CF910895FC01818D228D90E0805CE3
:100AA0009F4F821B91098F7399270895FC01918DA7
:100AB000828D981731F0828DE80FF11D858D90E0C1
:100AC00008958FEF9FEF0895FC01918D828D981707
:100AD00061F0828DDF01A80FB11D5D968C91928D22
:100AE0009F5F9F73928F90E008958FEF9FEF08951F
:100AF00088EE96E0892B49F080E090E0892B29F080
:100B00000E94E80681110C9400000895FC01848D78
:100B1000DF01A80FB11DA35ABF4F2C91848D90E027
:100B200001968F739927848FA689B7892C93A08902
:100B3000B1898C9180648C93938D848D981306C0B9
:100B40000288F389E02D80818F7D80830895CF9383
:100B5000DF93EC01888D8823C9F0EA89FB898081C5
:100B600085FD05C0A889B9898C9186FD0FC00FB697
:100B700007FCF5CF808185FFF2CFA889B9898C91D8
:100B800085FFEDCFCE010E948605E7CFDF91CF91A3
:100B90000895CF92DF92FF920F931F93CF93DF932D
:100BA0001F92CDB7DEB76C0181E0D60158968C93C9
:100BB00058975B969C915B975C968C915C97981389
:100BC00007C05096ED91FC915197808185FD2EC014
:100BD000F601038D10E00F5F1F4F0F731127F02EEA
:100BE000F601848DF81211C00FB607FCF9CFD601BB
:100BF0005096ED91FC915197808185FFF1CFC60110
:100C000069830E9486056981EBCF838DE80FF11D12
:100C1000E35AFF4F6083D6015B960C935B97529625
:100C2000ED91FC915397808180620CC0D60156965D
:100C3000ED91FC91579760835096ED91FC915197FF
:100C400080818064808381E090E00F90DF91CF917C
:100C50001F910F91FF90DF90CF900895BF92CF9298
:100C6000DF92EF92FF92CF93DF93EC016A017B0159
:100C7000B22EE889F98982E08083411581EE580718
:100C800061057105A1F060E079E08DE390E0A701D6
:100C900096010E940D0A21503109410951095695CA
:100CA000479537952795211580E1380798F0E88911
:100CB000F989108260E874E88EE190E0A70196015E
:100CC0000E940D0A21503109410951095695479555
:100CD00037952795EC85FD853083EE85FF8520834C
:100CE000188EEC89FD89B082EA89FB898081806158
:100CF0008083EA89FB89808188608083EA89FB8917
:100D0000808180688083EA89FB8980818F7D8083F0
:100D1000DF91CF91FF90EF90DF90CF90BF9008953B
:100D20001F920F920FB60F9211242F938F939F93C0
:100D3000EF93FF93E0918801F09189018081E09128
:100D40008E01F0918F0182FD12C0908180919101FE
:100D50008F5F8F7320919201821751F0E091910182
:100D6000F0E0E858FE4F958F8093910101C080819B
:100D7000FF91EF919F918F912F910F900FBE0F9048
:100D80001F9018951F920F920FB60F9211242F9358
:100D90003F934F935F936F937F938F939F93AF9303
:100DA000BF93EF93FF9388E791E00E948605FF9140
:100DB000EF91BF91AF919F918F917F916F915F91D3
:100DC0004F913F912F910F900FBE0F901F9018954C
:100DD00088E791E00E944B0521E0892B09F420E08F
:100DE000822F089510927B0110927A0188EE93E091
:100DF000A0E0B0E080937C0190937D01A0937E0100
:100E0000B0937F0184E591E090937901809378011C
:100E100085EC90E0909385018093840184EC90E0D0
:100E2000909387018093860180EC90E090938901F4
:100E30008093880181EC90E090938B0180938A01EC
:100E400082EC90E090938D0180938C0186EC90E091
:100E500090938F0180938E011092910110929201D4
:100E600010929301109294010895CF92DF92EF9225
:100E7000FF920F931F93CF93DF937C016A01EB01E5
:100E800000E010E00C151D0571F06991D701ED919E
:100E9000FC910190F081E02DC7010995892B19F093
:100EA0000F5F1F4FEFCFC801DF91CF911F910F91BF
:100EB000FF90EF90DF90CF9008953F924F925F9216
:100EC0006F927F928F929F92AF92BF92CF92DF925A
:100ED000EF92FF920F931F93CF93DF9300D000D038
:100EE000CDB7DEB78B0129013A0190914F019817D8
:100EF00021F09F3F09F0DAC104C0E2ECF0E0349049
:100F000081C080934F01E2ECF0E0E491EF3F09F4FF
:100F1000CDC1E13031F1E23009F44BC0E11171C0D3
:100F200014BC15BC94B5926094BD95B5916095BD07
:100F3000282F30E0F901E057FF4FE491F0E0EE0F89
:100F4000FF1FE255FF4F4591549150932502409366
:100F50002402F901E458FF4F249120932302312CFD
:100F600053C010928000109281009091810098608F
:100F70009093810090918100916090938100282F3F
:100F800030E0F901E057FF4FE491F0E0EE0FFF1F72
:100F9000E255FF4F4591549150931E0240931D021C
:100FA000F901E458FF4F249120931C023324339419
:100FB0002BC01092B0001092B1009091B0009260DE
:100FC0009093B0009091B10091609093B100282F60
:100FD00030E0F901E057FF4FE491F0E0EE0FFF1F22
:100FE000E255FF4F459154915093170240931602DA
:100FF000F901E458FF4F24912093150252E0352E59
:1010000003C03E2E37FC52C161E00E94B304480188
:10101000A12CB12C832D8D7F09F0C7C060E072E157
:101020008AE790E0A50194010E942F0A29833A8360
:101030004B835C8369017A0181E0C81AD108E10819
:10104000F1089FEFC916D104E104F10409F008F496
:101050009AC060E472E48FE090E0A50194010E94E0
:101060002F0A69017A01E1E0CE1AD108E108F108FE
:10107000F2E03F1219C08FEFC816D104E104F10469
:1010800009F008F48AC060E970ED83E090E0A50102
:1010900094010E942F0A69017A0191E0C91AD108CE
:1010A000E108F10883E001C082E0EFEFCE16D10441
:1010B000E104F10409F008F467C068E478EE81E027
:1010C00090E0A50194010E942F0A69017A01F1E0E4
:1010D000CF1AD108E108F1083320E1F082E038129C
:1010E0001BC09FEFC916D104E104F10409F008F414
:1010F000DBC064E274EF80E090E0A50194010E94FF
:101100002F0A69017A01E1E0CE1AD108E108F1085D
:1011100085E003C083E001C084E0FFEFCF16D10477
:10112000E104F10489F180F162E17AE780E090E086
:10113000A50194010E942F0A69017A0181E0C81A71
:10114000D108E108F108311002C084E001C086E056
:101150009FEFC916D104E104F104B1F0A8F0C980F1
:10116000DA80EB80FC809AE0F594E794D794C794FA
:101170009A95D1F7E1E0CE1AD108E108F1083320C1
:1011800031F087E00BC081E0332011F007C085E02B
:1011900095B5987F982B95BD38C082E09091B100AD
:1011A000987F982B9093B10030C060E072E18AE79D
:1011B00090E0A50194010E942F0A69017A01F1E0F3
:1011C000CF1AD108E108F108C114D10481E0E80682
:1011D000F10488F068E478EE81E090E0A5019401E4
:1011E0000E942F0A69017A0191E0C91AD108E10829
:1011F000F10893E001C091E0E1E03E1206C0809169
:101200008100887F892B80938100411451046104FF
:10121000710471F0D801AA0FBB1FA30192010E94B3
:101220004E0A28EE33E040E050E00E940D0A03C071
:101230002FEF3FEFA901F1E03F16A1F082E0381651
:1012400019F1311033C0C7BC209326023093270216
:10125000409328025093290280916E00826080930F
:101260006E0024C0D0928900C092880020931F0293
:1012700030932002409321025093220280916F000C
:10128000826080936F0012C0C092B3002093180256
:101290003093190240931A0250931B028091700000
:1012A00082608093700002C084E078CF0F900F902E
:1012B0000F900F90DF91CF911F910F91FF90EF90C2
:1012C000DF90CF90BF90AF909F908F907F906F9066
:1012D0005F904F903F900895813039F018F0823040
:1012E00051F0089510926E00089580916F008D7FE7
:1012F00080936F000895809170008D7F80937000BF
:1013000081E08093B0008091B100887F84608093F9
:10131000B1001092B3000895CF93C82F80914F0170
:101320008C1307C0E2ECF0E084919FEF90934F01A3
:1013300001C08FEF0E946C0960E08C2FCF910C945C
:10134000EC041F920F920FB60F9211242F933F932C
:101350004F935F936F937F938F939F93AF93BF93BD
:10136000EF93FF938091180290911902A0911A02B5
:10137000B0911B02892B8A2B8B2B51F19091150276
:10138000E0911602F0911702808189278083809175
:10139000180290911902A0911A02B0911B0218161E
:1013A00019061A061B06C4F48091180290911902BE
:1013B000A0911A02B0911B020197A109B109809373
:1013C000180290931902A0931A02B0931B0204C052
:1013D00080914F010E948C09FF91EF91BF91AF91D5
:1013E0009F918F917F916F915F914F913F912F913D
:1013F0000F900FBE0F901F90189508950E94D30371
:101400000E94FD090E94F201C8E7D5E00E9409028E
:101410002097E1F30E947805F9CFA1E21A2EAA1BCA
:10142000BB1BFD010DC0AA1FBB1FEE1FFF1FA21794
:10143000B307E407F50720F0A21BB30BE40BF50B91
:10144000661F771F881F991F1A9469F7609570951A
:10145000809590959B01AC01BD01CF010895052EAB
:1014600097FB1EF400940E94460A57FD07D00E9485
:101470000D0A07FC03D04EF40C94460A5095409593
:10148000309521953F4F4F4F5F4F08959095809530
:10149000709561957F4F8F4F9F4F08950E94670A07
:1014A000A59F900DB49F900DA49F800D911D1124B8
:1014B0000895B7FF0C944E0A0E944E0A821B930BAC
:1014C0000895EE0FFF1F0590F491E02D0994A29F5F
:1014D000B001B39FC001A39F700D811D1124911D08
:1014E000B29F700D811D1124911D0895F894FFCFB6
:1014F00083008B0093009C00A500AF00B900C400DE
:10150000D000DC00E900F7000601150126013701D3
:101510004A015D01720188019F01B801D201EE010B
:101520000B022A024B026E029302BA02E40210037B
:101530003F037003A403DC031704E803090001FF61
:1015400000000000C90535074B0564055605A705D1
:00000001FF
