:100000000C9463000C948B000C948B000C943A04B9
:100010000C943A040C943A040C948B000C948B00CE
:100020000C948B000C948B000C948B000C948B0024
:100030000C948B000C948B000C948B000C948B0014
:100040000C94F0030C948B000C948B000C948B009C
:100050000C948B000C948B000C948B000C948B00F4
:100060000C948B000C948B000000000024002700EF
:100070002A0000000000250028002B0000000000DE
:1000800023002600290004040404040404040202DA
:100090000202020203030303030301020408102007
:1000A0004080010204081020010204081020000012
:1000B0000008000201000003040700000000000027
:1000C00000000408840811241FBECFEFD8E0DEBF73
:1000D000CDBF11E0A0E0B1E0E2E6F2E102C00590A0
:1000E0000D92A234B107D9F721E0A2E4B1E001C03A
:1000F0001D92AD3FB207E1F710E0C2E6D0E004C0C8
:100100002197FE010E94FF08C136D107C9F70E945E
:10011000B4040C9424090C940000CF92DF92EF9267
:10012000FF920F931F93CF93DF936C017A018B01A2
:10013000C0E0D0E0CE15DF0589F0D8016D918D01CA
:10014000D601ED91FC910190F081E02DC601099559
:10015000892B11F47E0102C02196ECCFC701DF91FB
:10016000CF911F910F91FF90EF90DF90CF90089566
:10017000833081F028F4813099F08230A1F0089525
:100180008730A9F08830B9F08430D1F480918000B4
:100190008F7D03C0809180008F77809380000895C9
:1001A00084B58F7702C084B58F7D84BD089580911A
:1001B000B0008F7703C08091B0008F7D8093B00036
:1001C00008951F93CF93DF93282F30E0F901E25574
:1001D000FF4F8491F901E656FF4FD491F901EA5798
:1001E000FF4FC491CC23C9F0162F81110E94B80093
:1001F000EC2FF0E0EE0FFF1FEE58FF4FA591B491EA
:100200008FB7F894111105C09C91ED2FE095E9236B
:1002100002C0EC91ED2BEC938FBFDF91CF911F913A
:100220000895CF93DF9390E0FC01E656FF4F2491B1
:10023000FC01EA57FF4F8491882361F190E0880F19
:10024000991FFC01E859FF4FC591D491FC01EE586C
:10025000FF4FA591B491611109C09FB7F8948881AF
:10026000209582238883EC912E230BC0623061F4A9
:100270009FB7F8943881822F809583238883EC91EF
:100280002E2B2C939FBF06C08FB7F894E8812E2B9E
:1002900028838FBFDF91CF9108951F93CF93DF9372
:1002A000182FEB0161E00E941101209711F460E02A
:1002B00004C0CF3FD10539F461E0812FDF91CF91A8
:1002C0001F910C94E100E12FF0E0E255FF4FE49123
:1002D000E330F9F048F4E130B9F0E230A1F584B54B
:1002E000806284BDC8BD34C0E730E9F0E83019F160
:1002F000E43049F580918000806280938000D09343
:100300008B00C0938A0024C084B5806884BDC7BDBB
:100310001FC080918000806880938000D093890006
:10032000C093880015C08091B00080688093B000B1
:10033000C093B3000DC08091B00080628093B00084
:10034000C093B40005C0C038D1050CF0B5CFAFCF15
:10035000DF91CF911F9108958E3008F08E508770F5
:10036000806480937C0080917A00806480937A001E
:1003700080917A0086FDFCCF8091780020917900F1
:1003800090E0922B08952091DC013091DD01281737
:10039000390771F49091DA018091DB01981741F0EF
:1003A000E091DA01F0E0E459FE4F808190E0089599
:1003B0008FEF9FEF089508951F93CF93DF93DC0194
:1003C0005C962D913C915D972115310539F481E0C2
:1003D00090E013969C938E9312973DC05196ED91A9
:1003E000FC91529750969C915097892F80951FB7FA
:1003F0005E964C915E9741FB772770F941FD6095C1
:10040000F8944081772311F0492B01C048234083A1
:10041000E9012197F1F748E0508160FF02C0592BB4
:1004200001C058235083E9012197F1F766954150A7
:1004300099F7772321F090818923808303C08081FD
:10044000982B90831FBF5C968D919C915D9701972F
:10045000F1F721E030E0C901DF91CF911F910895BC
:100460002091DC013091DD012817390771F480916A
:10047000DB012091DA0190E0805C9F4F821B9109A3
:1004800060E470E00E948E08089580E090E0089596
:100490002091DC013091DD0128173907B9F49091E2
:1004A000DA018091DB01981789F0E091DA01F0E040
:1004B000E459FE4F80812091DA0130E02F5F3F4FF9
:1004C0002F7333272093DA0190E008958FEF9FEF89
:1004D0000895E091DC01F091DD01E817F90769F476
:1004E000A389B4899C918589809589238C931092E6
:1004F000DD011092DC0181E0089580E008959B0108
:10050000AC011092F9011092F8011092F7011092CB
:10051000F6011092F5011092F40160E079E08DE3AC
:1005200090E00E94A208F9012430310518F0C901B9
:10053000039702C081E090E09093FB018093FA0161
:100540009091EA01963108F075C0B90176956795EA
:100550006431710518F06351710902C061E070E007
:100560007093F5016093F401369720F0B90165505E
:10057000710902C061E070E07093F7016093F601C9
:10058000B901660F771F260F371F369527953695C9
:1005900027952D30310518F02C50310902C021E08B
:1005A00030E03093F9012093F801209168009830F1
:1005B00050F031E09E3008F430E081E001C0880F57
:1005C0003A95EAF701C084E0822B80936800983066
:1005D00038F09E3040F0963148F020E030E008C01E
:1005E0002DE630E005C02BE630E002C02CE630E01E
:1005F0003093F2012093F101983030F481E001C092
:10060000880F9A95EAF70EC0292F30E09E3018F433
:100610002850310902C02E50310981E001C0880FF5
:100620002A95EAF78093F3018091FA019091FB01FA
:100630000197F1F78091F8019091F901892B21F14F
:100640008091DC019091DD0121E08E3D9207E1F087
:10065000009711F00E9469028091FC018E7F8093C7
:10066000FC011092DB011092DA018EED91E0909383
:10067000DD018093DC01E091F101F091F2019081C4
:100680008091F301892B808308958830910524F0AF
:1006900024B130E0089702C02AB130E0A90102C0BD
:1006A000559547958A95E2F7CA0181700895CF93D1
:1006B000C82F0E944503811105C061E08C2FCF91A6
:1006C0000C941101CF910895CF93C82F0E94450338
:1006D000882329F060E08C2FCF910C941101CF91E9
:1006E000089520E030E02817390749F00F920F9065
:1006F0000F920F900F920F902F5F3F4FF4CF0895FE
:10070000CF93C82F0E94AC0184E690E00E94710351
:100710008C2FCF910C94AC010F931F93CF93DF9349
:100720000091B1011091B201C0916A01D0916B01A9
:100730008EE090E00115110549F40E948003CC0F72
:10074000DD1FCE5BDE4F998388830AC00E94800341
:10075000CC0FDD1FCE5BDE4F081B190B19830883FE
:1007600080916A0190916B010196843191052CF47E
:1007700090936B0180936A0104C010926B011092F8
:100780006A01E2E4F1E080E090E02191319137FFED
:1007900003C0319521953109820F931F21E0EA367C
:1007A000F20799F764E170E00E948E08CB01DF91B7
:1007B000CF911F910F910895009769F0FC0101906E
:1007C0000020E9F73197AF01481B590BBC018EEDB2
:1007D00091E00C948D0080E090E008950E941F0944
:1007E0001F920F920FB60F9211242F933F938F9366
:1007F0009F93AF93BF938091CE019091CF01A09131
:10080000D001B091D1013091B00123E0230F2D37F9
:1008100020F40196A11DB11D05C026E8230F029604
:10082000A11DB11D2093B0018093CE019093CF0103
:10083000A093D001B093D1018091AC019091AD0112
:10084000A091AE01B091AF010196A11DB11D8093A1
:10085000AC019093AD01A093AE01B093AF01BF91F5
:10086000AF919F918F913F912F910F900FBE0F905D
:100870001F9018951F920F920FB60F9211242F936D
:100880003F934F935F936F937F938F939F93AF9318
:10089000BF93EF93FF93E091DC01F091DD0130977E
:1008A00009F451C0968DA685B785858591FF04C052
:1008B0009C91892329F447C09C91892309F043C066
:1008C000A389B4899C918589809589238C93868995
:1008D00097890197F1F7608D718DA685B78555854C
:1008E00038E020E0CB010197F1F7822F90E0959559
:1008F0008795282F4C91452309F02068315091F7B6
:10090000868D81FD20958091DB0190E001968F73AB
:1009100099273091DA01381749F0A091DB01B0E056
:10092000A459BE4F2C938093DB0103C0868D816058
:10093000868F828D938D0197F1F7A389B4899C915D
:100940008589892B8C93FF91EF91BF91AF919F91F6
:100950008F917F916F915F914F913F912F910F9068
:100960000FBE0F901F901895CF93DF9300D000D04B
:100970001F92CDB7DEB7789484B5826084BD84B50C
:10098000816084BD85B5826085BD85B5816085BD8A
:1009900080916E00816080936E0010928100809142
:1009A00081008260809381008091810081608093CA
:1009B0008100809180008160809380008091B100EF
:1009C00084608093B1008091B00081608093B0001A
:1009D00080917A00846080937A0080917A008260AE
:1009E00080937A0080917A00816080937A00809170
:1009F0007A00806880937A001092C10012E061E072
:100A0000812F0E94110160E0812F0E94E1001F5F91
:100A10001C30A9F760E088E00E94110160E08CE0E2
:100A20000E94110161E08DE00E9411010EE110E0D1
:100A30000E948C0301501109D9F70E948C039093F6
:100A4000B2018093B1018FE090E00E948003909307
:100A5000C1018093C00182E190E00E9480039093E5
:100A6000BF018093BE0186E08093B3018FEF809336
:100A7000B4011092B6011092B5018091D20190910B
:100A8000D3019093BA018093B90183EB91E09093E5
:100A9000D3018093D20160E086E00E94E10061E032
:100AA0008091B3010E94110160E875E280E090E05E
:100AB0000E947F0280E593EC0E94710382E191E045
:100AC0000E94DC0380E593EC0E94710387E191E0D2
:100AD0000E94DC0380E593EC0E9471038CE291E0BC
:100AE0000E94DC0380E593EC0E94710387E391E0B0
:100AF0000E94DC0380E593EC0E94710360E071EEDC
:100B000080E090E00E947F0280E593EC0E947103F8
:100B10001092C3011092C2011092C5011092C4013B
:100B20001092C7011092C6011092C9011092C8011B
:100B30001092CB011092CA011092CD011092CC01FB
:100B400024EB422E512C612C712C30E4832E912CFD
:100B5000A12CB12C8EED91E00E943002892B09F47A
:100B6000CCC08EED91E00E944802082F082E000CA8
:100B7000110B17FF58C086FF40C085FF3BC015957D
:100B800007950F70112780FF0AC00730110579F40F
:100B900021E030E03093BD012093BC0108C0073054
:100BA000110539F41092BD011092BC0102C061E040
:100BB00001C060E0C8010297069720F406301105D5
:100BC000A9F4C8CFC8010997039720F68091BC010A
:100BD0009091BD01019729F4C8016D830E945703CC
:100BE00004C0C8016D830E9464036D81802F0E9440
:100BF000E100B0CF8093BB01ADCF8091BC0190915B
:100C0000BD01892B09F0A6CF15950795C8018F70F6
:100C100099279C01295031092330310508F09ACFDA
:100C20000E94640397CFE090BB01EE2009F492CFBD
:100C30000E2C000CFF088701159507950F701127E2
:100C4000F694FE2CEE24F794E794FF248F77E80EB9
:100C5000F11C0630110599F5D701A53BB10514F03B
:100C6000A4EBB0E0A093B401C090B7012091B8010B
:100C700030E02C193109D12CE12CF12CFE2CED2C7B
:100C8000DC2CCC24A901330F660B770B2227342FE1
:100C9000452F562F0E94C108A30192010E94A2086D
:100CA000C701B601620F731F841F951FA501940130
:100CB0000E94A2083093B6012093B5011BC00330F7
:100CC000110521F0C80109970397A0F48091BC0198
:100CD0009091BD01019771F4C8010E94570337E953
:100CE000E316F1041CF066E970E001C0B701802F43
:100CF0000E944D011092BB012DCFE090D801F090E1
:100D0000D901C70164E170E00E948E088B01892B34
:100D100071F56115710519F40E948C0321C06130D1
:100D2000710559F481E090E00E9480038C599F4F37
:100D30002091C0013091C1010DC06430710569F48A
:100D400084E090E00E9480038C599F4F2091BE0167
:100D50003091BF01821B930B03C0CB010E94800323
:100D6000000F111FF801EE53FE4F918380838FEF28
:100D7000E81AF80A98E7E916F1042CF4F092D90180
:100D8000E092D80104C01092D9011092D80180914C
:100D9000000190910101893E93400CF421C1109211
:100DA00001011092000142ECC42E41E0D42E00E07B
:100DB00010E0F601E190F1906F01B80123E0660FB9
:100DC000771F2A95E1F7606CC701880F892F881F6C
:100DD000990B8770682B8EED91E00E94DC016E2DDF
:100DE0006F778EED91E00E94DC010F5F1F4F0630A0
:100DF0001105F9F608E010E0C8010E9445038111D1
:100E000028C0F801E255FF4F8491F801E656FF4FE4
:100E1000D490F801EA57FF4FC4907801EE0CFF1C04
:100E2000EE0CFF1CCC2079F081110E94B800EC2D53
:100E3000F0E0EE0FFF1FE458FF4FA591B491EC9145
:100E4000DE2209F0DEC06E2D60688EED91E00E941A
:100E5000DC010F5F1F4F0C30110509F0CDCFCDB66F
:100E6000DEB68FB7F8944091CE015091CF016091DA
:100E7000D0017091D1018FBF8091D4019091D501A3
:100E8000A091D601B091D701481759076A077B078F
:100E900048F04496A11DB11D481759076A077B0702
:100EA00008F499C04093D4015093D5016093D601C2
:100EB0007093D701E091D201F091D301DF0110E0EE
:100EC000109761F012968D919C911397892B09F0E0
:100ED0001F5F16960D90BC91A02DF2CF112309F43F
:100EE0007AC02DB73EB782E0189F2019310911242E
:100EF0000FB6F8943EBF0FBE2DBF8DB79EB70196BB
:100F000040E0309781F022813381232B41F0DC01D6
:100F1000A40FB11DA40FB11DED93FC934F5F06808C
:100F2000F781E02DEECF9A838983FC01F12C01E05B
:100F30000117D9F06281738121903190DB01129603
:100F40004D915C911397D10112962D913C9113977D
:100F50004217530740F431822082DF0112976D93CC
:100F60007C93FF24F3940F5FE3CFF110DCCF7C017F
:100F700000E0D701ED91FD917D0161E080810E944B
:100F8000E1000F5F0113F5CF06B5E12CF12C312CF8
:100F9000202F30E03C832B83A981BA81ED91FD9114
:100FA000BA83A983828193812B813C81820F931F15
:100FB000402F06B5041708F4F394402F9701200F33
:100FC000311D82179307A8F760E080810E94E1003D
:100FD00033943112E1CF0FB6F894DEBE0FBECDBE12
:100FE00080910001909101010196909301018093FD
:100FF000000180E090E0892B09F4ACCD0E94000054
:10100000A9CD6E2D616821CF1092B3018FEF80932F
:10101000B4011092B6011092B50182E28093B7013B
:1010200086E98093B8011092BA011092B90110922A
:10103000E1011092E00188EE93E0A0E0B0E080933F
:10104000E2019093E301A093E401B093E50186E00F
:1010500091E09093DF018093DE011092F5011092F0
:10106000F4011092F7011092F6011092F90110921A
:10107000F8011092FB011092FA016091FC016E7F61
:101080006D7F6093FC016695617081E068278DE05B
:101090000E94E10061E08DE00E941101E7EAF0E0CA
:1010A000E491E093EE01E3E9F0E0E491F0E0EE0F8B
:1010B000FF1FEE58FF4F859194919093F00180931C
:1010C000EF0160E08CE00E9411018091FC0181FD44
:1010D00004C061E08CE00E94E1008CE08093EA01B2
:1010E000E6EAF0E0E491E093EB01E2E9F0E0E4917C
:1010F000F0E0EE0FFF1FE458FF4F8591949190931D
:10110000ED018093EC01089586E091E09093DF017A
:101110008093DE018EED91E00C94690297FB072E1F
:1011200016F4009407D077FD09D00E94C90807FC87
:1011300005D03EF4909581959F4F089570956195E7
:101140007F4F0895052E97FB1EF400940E94B90866
:1011500057FD07D00E94DD0807FC03D04EF40C9425
:10116000B90850954095309521953F4F4F4F5F4FAF
:10117000089590958095709561957F4F8F4F9F4F03
:101180000895B7FF0C9405090E940509821B930B73
:101190000895AA1BBB1B51E107C0AA1FBB1FA617BE
:1011A000B70710F0A61BB70B881F991F5A95A9F710
:1011B00080959095BC01CD010895A1E21A2EAA1B3D
:1011C000BB1BFD010DC0AA1FBB1FEE1FFF1FA217F7
:1011D000B307E407F50720F0A21BB30BE40BF50BF4
:1011E000661F771F881F991F1A9469F7609570957D
:1011F000809590959B01AC01BD01CF010895EE0F44
:10120000FF1F0590F491E02D09940E941009A59FFD
:10121000900DB49F900DA49F800D911D11240895F1
:10122000A29FB001B39FC001A39F700D811D112427
:10123000911DB29F700D811D1124911D089581E0B3
:1012400090E0F8940C94240910E0C2E6D0E004C0C9
:10125000FE010E94FF082196C336D107C9F7F89412
:02126000FFCFBE
:10126200E80300000000DC018D0030024802C301E7
:10127200DB0141540D0A0041542B4E414D4553654B
:101282006E736F72526F626F740D0A0041542B526B
:10129200455345540D0A0041542B42415544370DE4
:0212A2000A0040
:00000001FF
