:100000000C9462000C948A000C948A000C948A0070
:100010000C948A000C948A000C948A000C948A0038
:100020000C948A000C948A000C948A000C948A0028
:100030000C948A000C948A000C948A000C948A0018
:100040000C9421040C948A000C94EF030C94C903C3
:100050000C948A000C948A000C948A000C948A00F8
:100060000C948A000C948A000000000024002700F1
:100070002A0000000000250028002B0000000000DE
:1000800023002600290004040404040404040202DA
:100090000202020203030303030301020408102007
:1000A0004080010204081020010204081020000012
:1000B0000008000201000003040700000000000027
:1000C00000006B0411241FBECFEFD8E0DEBFCDBF10
:1000D00011E0A0E0B1E0E4E9F1E102C005900D9289
:1000E000A231B107D9F721E0A2E1B1E001C01D9230
:1000F000AA3FB207E1F710E0C2E6D0E004C02197C2
:10010000FE010E94A308C136D107C9F70E94A504C9
:100110000C94C8080C940000CF92DF92EF92FF92EB
:100120000F931F93CF93DF936C017A018B01C0E093
:10013000D0E0CE15DF0589F0D8016D918D01D60193
:10014000ED91FC910190F081E02DC6010995892B7C
:1001500011F47E0102C02196ECCFC701DF91CF914F
:100160001F910F91FF90EF90DF90CF900895FC01C9
:10017000918D828D981761F0828DDF01A80FB11DDE
:100180005D968C91928D9F5F9F73928F90E0089502
:100190008FEF9FEF0895FC01918D828D981731F0BC
:1001A000828DE80FF11D858D90E008958FEF9FEF10
:1001B0000895FC01918D228D892F90E0805C9F4FE6
:1001C000821B91098F739927089585E591E00E941C
:1001D000D90021E0892B09F420E0822F0895FC0149
:1001E000848DDF01A80FB11DA35ABF4F2C91848DC0
:1001F00090E001968F739927848FA689B7892C93F5
:10020000A089B1898C9180648C93938D848D98138F
:1002100006C00288F389E02D80818F7D8083089558
:10022000EF92FF920F931F93CF93DF93EC0181E046
:10023000888F9B8D8C8D981305C0E889F989808102
:1002400085FD24C0F62E0B8D10E00F5F1F4F0F733E
:100250001127E02E8C8DE8120CC00FB607FCFACFE8
:10026000E889F989808185FFF5CFCE010E94EF00F2
:10027000F1CF8B8DFE01E80FF11DE35AFF4FF082A5
:100280000B8FEA89FB898081806207C0EE89FF8934
:100290006083E889F98980818064808381E090E0CF
:1002A000DF91CF911F910F91FF90EF900895682FEC
:1002B00085E591E00C941001CF93DF93EC01888DDC
:1002C0008823C9F0EA89FB89808185FD05C0A8895A
:1002D000B9898C9186FD0FC00FB607FCF5CF8081E0
:1002E00085FFF2CFA889B9898C9185FFEDCFCE012A
:1002F0000E94EF00E7CFDF91CF91089580E090E07A
:10030000892B29F00E94E50081110C9400000895CA
:10031000833081F028F4813099F08230A1F0089583
:100320008730A9F08830B9F08430D1F48091800012
:100330008F7D03C0809180008F7780938000089527
:1003400084B58F7702C084B58F7D84BD0895809178
:10035000B0008F7703C08091B0008F7D8093B00094
:100360000895CF93DF93282F30E0F901E255FF4F36
:100370008491F901E656FF4FD491F901EA57FF4FF6
:10038000C491CC2391F081110E948801EC2FF0E000
:10039000EE0FFF1FE458FF4FA591B491EC91ED23B0
:1003A00081E090E021F480E002C080E090E0DF9105
:1003B000CF9108951F93CF93DF93282F30E0F90159
:1003C000E255FF4F8491F901E656FF4FD491F901B0
:1003D000EA57FF4FC491CC23C9F0162F81110E9418
:1003E0008801EC2FF0E0EE0FFF1FEE58FF4FA591B4
:1003F000B4918FB7F894111105C09C91ED2FE09541
:10040000E92302C0EC91ED2BEC938FBFDF91CF91EC
:100410001F910895CF93DF9390E0FC01E656FF4FC4
:100420002491FC01EA57FF4F8491882361F190E009
:10043000880F991FFC01E859FF4FC591D491FC0129
:10044000EE58FF4FA591B491611109C09FB7F89480
:100450008881209582238883EC912E230BC0623003
:1004600061F49FB7F8943881822F80958323888325
:10047000EC912E2B2C939FBF06C08FB7F894E88188
:100480002E2B28838FBFDF91CF9108951F93CF9399
:10049000DF93182FEB0161E00E940A02209711F40C
:1004A00060E004C0CF3FD10539F461E0812FDF91D6
:1004B000CF911F910C94DA01E12FF0E0E255FF4F4C
:1004C000E491E330F9F048F4E130B9F0E230A1F51D
:1004D00084B5806284BDC8BD34C0E730E9F0E8303F
:1004E00019F1E43049F580918000806280938000AA
:1004F000D0938B00C0938A0024C084B5806884BDEB
:10050000C7BD1FC080918000806880938000D09319
:100510008900C093880015C08091B00080688093E6
:10052000B000C093B3000DC08091B0008062809392
:10053000B000C093B40005C0C038D1050CF0B5CFF1
:10054000AFCFDF91CF911F9108958E3008F08E507C
:100550008770806480937C0080917A0080648093AF
:100560007A0080917A0086FDFCCF809178002091FE
:10057000790090E0922B08953FB7F89480913D0167
:1005800090913E01A0913F01B091400126B5A89BFA
:1005900005C02F3F19F00196A11DB11D3FBFBA2F15
:1005A000A92F982F8827820F911DA11DB11DBC0175
:1005B000CD0142E0660F771F881F991F4A95D1F73A
:1005C00008958F929F92AF92BF92CF92DF92EF9257
:1005D000FF926B017C010E94BC024B015C01C114C3
:1005E000D104E104F104F1F00E94BC02DC01CB0172
:1005F00088199909AA09BB09883E9340A105B1054C
:1006000070F321E0C21AD108E108F10888EE880EE3
:1006100083E0981EA11CB11CC114D104E104F104B3
:1006200019F7DDCFFF90EF90DF90CF90BF90AF90A4
:100630009F908F9008958830910524F024B130E088
:10064000089702C02AB130E0A90102C0559547952C
:100650008A95E2F7CA0181700895CF93DF93EC0188
:100660008091440190914501892B39F4C330D10523
:10067000A9F0CE010897049788F0CE30D10574F424
:10068000C630D10559F0CE010E941B03811106C06E
:1006900061E08C2FDF91CF910C940A02DF91CF9112
:1006A0000895CF93C82F0E941B03811105C061E0FC
:1006B0008C2FCF910C940A02CF910895CF93DF93A2
:1006C000EC010E94B101CF70DD27019739F4CE0112
:1006D000880F991F880F991F816806C0CE01880F67
:1006E000991F880F991F8068DF91CF910C94570153
:1006F0000F931F93CF93DF9300914101109142011B
:10070000C0913A01D0913B018EE00115110549F4E9
:100710000E94A502CC0FDD1FCE5EDE4F9983888339
:100720000AC00E94A502CC0FDD1FCE5EDE4F081B63
:10073000190B1983088380913A0190913B0101962E
:10074000843191052CF490933B0180933A0104C0CD
:1007500010923B0110923A01E2E1F1E080E090E07A
:100760002191319137FF03C0319521953109820FD5
:10077000931F21E0EA33F20799F764E170E00E94E9
:100780003208CB01DF91CF911F910F9108950E9404
:10079000C3081F920F920FB60F9211242F933F930D
:1007A0004F935F936F937F938F939F93AF93BF9379
:1007B000EF93FF9385E591E00E94EF00FF91EF91A9
:1007C000BF91AF919F918F917F916F915F914F9169
:1007D0003F912F910F900FBE0F901F9018951F9271
:1007E0000F920FB60F9211242F938F939F93EF9335
:1007F000FF93E0916501F09166018081E0916B01CA
:10080000F0916C0182FD12C0908180916E018F5F2A
:100810008F7320916F01821751F0E0916E01F0E02B
:10082000EB5AFE4F958F80936E0101C08081FF913E
:10083000EF919F918F912F910F900FBE0F901F906E
:1008400018951F920F920FB60F9211242F933F937A
:100850008F939F93AF93BF9380914A0190914B01E7
:10086000A0914C01B0914D0130913C0123E0230F48
:100870002D3720F40196A11DB11D05C026E8230FD8
:100880000296A11DB11D20933C0180934A019093D3
:100890004B01A0934C01B0934D0180913D0190918B
:1008A0003E01A0913F01B09140010196A11DB11DF3
:1008B00080933D0190933E01A0933F01B09340018E
:1008C000BF91AF919F918F913F912F910F900FBE4C
:1008D0000F901F901895E5E5F1E01382128288EEE3
:1008E00093E0A0E0B0E084839583A683B78386E09D
:1008F00091E09183808385EC90E09587848784ECF8
:1009000090E09787868780EC90E0918B808B81ECDC
:1009100090E0938B828B82EC90E0958B848B86ECBD
:1009200090E0978B868B118E128E138E148EE2EFD1
:10093000F1E010828FEF81831382128282E284833E
:1009400086E98583178216820895CF93DF9300D0BE
:100950001F92CDB7DEB7789484B5826084BD84B52C
:10096000816084BD85B5826085BD85B5816085BDAA
:1009700080916E00816080936E0010928100809162
:1009800081008260809381008091810081608093EA
:100990008100809180008160809380008091B1000F
:1009A00084608093B1008091B00081608093B0003A
:1009B00080917A00846080937A0080917A008260CE
:1009C00080937A0080917A00816080937A00809190
:1009D0007A00806880937A001092C10062E088E01B
:1009E0000E940A0261E070E080E090E00E94E10273
:1009F00088E00E94B10110E0019779F461E0812F55
:100A00000E940A0260E0812F0E94DA011F5F1C3001
:100A1000A9F781E08093540151C061E0812F0E94C9
:100A20000A0260E0812F0E94DA011F5F1E30A9F7E1
:100A300061E080E00E94DA0161E081E00E94DA0179
:100A40000EE110E00E94780301501109D9F70E94CD
:100A5000780390934201809341018FE00E94A502A8
:100A6000909349018093480182E10E94A5029093EE
:100A700047018093460186E08093F2018FEF8093D7
:100A8000F3011092F5011092F40180914E019091C2
:100A90004F019093F9018093F80182EF91E09093D8
:100AA0004F0180934E0160E086E00E94DA0161E030
:100AB0008091F2010E940A0210925401E0916501B6
:100AC000F091660182E08083E0916501F09166011A
:100AD0001082E0916101F09162011082E091630166
:100AE000F091640180E1808310926D01E0916901D1
:100AF000F0916A0186E08083E0916701F0916801DE
:100B0000808180618083E0916701F091680180813C
:100B100088608083E0916701F0916801808180683E
:100B20008083E0916701F091680180818F7D8083EF
:100B300085E591E00E94B700892BD1F3F4EB8F2E6D
:100B4000912CA12CB12CA0E4CA2ED12CE12CF12C9B
:100B500080915401813009F0CFC085E591E00E9479
:100B6000D900892B71F085E591E00E94D900181613
:100B700019069CF785E591E00E94B700282F8F3F6A
:100B800049F46FE070E080E090E00E94E10200E054
:100B900010E04DC0082F082E000C110B17FF28C0C5
:100BA00086FF17C085FF12C0159507950F70112796
:100BB000C8012B830E9451032B8120FF02C061E0FA
:100BC00001C060E0802F0E94DA01C7CF809343010B
:100BD000C4CF159507950F701127C8010E941B03FC
:100BE000882309F4BACF60E0802F0E940A02B5CFB3
:100BF00000914301002E000C110B3801759467948D
:100C00008FE0682277241695102F002717950795F7
:100C10001127822F8F77080F111DC3010E945103E6
:100C2000B801862D0E9446021092430196CF802F74
:100C30000E94A5023C01980193E0220F331F9A9570
:100C4000E1F7206CC301880F892F881F990B8770EB
:100C50009927822B932B0E945701C3018F779927E5
:100C60000E94570184EF91E00F920F900F920F9026
:100C70000F920F900197C1F70F5F1F4F06301105BC
:100C8000B1F600E010E0C8010E941B03811103C00F
:100C9000C8010E945E030F5F1F4F0C30110599F7CA
:100CA0006AE070E080E090E00E94E102D8C185E552
:100CB00091E00E94B700582E082F082E000C110B4F
:100CC00017FF45C086FF2BC085FF26C015950795E9
:100CD0000F701127C8010E942D0350FE14C0073069
:100CE000110531F4A1E0B0E0B0934501A0934401B7
:100CF00061E0802F0E94DA0185E591E00E94D90031
:100D0000892BA9F685C00730110521F41092450101
:100D10001092440160E0EDCF80934301EDCF8091CC
:100D2000440190914501892B39F7159507950F706E
:100D30001127C80108970497F8F6C8010E941B0301
:100D40008823D1F260E0802F0E940A02D5CF609004
:100D50004301062C000C77088301159507950F7049
:100D600011277694762C66247794679477248F776E
:100D7000680E711CC8010E942D030630110599F5FB
:100D8000D301A53BB10514F0A4EBB0E0A093F301AF
:100D90004090F6012091F70130E024193109512CDF
:100DA000612C712C762C652C542C4424A901330F12
:100DB000660B770B2227342F452F562F0E9465088C
:100DC000A50194010E944608C301B201620F731F7E
:100DD000841F951FA70196010E9446083093F501D4
:100DE0002093F40112C00330110521F0C8010997C6
:100DF000039758F4B7E96B1671041CF066E970E0CC
:100E000001C0B301802F0E9446021092430174CFAB
:100E10008091000190910101893E93400CF416C12C
:100E2000109201011092000100E010E0011511057F
:100E300019F40E94780320C00130110551F481E0BB
:100E40000E94A5028C599F4F209148013091490181
:100E50000CC00430110569F484E00E94A5028C598D
:100E60009F4F20914601309147013C01621A730A5D
:100E700004C0802F0E94A5023C01980183E0220F4C
:100E8000331F8A95E1F7206CC301880F892F881FD3
:100E9000990B87709927822B932B0E945701C301CE
:100EA0008F7799270E9457010F5F1F4F063011055A
:100EB00009F0BCCF08E010E0C8010E941B038111BB
:100EC00003C0C8010E945E030F5F1F4F0C30110565
:100ED00099F74DB65EB68FB7F89440914A0150919C
:100EE0004B0160914C0170914D018FBF8091500179
:100EF00090915101A0915201B091530148175907A7
:100F00006A077B0748F04496A11DB11D4817590791
:100F10006A077B0708F495C0409350015093510134
:100F20006093520170935301E0914E01F0914F0193
:100F3000DF01712C109761F012968D919C9113979F
:100F4000892B09F0739416960D90BC91A02DF2CFC9
:100F5000772009F476C08DB79EB7A2E07A9E8019FB
:100F6000910911240FB6F8949EBF0FBE8DBF019654
:100F700040E0309781F022813381232B41F0DC0166
:100F8000A40FB11DA40FB11DED93FC934F5F06801C
:100F9000F781E02DEECF9A838983FC0100E011E018
:100FA0001715D1F06281738121903190DB01129687
:100FB0004D915C911397D10112962D913C9113970D
:100FC0004217530738F431822082DF0112976D9364
:100FD0007C9301E01F5FE4CF0111DDCF8C01612C18
:100FE000D801ED91FD918D0161E080810E94DA01CF
:100FF00063946710F5CF66B400E010E040E0262C63
:10100000312CA981BA81ED91FD91BA83A9838281A6
:1010100093819101280F391F562D66B4651608F487
:101020001395562DC801860D911D28173907A8F76D
:1010300060E080814B830E94DA014B814F5F471152
:10104000E0CF0FB6F8945EBE0FBE4DBE809100019A
:1010500090910101019690930101809300010E94FB
:101060007E0176CD97FB072E16F4009407D077FD0E
:1010700009D00E946D0807FC05D03EF4909581953B
:101080009F4F0895709561957F4F0895052E97FBAA
:101090001EF400940E945D0857FD07D00E9481084D
:1010A00007FC03D04EF40C945D08509540953095A4
:1010B00021953F4F4F4F5F4F0895909580957095C4
:1010C00061957F4F8F4F9F4F0895B7FF0C94A908EC
:1010D0000E94A908821B930B0895AA1BBB1B51E118
:1010E00007C0AA1FBB1FA617B70710F0A61BB70B98
:1010F000881F991F5A95A9F780959095BC01CD013D
:101100000895A1E21A2EAA1BBB1BFD010DC0AA1F48
:10111000BB1FEE1FFF1FA217B307E407F50720F060
:10112000A21BB30BE40BF50B661F771F881F991FDB
:101130001A9469F760957095809590959B01AC0124
:10114000BD01CF010895EE0FFF1F0590F491E02D32
:1011500009940E94B408A59F900DB49F900DA49F80
:10116000800D911D11240895A29FB001B39FC0016D
:10117000A39F700D811D1124911DB29F700D811DC3
:101180001124911D089581E090E0F8940C94C80812
:04119000F894FFCF01
:10119400E8030000000010018C00D900B700CB0068
:0211A4005C01EC
:00000001FF
