:100000000C9462000C948A000C948A000C948A0070
:100010000C948A000C948A000C948A000C948A0038
:100020000C948A000C948A000C948A000C948A0028
:100030000C948A000C948A000C948A000C948A0018
:100040000C94B0010C948A000C9414050C94460591
:100050000C948A000C948A000C948A000C948A00F8
:100060000C948A000C948A00000000080002010031
:100070000003040700000000000000000102040863
:100080001020408001020408102001020408102002
:10009000040404040404040402020202020203032E
:1000A00003030303000000002300260029000000D2
:1000B0000000250028002B0000000000240027007D
:1000C0002A00760511241FBECFEFD8E0DEBFCDBFDA
:1000D00011E0A0E0B1E0E8E3FCE002C005900D9281
:1000E000A231B107D9F721E0A2E1B1E001C01D9230
:1000F000A93BB207E1F710E0C4ECD0E004C02297BE
:10010000FE010E941606C23CD107C9F70E94E20513
:100110000C941A060C940000DC01ED91FC91019006
:10012000F081E02D0994CF93C0E061E08C2F0E9414
:10013000370360E08C2F0E947003CF5FCE30A9F7A9
:10014000CF9108950F931F93CF93DF93EC010E94FB
:1001500092028C01BE016770772783E0660F771FDC
:100160008A95E1F7606C9801220F232F221F330B31
:1001700027703327622B732B8CE191E00E948C0057
:10018000B8016F7777278CE191E0DF91CF911F91D4
:100190000F910C948C00CF93DF93EC010E94A60387
:1001A000CF70DD27BE01660F771F660F771F01979F
:1001B00011F4616801C060688CE191E0DF91CF913A
:1001C0000C948C00CF93DF93C0E0D0E0CE010E946E
:1001D000CB002196CE30D105C9F7C0E0D0E0CE01EA
:1001E0000E94A2002196C630D105C9F7DF91CF91B8
:1001F00008958830910524F024B130E0089702C0BA
:100200002AB130E002C0359527958A95E2F7822F12
:1002100081700895CF93C82F0E94F900882329F098
:1002200060E08C2FCF910C943703CF910895CF933A
:10023000C82F0E94F900811105C061E08C2FCF9179
:100240000C943703CF910895FF920F931F93CF9390
:10025000DF93F82EC82FDD27C7FDD095D7FF27C025
:1002600086FF19C085FF14C0D595C795CF70DD27CF
:10027000CE010E941701F0FE02C061E001C060E003
:100280008C2FDF91CF911F910F91FF900C947003F1
:100290008093120128C0CE01959587958F7099277C
:1002A000DF91CF911F910F91FF900C940A01C091A3
:1002B0001201DD27C7FDD0958E01159507950F70AA
:1002C0001127D695DC2FCC27D795C795DD278F77BB
:1002D000C80FD11DC8010E941701BE01802F0E94C6
:1002E000AF0210921201DF91CF911F910F91FF90F9
:1002F000089526E040E855E260E070E08CE191E08E
:100300000E94B2048CE191E00E942B040E949300B1
:1003100068EC70E080E090E00C941D028CE191E0CC
:100320000E94CF03892B71F08CE191E00E94CF03F2
:10033000181619069CF78CE191E00E94E8030E94D0
:100340002401ECCF6FE070E080E090E00E941D029D
:100350000E94E2006AE070E080E090E00C941D02F0
:100360001F920F920FB60F9211242F933F938F93EA
:100370009F93AF93BF938091140190911501A09129
:100380001601B09117013091130123E0230F2D378F
:1003900020F40196A11DB11D05C026E8230F029689
:1003A000A11DB11D20931301809314019093150199
:1003B000A0931601B0931701809118019091190133
:1003C000A0911A01B0911B010196A11DB11D80934E
:1003D000180190931901A0931A01B0931B01BF91CA
:1003E000AF919F918F913F912F910F900FBE0F90E2
:1003F0001F9018953FB7F8948091180190911901BA
:10040000A0911A01B0911B0126B5A89B05C02F3FF2
:1004100019F00196A11DB11D3FBF6627782F892FC6
:100420009A2F620F711D811D911D42E0660F771F8B
:10043000881F991F4A95D1F708958F929F92AF9286
:10044000BF92CF92DF92EF92FF926B017C010E94EC
:10045000FA014B015C01C114D104E104F104F1F093
:100460000E94F1050E94FA01681979098A099B091D
:10047000683E73408105910570F321E0C21AD108EE
:10048000E108F10888EE880E83E0981EA11CB11CDB
:10049000C114D104E104F10429F7DDCFFF90EF90FE
:1004A000DF90CF90BF90AF909F908F9008957894F9
:1004B00084B5826084BD84B5816084BD85B5826069
:1004C00085BD85B5816085BDEEE6F0E08081816007
:1004D0008083E1E8F0E01082808182608083808107
:1004E00081608083E0E8F0E0808181608083E1EBDF
:1004F000F0E0808184608083E0EBF0E080818160C7
:100500008083EAE7F0E0808184608083808182607C
:100510008083808181608083808180688083109265
:10052000C10008958E3008F08E5087702091000130
:1005300090E4299F90011124822B80937C0080916C
:100540007A00806480937A0080917A0086FDFCCFE7
:10055000809178002091790090E0922B08951F936C
:10056000CF93DF93182FEB0161E00E9437032097B0
:1005700011F460E004C0CF3FD10539F461E0812F70
:10058000DF91CF911F910C947003E12FF0E0E859B7
:10059000FF4FE491E330F9F048F4E130B9F0E23094
:1005A000A1F584B5806284BDC8BD34C0E730E9F0F0
:1005B000E83019F1E43049F5809180008062809341
:1005C0008000D0938B00C0938A0024C084B58068DB
:1005D00084BDC7BD1FC0809180008068809380006B
:1005E000D0938900C093880015C08091B0008068C6
:1005F0008093B000C093B3000DC08091B0008062C2
:100600008093B000C093B40005C0C038D1050CF091
:10061000B5CFAFCFDF91CF911F910895833081F097
:1006200028F4813099F08230A1F008958730A9F044
:100630008830B9F08430D1F4809180008F7D03C080
:10064000809180008F7780938000089584B58F77A4
:1006500002C084B58F7D84BD08958091B0008F77EE
:1006600003C08091B0008F7D8093B0000895CF9338
:10067000DF9390E0FC01E458FF4F2491FC01E05728
:10068000FF4F8491882349F190E0880F991FFC0166
:10069000E854FF4FA591B49182559F4FFC01C5913D
:1006A000D4919FB7611108C0F8948C912095822352
:1006B0008C93888182230AC0623051F4F8948C9123
:1006C000322F309583238C938881822B888304C0BA
:1006D000F8948C91822B8C939FBFDF91CF910895DA
:1006E0000F931F93CF93DF931F92CDB7DEB7282FC1
:1006F00030E0F901E859FF4F8491F901E458FF4FC8
:100700001491F901E057FF4F04910023C9F08823A9
:1007100021F069830E940E036981E02FF0E0EE0F63
:10072000FF1FE255FF4FA591B4919FB7F8948C91AC
:10073000611103C01095812301C0812B8C939FBF51
:100740000F90DF91CF911F910F910895CF93DF9379
:10075000282F30E0F901E859FF4F8491F901E4585E
:10076000FF4FD491F901E057FF4FC491CC2391F092
:1007700081110E940E03EC2FF0E0EE0FFF1FEC55ED
:10078000FF4FA591B4912C912D2381E090E021F4AD
:1007900080E002C080E090E0DF91CF910895FC01FD
:1007A000818D228D90E0805C9F4F821B91098F7319
:1007B00099270895FC01918D828D981731F0828DD3
:1007C000E80FF11D858D90E008958FEF9FEF08955C
:1007D000FC01918D828D981761F0828DDF01A80F49
:1007E000B11D5D968C91928D9F5F9F73928F90E06B
:1007F00008958FEF9FEF08958CE695E0892B49F0DF
:1008000080E090E0892B29F00E946C0581110C9406
:1008100000000895FC01848DDF01A80FB11DA35ACB
:10082000BF4F2C91848D90E001968F739927848F10
:10083000A689B7892C93A089B1898C9180648C9307
:10084000938D848D981306C00288F389E02D8081F2
:100850008F7D80830895CF93DF93EC01888D88236B
:10086000C9F0EA89FB89808185FD05C0A889B9891D
:100870008C9186FD0FC00FB607FCF5CF808185FFF8
:10088000F2CFA889B9898C9185FFEDCFCE010E9466
:100890000A04E7CFDF91CF910895CF92DF92FF92C4
:1008A0000F931F93CF93DF931F92CDB7DEB76C01E9
:1008B00081E0D60158968C9358975B969C915B97F4
:1008C0005C968C915C97981307C05096ED91FC91C3
:1008D0005197808185FD2EC0F601038D10E00F5FDA
:1008E0001F4F0F731127F02EF601848DF81211C0DF
:1008F0000FB607FCF9CFD6015096ED91FC915197B8
:10090000808185FFF1CFC60169830E940A04698155
:10091000EBCF838DE80FF11DE35AFF4F6083D601C3
:100920005B960C935B975296ED91FC915397808167
:1009300080620CC0D6015696ED91FC91579760836A
:100940005096ED91FC91519780818064808381E085
:1009500090E00F90DF91CF911F910F91FF90DF906A
:10096000CF900895BF92CF92DF92EF92FF92CF93F4
:10097000DF93EC016A017B01B22EE889F98982E0FC
:100980008083411581EE580761057105A1F060E093
:1009900079E08DE390E0A70196010E94F2052150D5
:1009A00031094109510956954795379527952115E4
:1009B00080E1380798F0E889F989108260E874E8E6
:1009C0008EE190E0A70196010E94F20521503109C5
:1009D000410951095695479537952795EC85FD8531
:1009E0003083EE85FF852083188EEC89FD89B082E7
:1009F000EA89FB89808180618083EA89FB89808123
:100A000088608083EA89FB89808180688083EA89A5
:100A1000FB8980818F7D8083DF91CF91FF90EF9064
:100A2000DF90CF90BF9008951F920F920FB60F9254
:100A300011242F938F939F93EF93FF93E0912C01B9
:100A4000F0912D018081E0913201F091330182FD1E
:100A500012C09081809135018F5F8F732091360194
:100A6000821751F0E0913501F0E0E45EFE4F958F82
:100A70008093350101C08081FF91EF919F918F910B
:100A80002F910F900FBE0F901F9018951F920F92ED
:100A90000FB60F9211242F933F934F935F936F9351
:100AA0007F938F939F93AF93BF93EF93FF938CE1CB
:100AB00091E00E940A04FF91EF91BF91AF919F9145
:100AC0008F917F916F915F914F913F912F910F90F7
:100AD0000FBE0F901F9018958CE191E00E94CF03FC
:100AE00021E0892B09F420E0822F089510921F0144
:100AF00010921E0188EE93E0A0E0B0E08093200108
:100B000090932101A0932201B093230185E091E00D
:100B100090931D0180931C0185EC90E09093290136
:100B20008093280184EC90E090932B0180932A011C
:100B300080EC90E090932D0180932C0181EC90E06B
:100B400090932F0180932E0182EC90E090933101DD
:100B50008093300186EC90E09093330180933201D2
:100B6000109235011092360110923701109238011F
:100B70000895CF92DF92EF92FF920F931F93CF933E
:100B8000DF937C016A01EB0100E010E00C151D050C
:100B900071F06991D701ED91FC910190F081E02D08
:100BA000C7010995892B19F00F5F1F4FEFCFC801BF
:100BB000DF91CF911F910F91FF90EF90DF90CF9039
:100BC000089508950E9457020E94E1050E9479014C
:100BD000CCEFD3E00E948E012097E1F30E94FC034A
:100BE000F9CF0895A1E21A2EAA1BBB1BFD010DC06F
:100BF000AA1FBB1FEE1FFF1FA217B307E407F507CD
:100C000020F0A21BB30BE40BF50B661F771F881FA8
:100C1000991F1A9469F760957095809590959B013E
:100C2000AC01BD01CF010895EE0FFF1F0590F491B7
:080C3000E02D0994F894FFCFB8
:100C380001000000004D04B905CF03E803DA032BD7
:020C48000400A6
:00000001FF
