:100000000C9462000C948A000C948A000C948A0070
:100010000C948A000C948A000C948A000C948A0038
:100020000C948A000C948A000C948A000C94460369
:100030000C948A000C948A000C948A000C948A0018
:100040000C94FC020C948A000C94CA020C94A40236
:100050000C948A000C948A000C948A000C948A00F8
:100060000C948A000C948A000000000024002700F1
:100070002A0000000000250028002B0000000000DE
:1000800023002600290004040404040404040202DA
:100090000202020203030303030301020408102007
:1000A0004080010204081020010204081020000012
:1000B0000008000201000003040700000000000027
:1000C0000000850411241FBECFEFD8E0DEBFCDBFF6
:1000D00022E0A4E2B1E001C01D92A832B207E1F72C
:1000E00011E0A0E0B1E0E6E8F1E102C005900D9278
:1000F000A432B107D9F710E0C2E6D0E004C02197DE
:10010000FE010E945308C136D107C9F70E94EB04D3
:100110000C94C1080C940000CF92DF92EF92FF92F2
:100120000F931F93CF93DF936C017A018B01C0E093
:10013000D0E0CE15DF0589F0D8016D918D01D60193
:10014000ED91FC910190F081E02DC6010995892B7C
:1001500011F47E0102C02196ECCFC701DF91CF914F
:100160001F910F91FF90EF90DF90CF900895FC01C9
:10017000918D828D981761F0828DDF01A80FB11DDE
:100180005D968C91928D9F5F9F73928F90E0089502
:100190008FEF9FEF0895FC01918D828D981731F0BC
:1001A000828DE80FF11D858D90E008958FEF9FEF10
:1001B0000895FC01918D228D892F90E0805C9F4FE6
:1001C000821B91098F739927089580E391E00E9423
:1001D000D90021E0892B09F420E0822F0895FC0149
:1001E000848DDF01A80FB11DA35ABF4F2C91848DC0
:1001F00090E001968F739927848FA689B7892C93F5
:10020000A089B1898C9180648C93938D848D98138F
:1002100006C00288F389E02D80818F7D8083089558
:10022000EF92FF920F931F93CF93DF93EC0181E046
:10023000888F9B8D8C8D981305C0E889F989808102
:1002400085FD24C0F62E0B8D10E00F5F1F4F0F733E
:100250001127E02E8C8DE8120CC00FB607FCFACFE8
:10026000E889F989808185FFF5CFCE010E94EF00F2
:10027000F1CF8B8DFE01E80FF11DE35AFF4FF082A5
:100280000B8FEA89FB898081806207C0EE89FF8934
:100290006083E889F98980818064808381E090E0CF
:1002A000DF91CF911F910F91FF90EF900895682FEC
:1002B00080E391E00C941001CF93DF93EC01888DE3
:1002C0008823C9F0EA89FB89808185FD05C0A8895A
:1002D000B9898C9186FD0FC00FB607FCF5CF8081E0
:1002E00085FFF2CFA889B9898C9185FFEDCFCE012A
:1002F0000E94EF00E7CFDF91CF91089580E090E07A
:10030000892B29F00E94E50081110C9400000895CA
:10031000833081F028F4813099F08230A1F0089583
:100320008730A9F08830B9F08430D1F48091800012
:100330008F7D03C0809180008F7780938000089527
:1003400084B58F7702C084B58F7D84BD0895809178
:10035000B0008F7703C08091B0008F7D8093B00094
:1003600008951F93CF93DF93282F30E0F901E255D2
:10037000FF4F8491F901E656FF4FD491F901EA57F6
:10038000FF4FC491CC23C9F0162F81110E94880120
:10039000EC2FF0E0EE0FFF1FEE58FF4FA591B49148
:1003A0008FB7F894111105C09C91ED2FE095E923CA
:1003B00002C0EC91ED2BEC938FBFDF91CF911F9199
:1003C0000895CF93DF9390E0FC01E656FF4F249110
:1003D000FC01EA57FF4F8491882361F190E0880F78
:1003E000991FFC01E859FF4FC591D491FC01EE58CB
:1003F000FF4FA591B491611109C09FB7F89488810E
:10040000209582238883EC912E230BC0623061F407
:100410009FB7F8943881822F809583238883EC914D
:100420002E2B2C939FBF06C08FB7F894E8812E2BFC
:1004300028838FBFDF91CF9108953FB7F8948091C3
:100440002A0190912B01A0912C01B0912D0126B58C
:10045000A89B05C02F3F19F00196A11DB11D3FBFFC
:10046000BA2FA92F982F8827820F911DA11DB11D8A
:10047000BC01CD0142E0660F771F881F991F4A9586
:10048000D1F708958F929F92AF92BF92CF92DF9251
:10049000EF92FF926B017C010E941D024B015C01F7
:1004A000C114D104E104F104F1F00E941D02DC0149
:1004B000CB0188199909AA09BB09883E9340A10577
:1004C000B10570F321E0C21AD108E108F10888EE05
:1004D000880E83E0981EA11CB11CC114D104E10454
:1004E000F10419F7DDCFFF90EF90DF90CF90BF9030
:1004F000AF909F908F9008958830910524F024B19B
:1005000030E0089702C02AB130E0A90102C0559539
:1005100047958A95E2F7CA0181700895CF93DF93DA
:10052000EC010C97049758F0CE010E947C028111D7
:1005300006C061E08C2FDF91CF910C94E101DF9137
:10054000CF9108950E9459081F920F920FB60F92F3
:1005500011242F933F934F935F936F937F938F93C8
:100560009F93AF93BF93EF93FF9380E391E00E943B
:10057000EF00FF91EF91BF91AF919F918F917F918C
:100580006F915F914F913F912F910F900FBE0F9000
:100590001F9018951F920F920FB60F9211242F9350
:1005A0008F939F93EF93FF93E0914001F09141016E
:1005B0008081E0914601F091470182FD12C0908157
:1005C000809149018F5F8F7320914A01821751F00A
:1005D000E0914901F0E0E05DFE4F958F8093490185
:1005E00001C08081FF91EF919F918F912F910F908A
:1005F0000FBE0F901F9018951F920F920FB60F927B
:1006000011242F933F938F939F93AF93BF93809128
:10061000260190912701A0912801B09129013091E4
:10062000250123E0230F2D3720F40196A11DB11DD4
:1006300005C026E8230F0296A11DB11D20932501B8
:100640008093260190932701A0932801B09329015C
:1006500080912A0190912B01A0912C01B0912D0144
:100660000196A11DB11D80932A0190932B01A093A7
:100670002C01B0932D01BF91AF919F918F913F912C
:100680002F910F900FBE0F901F9018951F920F92F1
:100690000FB60F9211242F933F934F935F936F9355
:1006A0007F938F939F93AF93BF93EF93FF9380912B
:1006B000240187FF05C0109285001092840016C0A7
:1006C00020912401022E000C330B8091150290E042
:1006D000281739075CF43091240126E03203F00139
:1006E0001124E353FE4F808186FD15C080912401C3
:1006F0008F5F8093240120912401022E000C330B84
:100700008091150290E02817390794F48091240114
:100710008C302CF10DC0309124013203F0011124F2
:10072000E353FE4F808160E08F730E94B101DECF02
:10073000809184009091850084349C4918F480E471
:100740009CE905C080918400909185000496909367
:100750008900809388008FEF80932401C5C0309179
:10076000240126E03203F0011124E353FE4F85817A
:10077000882309F48FC04091240130912401420361
:10078000D0011124A353BE4F3203F0011124E353CF
:10079000FE4F13964D915C9114978181928184173D
:1007A000950778F540912401309124013203F0013E
:1007B0001124E353FE4F4203D0011124A353BE4F33
:1007C00015963C9181819281830F911D9283818343
:1007D00040912401309124014203D0011124A353FC
:1007E000BE4F3203F0011124E353FE4F13964D9197
:1007F0005C911497818192818417950708F44AC00F
:100800002DC040912401309124013203F0011124C4
:10081000E353FE4F4203D0011124A353BE4F15965C
:100820003C9181819281831B9109928381834091C4
:100830002401309124014203D0011124A353BE4F5F
:100840003203F0011124E353FE4F13964D915C9156
:1008500014978181928148175907E0F03091240163
:10086000409124013203F0011124E353FE4F42036F
:10087000D0011124A353BE4F13968D919C911497D0
:1008800092838183309124013203F0011124E353D8
:10089000FE4F1582409184005091850030912401D3
:1008A00026E03203F0011124E353FE4F818192814F
:1008B000840F951F909389008093880030912401C4
:1008C0003203F0011124E353FE4F808186FF0CC0F8
:1008D000309124013203F0011124E353FE4F808153
:1008E00061E08F730E94B101FF91EF91BF91AF91D1
:1008F0009F918F917F916F915F914F913F912F9138
:100900000F900FBE0F901F90189510923301109208
:10091000320188EE93E0A0E0B0E080933401909340
:100920003501A0933601B093370188E191E09093AF
:1009300031018093300185EC90E090933D018093EC
:100940003C0184EC90E090933F0180933E0180EC69
:1009500090E0909341018093400181EC90E090936E
:1009600043018093420182EC90E090934501809393
:10097000440186EC90E090934701809346011092E9
:10098000490110924A0110924B0110924C01809142
:100990001502E6E1F2E09FEF26E048EB5BE06CE059
:1009A00071E08C3078F48083289FD0011124A35308
:1009B000BE4F12965C934E93119715827483638396
:1009C0008F5F01C09083369632E0E832F30749F733
:1009D000809315020895CF93DF9300D000D0CDB758
:1009E000DEB7789484B5826084BD84B5816084BDAF
:1009F00085B5826085BD85B5816085BD80916E00BD
:100A0000816080936E0010928100809181008260ED
:100A1000809381008091810081608093810080912A
:100A200080008160809380008091B1008460809319
:100A3000B1008091B00081608093B00080917A0015
:100A4000846080937A0080917A00826080937A003B
:100A500080917A00816080937A0080917A0080682A
:100A600080937A001092C100E0914001F091410121
:100A700082E08083E0913C01F0913D011082E091A1
:100A80003E01F0913F018FEC808310924801E0918C
:100A90004401F091450186E08083E0914201F091AC
:100AA0004301808180618083E0914201F0914301A4
:100AB000808188608083E0914201F09143018081D0
:100AC00080688083E0914201F091430180818F7DB5
:100AD000808380E391E00E945C0100EE11E0E6E19A
:100AE000CE2EE2E0DE2E812C912CF6E0AF2EACE093
:100AF000FA2EB2E0BB2EC4010997039748F061E0DB
:100B0000882D0E94E10160E0882D0E94B10150C053
:100B1000D8018C918C3008F04BC061E0882D0E9488
:100B2000E101F8018081A89EF0011124E353FE4FFA
:100B30009081907C282D2F73922B9083F601F5974E
:100B40001082319610826F2D0E944708FCE08F9F23
:100B5000A001112420E030E0B901640F751FA69EAA
:100B6000F001A79EF00D1124E353FE4F908196FDF6
:100B700015C02F5F3F4F2C30310571F781110EC02A
:100B800010928000B0928100109285001092840033
:100B9000B19A80916F00826080936F00D801EC91D0
:100BA000AE9EF0011124E353FE4F80818064808368
:100BB000BFEF8B1A9B0A0A5F1F4FE6E0CE0ED11CD7
:100BC000FDE08F16910409F096CF1CE062E0812FC2
:100BD0000E94E1011F5F1031C9F768EC70E080E00E
:100BE00090E00E94420276E0F72E80E391E00E94BE
:100BF000D900892B09F4D8C180E391E00E94D90083
:100C00001816190694F780E391E00E94B700182F98
:100C1000082E000C990B97FF34C016FF1DC015FF5E
:100C200016C0959587956C012FE0C222DD24C60180
:100C300009970397D0F2C6010E948E0210FF02C0EE
:100C400061E001C060E08C2D0E94B101CECF909395
:100C50002F0180932E01C9CF959587958C010F7038
:100C60001127C8010997039708F4BFCFC8010E9454
:100C70007C02882309F4B9CF60E0802F0E94E10153
:100C8000B4CF20912E0130912F016901D594C794E2
:100C90008FE0C822DD243695322F222737952795FD
:100CA00033271F775901A10EB11C86010950110984
:100CB0000330110508F45AC0C6010E948E0261E09B
:100CC0008C2D0E94E101A114B10409F44DC09FEFE5
:100CD000A916B10429F461E08C2D0E94B1015FC115
:100CE000F601E255FF4FE491E330F9F048F4E130CA
:100CF000B9F0E230A1F584B5806284BDA8BC4FC1D3
:100D0000E730E9F0E83019F1E43049F580918000EE
:100D1000806280938000B0928B00A0928A003FC1D5
:100D200084B5806884BDA7BC3AC18091800080688A
:100D300080938000B0928900A092880030C1809199
:100D4000B00080688093B000A092B30028C1809169
:100D5000B00080628093B000A092B40020C1A0E8EF
:100D6000AA16B1040CF0B7CF60E0B6CFBDEFAB165A
:100D7000B10449F4F801EE0FFF1FEA5FFE4F2FEFB9
:100D800030E031832083C5018A5B9109833491056A
:100D900060F4F801EE0FFF1FEA5FFE4F0696880F22
:100DA000991F880F991F91838083C5010197893B03
:100DB000910508F0F4C0C501BB0CAA0BBB0B9C014C
:100DC000AD012150310941095109ACE9B0E00E945F
:100DD0007D0823EB30E040E050E00E945E084901CE
:100DE0005A018CE0880E911CA11CB11CD801AA0FDD
:100DF000BB1FBA83A983FD01E050FF4F8081918121
:100E00008815990509F4CBC0FD01EA5FFE4F70809B
:100E1000F09EF001F19EF00D1124EA5EFD4F8281FB
:100E200058E5C52E52E0D52EC81AD10887FDD394B7
:100E3000CC0CDD1CCC0CDD1C8181772009F459C061
:100E4000E8E8F0E0E81BF10987FDF3959F01220F28
:100E5000331F220F331F3C832B831901330F4408A8
:100E60005508D401A53BB10514F0A4EBB0E0A601F0
:100E70000D2C000C660B770B9A01AB01221933097C
:100E8000440955090E94880824EB30E040E050E016
:100E90000E945E08BA01A901420D531D641D751D13
:100EA000F09EF001F19EF00D1124EA5EFD4FE0810D
:100EB000EC3008F06EC0AB81BC814A175B073CF098
:100EC0005C834B83C416D50614F4DC82CB828FB7C7
:100ED000F894FE9EF0011124E353FE4F2B813C81D8
:100EE00022503109220F331F3483238375828FBF31
:100EF00050C0B8E82B2E312C281A310887FD3394C6
:100F0000220C331C220C331C2101032C000C66081C
:100F10007708D401A53BB10514F0A4EBB0E0A6011D
:100F20000D2C000C660B770B9A01AB0124193509C7
:100F3000460957090E94880824EB30E040E050E061
:100F40000E945E08420E531E641E751EF09EC00174
:100F5000F19E900D1124FC01EA5EFD4FE081EC3022
:100F6000C0F4421453042CF01201C414D5040CF440
:100F700016018FB7F894FE9EF0011124E353FE4F43
:100F800032E0231A3108220C331C328221828FBFB7
:100F90001582E981FA81E050FF4F918280821092A0
:100FA0002F0110922E0121CE6AE070E080E090E0E7
:100FB0000E9442027CE0A72EB12CF501E255FF4FC2
:100FC0008491F501E656FF4FF490F501EA57FF4F83
:100FD000D4908501000F111F000F111FDD2089F033
:100FE00081110E948801ED2DF0E0EE0FFF1FE45803
:100FF000FF4FA591B491EC91FE2219F0C8018068D1
:1010000002C0C80181680E9457018FEFA81AB80A70
:1010100090E1A916B10489F602E010E0802F806407
:1010200080937C0080917A00806480937A00809124
:101030007A0086FDFCCF9091780080917900C92ECE
:10104000D12CD82AC601880F892F881F990B877049
:101050009927806C980143E0220F331F4A95E1F7EE
:10106000822B932B0E945701C6018F7799270E94EC
:1010700057010F5F1F4F0630110581F66AE070E0DF
:1010800080E090E00E9442020E947E01ACCD991B5C
:1010900079E004C0991F961708F0961B881F7A956F
:1010A000C9F780950895EE0FFF1F0590F491E02D8C
:1010B000099481E090E0F8940C94C108052E97FB08
:1010C0001EF400940E94750857FD07D00E949008F6
:1010D00007FC03D04EF40C9475085095409530955C
:1010E00021953F4F4F4F5F4F089590958095709594
:1010F00061957F4F8F4F9F4F08950E94B208A59F23
:10110000900DB49F900DA49F800D911D1124089502
:10111000B7FF0C947D080E947D08821B930B0895F5
:10112000A1E21A2EAA1BBB1BFD010DC0AA1FBB1FEB
:10113000EE1FFF1FA217B307E407F50720F0A21B5D
:10114000B30BE40BF50B661F771F881F991F1A94CA
:1011500069F760957095809590959B01AC01BD01F4
:10116000CF010895A29FB001B39FC001A39F700D4E
:10117000811D1124911DB29F700D811D1124911D9F
:061180000895F894FFCF72
:101186000C000C000C0034003400340000642D64A4
:10119600010000000000000010018C00D900B7001B
:0411A600CB005C011D
:00000001FF
