:100000000C9462000C948A000C948A000C948A0070
:100010000C948A000C948A000C948A000C948A0038
:100020000C948A000C948A000C948A000C948A0028
:100030000C948A000C948A000C948A000C948A0018
:100040000C94F1010C948A000C9443050C947505F2
:100050000C948A000C948A000C948A000C948A00F8
:100060000C948A000C948A00000000080002010031
:100070000003040700000000000000000102040863
:100080001020408001020408102001020408102002
:10009000040404040404040402020202020203032E
:1000A00003030303000000002300260029000000D2
:1000B0000000250028002B0000000000240027007D
:1000C0002A00A50511241FBECFEFD8E0DEBFCDBFAB
:1000D00011E0A0E0B1E0E6EEFCE002C005900D9278
:1000E000A631B107D9F721E0A6E1B1E001C01D9228
:1000F000A73EB207E1F710E0C4ECD0E004C02297BD
:10010000FE010E946D06C23CD107C9F70E9411068C
:100110000C9471060C940000DC01ED91FC910190AF
:10012000F081E02D0994CF93C0E061E08C2F0E9414
:10013000660360E08C2F0E949F03CF5FCE30A9F74B
:10014000CF910895CF93DF93C0913E01D0913F01AD
:100150008EE00E94C102FE01EE0FFF1FEA5EFE4F1D
:1001600026E632E0281B390B3183208380913E0143
:1001700090913F010196843191052CF490933F01B9
:1001800080933E0104C010923F0110923E01E6E1CF
:10019000F1E080E090E02191319137FF03C031958B
:1001A00021953109820F931F21E0EE33F20799F771
:1001B00064E170E00E942106CB01DF91CF910895A8
:1001C0000F931F93CF93DF93EC01009719F40E94D4
:1001D000A20002C00E94C1028C01BE016770772795
:1001E00043E0660F771F4A95E1F7606C880F892F0F
:1001F000881F990B87709927682B792B8AE491E0E7
:100200000E948C00B8016F7777278AE491E0DF9134
:10021000CF911F910F910C948C00CF93DF93EC0141
:100220000E94D503CF70DD27BE01660F771F660FD2
:10023000771F019711F4616801C060688AE491E05A
:10024000DF91CF910C948C008830910524F024B17B
:1002500030E0089702C02AB130E002C035952795FA
:100260008A95E2F7822F81700895CF93DF93C0E0E3
:10027000D0E0CE010E94E0002196C630D105C9F73A
:10028000C0E0D0E0CE010E942401811103C0CE0164
:100290000E940D012196CE30D105A1F7DF91CF91BB
:1002A0000895CF93C82F0E942401882329F060E08D
:1002B0008C2FCF910C946603CF910895CF93C82FC4
:1002C0000E942401811105C061E08C2FCF910C9414
:1002D0006603CF910895FF920F931F93CF93DF93FF
:1002E000F82EC82FDD27C7FDD095D7FF27C086FF82
:1002F00019C085FF14C0D595C795CF70DD27CE01F5
:100300000E945E01F0FE02C061E001C060E08C2F3F
:10031000DF91CF911F910F91FF900C949F038093D9
:10032000400128C0CE01959587958F709927DF9160
:10033000CF911F910F91FF900C945101C0914001FA
:10034000DD27C7FDD0958E01159507950F701127F4
:10035000D695DC2FCC27D795C795DD278F77C80F8B
:10036000D11DC8010E945E01BE01802F0E94DE02E5
:1003700010924001DF91CF911F910F91FF9008954E
:1003800026E040E855E260E070E08AE491E00E94F7
:10039000E1048AE491E00E945A040C9493008AE4F8
:1003A00091E00E94FE03892B71F08AE491E00E94A3
:1003B000FE03181619069CF78AE491E00E941704C0
:1003C0000E946B01ECCF6FE070E080E090E00E9453
:1003D0005E020E9435016AE070E080E090E00C94DB
:1003E0005E021F920F920FB60F9211242F933F932C
:1003F0008F939F93AF93BF9380914201909143015C
:10040000A0914401B09145013091410123E0230FB7
:100410002D3720F40196A11DB11D05C026E8230F3C
:100420000296A11DB11D209341018093420190933A
:100430004301A0934401B0934501809146019091FE
:100440004701A0914801B09149010196A11DB11D3C
:100450008093460190934701A0934801B0934901CE
:10046000BF91AF919F918F913F912F910F900FBEB0
:100470000F901F9018953FB7F89480914601909186
:100480004701A0914801B091490126B5A89B05C03C
:100490002F3F19F00196A11DB11D3FBF6627782F90
:1004A000892F9A2F620F711D811D911D42E0660FE9
:1004B000771F881F991F4A95D1F70895CF92DF9231
:1004C000EF92FF92CF93DF936B017C010E943B027E
:1004D000EB01C114D104E104F10489F00E9420066B
:1004E0000E943B026C1B7D0B683E734090F381E0E1
:1004F000C81AD108E108F108C851DC4FEACFDF91F2
:10050000CF91FF90EF90DF90CF900895789484B5CD
:10051000826084BD84B5816084BD85B5826085BDFF
:1005200085B5816085BDEEE6F0E0808181608083E5
:10053000E1E8F0E0108280818260808380818160C8
:100540008083E0E8F0E0808181608083E1EBF0E08F
:10055000808184608083E0EBF0E080818160808333
:10056000EAE7F0E08081846080838081826080831C
:100570008081816080838081806880831092C10047
:1005800008958E3008F08E5087702091040190E419
:10059000299F90011124822B80937C0080917A0006
:1005A000806480937A0080917A0086FDFCCF8091F0
:1005B00078002091790090E0922B08951F93CF93BB
:1005C000DF93182FEB0161E00E946603209711F47E
:1005D00060E004C0CF3FD10539F461E0812FDF91A5
:1005E000CF911F910C949F03E12FF0E0E859FF4F4A
:1005F000E491E330F9F048F4E130B9F0E230A1F5EC
:1006000084B5806284BDC8BD34C0E730E9F0E8300D
:1006100019F1E43049F58091800080628093800078
:10062000D0938B00C0938A0024C084B5806884BDB9
:10063000C7BD1FC080918000806880938000D093E8
:100640008900C093880015C08091B00080688093B5
:10065000B000C093B3000DC08091B0008062809361
:10066000B000C093B40005C0C038D1050CF0B5CFC0
:10067000AFCFDF91CF911F910895833081F028F49F
:10068000813099F08230A1F008958730A9F0883048
:10069000B9F08430D1F4809180008F7D03C08091C7
:1006A00080008F7780938000089584B58F7702C093
:1006B00084B58F7D84BD08958091B0008F7703C08D
:1006C0008091B0008F7D8093B0000895CF93DF9329
:1006D00090E0FC01E458FF4F2491FC01E057FF4FEC
:1006E0008491882349F190E0880F991FFC01E85418
:1006F000FF4FA591B49182559F4FFC01C591D491B4
:100700009FB7611108C0F8948C91209582238C9337
:10071000888182230AC0623051F4F8948C91322F80
:10072000309583238C938881822B888304C0F8942E
:100730008C91822B8C939FBFDF91CF9108950F9363
:100740001F93CF93DF931F92CDB7DEB7282F30E0F2
:10075000F901E859FF4F8491F901E458FF4F1491D2
:10076000F901E057FF4F04910023C9F0882321F0DD
:1007700069830E943D036981E02FF0E0EE0FFF1FC7
:10078000E255FF4FA591B4919FB7F8948C916111F8
:1007900003C01095812301C0812B8C939FBF0F90C4
:1007A000DF91CF911F910F910895CF93DF93282F61
:1007B00030E0F901E859FF4F8491F901E458FF4F07
:1007C000D491F901E057FF4FC491CC2391F08111EE
:1007D0000E943D03EC2FF0E0EE0FFF1FEC55FF4FA2
:1007E000A591B4912C912D2381E090E021F480E03B
:1007F00002C080E090E0DF91CF910895FC01818DEF
:10080000228D90E0805C9F4F821B91098F73992706
:100810000895FC01918D828D981731F0828DE80F3B
:10082000F11D858D90E008958FEF9FEF0895FC01F5
:10083000918D828D981761F0828DDF01A80FB11D17
:100840005D968C91928D9F5F9F73928F90E008953B
:100850008FEF9FEF08958BE995E0892B49F080E0B9
:1008600090E0892B29F00E949B0581110C940000D7
:100870000895FC01848DDF01A80FB11DA35ABF4F5D
:100880002C91848D90E001968F739927848FA6898F
:10089000B7892C93A089B1898C9180648C93938DB6
:1008A000848D981306C00288F389E02D80818F7DA6
:1008B00080830895CF93DF93EC01888D8823C9F05E
:1008C000EA89FB89808185FD05C0A889B9898C9159
:1008D00086FD0FC00FB607FCF5CF808185FFF2CFF4
:1008E000A889B9898C9185FFEDCFCE010E9439048A
:1008F000E7CFDF91CF910895CF92DF92FF920F93D0
:100900001F93CF93DF931F92CDB7DEB76C0181E0C9
:10091000D60158968C9358975B969C915B975C9602
:100920008C915C97981307C05096ED91FC9151976C
:10093000808185FD2EC0F601038D10E00F5F1F4FF3
:100940000F731127F02EF601848DF81211C00FB627
:1009500007FCF9CFD6015096ED91FC91519780811B
:1009600085FFF1CFC60169830E9439046981EBCF0D
:10097000838DE80FF11DE35AFF4F6083D6015B962C
:100980000C935B975296ED91FC9153978081806216
:100990000CC0D6015696ED91FC9157976083509606
:1009A000ED91FC91519780818064808381E090E09B
:1009B0000F90DF91CF911F910F91FF90DF90CF901B
:1009C0000895BF92CF92DF92EF92FF92CF93DF9381
:1009D000EC016A017B01B22EE889F98982E080830B
:1009E000411581EE580761057105A1F060E079E0DD
:1009F0008DE390E0A70196010E9435062150310950
:100A0000410951095695479537952795211580E15C
:100A1000380798F0E889F989108260E874E88EE177
:100A200090E0A70196010E94350621503109410945
:100A300051095695479537952795EC85FD85308367
:100A4000EE85FF852083188EEC89FD89B082EA89C6
:100A5000FB89808180618083EA89FB89808188604D
:100A60008083EA89FB89808180688083EA89FB89A9
:100A700080818F7D8083DF91CF91FF90EF90DF9019
:100A8000CF90BF9008951F920F920FB60F9211242E
:100A90002F938F939F93EF93FF93E0915A01F091DF
:100AA0005B018081E0916001F091610182FD12C0E3
:100AB0009081809163018F5F8F7320916401821711
:100AC00051F0E0916301F0E0E65BFE4F958F80937B
:100AD000630101C08081FF91EF919F918F912F91D0
:100AE0000F900FBE0F901F9018951F920F920FB688
:100AF0000F9211242F933F934F935F936F937F93A4
:100B00008F939F93AF93BF93EF93FF938AE491E00A
:100B10000E943904FF91EF91BF91AF919F918F9106
:100B20007F916F915F914F913F912F910F900FBEE9
:100B30000F901F9018958AE491E00E94FE0321E037
:100B4000892B09F420E0822F089510924D01109214
:100B50004C0188EE93E0A0E0B0E080934E019093CA
:100B60004F01A0935001B093510189E091E090931F
:100B70004B0180934A0185EC90E09093570180935C
:100B8000560184EC90E0909359018093580180ECD9
:100B900090E090935B0180935A0181EC90E09093F8
:100BA0005D0180935C0182EC90E090935F01809303
:100BB0005E0186EC90E09093610180936001109259
:100BC000630110926401109265011092660108950C
:100BD000CF92DF92EF92FF920F931F93CF93DF9309
:100BE0007C016A01EB0100E010E00C151D0571F0BD
:100BF0006991D701ED91FC910190F081E02DC70141
:100C00000995892B19F00F5F1F4FEFCFC801DF91B6
:100C1000CF911F910F91FF90EF90DF90CF900895AB
:100C200008950E9486020E9410060E94C001CBE235
:100C3000D4E00E94CF012097E1F30E942B04F9CF6A
:100C4000089597FB072E16F4009407D077FD09D07E
:100C50000E94570607FC05D03EF4909581959F4F62
:100C60000895709561957F4F0895A1E21A2EAA1BF1
:100C7000BB1BFD010DC0AA1FBB1FEE1FFF1FA2174C
:100C8000B307E407F50720F0A21BB30BE40BF50B49
:100C9000661F771F881F991F1A9469F760957095D2
:100CA000809590959B01AC01BD01CF010895AA1BD1
:100CB000BB1B51E107C0AA1FBB1FA617B70710F047
:100CC000A61BB70B881F991F5A95A9F78095909579
:100CD000BC01CD010895EE0FFF1F0590F491E02DAA
:060CE0000994F894FFCF17
:100CE6000100000001000000007C04E805FE031777
:060CF6000409045A040089
:00000001FF
