:100000000C9462000C948A000C948A000C948A0070
:100010000C948A000C948A000C948A000C948A0038
:100020000C948A000C948A000C948A000C948A0028
:100030000C948A000C948A000C948A000C948A0018
:100040000C948B010C948A000C94EF040C94210501
:100050000C948A000C948A000C948A000C948A00F8
:100060000C948A000C948A00000000080002010031
:100070000003040700000000000000000102040863
:100080001020408001020408102001020408102002
:10009000040404040404040402020202020203032E
:1000A00003030303000000002300260029000000D2
:1000B0000000250028002B0000000000240027007D
:1000C0002A00510511241FBECFEFD8E0DEBFCDBFFF
:1000D00011E0A0E0B1E0EEEEFBE002C005900D9271
:1000E000A231B107D9F721E0A2E1B1E001C01D9230
:1000F000A93BB207E1F710E0C4ECD0E004C02297BE
:10010000FE010E94F105C23CD107C9F70E94BD055E
:100110000C94F5050C940000DC01ED91FC9101902C
:10012000F081E02D0994CF93C0E061E08C2F0E9414
:10013000120360E08C2F0E944B03CF5FCE30A9F7F3
:10014000CF9108950F931F93CF93DF93EC010E94FB
:100150006D028C01BE016770772783E0660F771F01
:100160008A95E1F7606C9801220F232F221F330B31
:1001700027703327622B732B8CE191E00E948C0057
:10018000B8016F7777278CE191E0DF91CF911F91D4
:100190000F910C948C00CF93DF93EC010E948103AC
:1001A000CF70DD27BE01660F771F660F771F01979F
:1001B00011F4616801C060688CE191E0DF91CF913A
:1001C0000C948C008830910524F024B130E008971D
:1001D00002C02AB130E002C0359527958A95E2F732
:1001E000822F81700895CF93DF93C0E0D0E0CE01DD
:1001F0000E94A2002196C730D105C9F7C0E0D0E027
:10020000CE010E94E200811103C0CE010E94CB000A
:100210002196CE30D105A1F7DF91CF910895CF93EC
:10022000C82F0E94E200882329F060E08C2FCF9134
:100230000C941203CF910895282F332727FD309572
:1002400037FF1AC086FF11C085FF0CC03595279572
:100250002F70332780FF02C061E001C060E0822F71
:100260000C944B03809312010895C90195958795CD
:100270008F7099270C940F0120911201332727FDCD
:100280003095B9017695762F66277795679577270C
:100290008F77680F711DC901959587958F700E94A2
:1002A0008A0210921201089526E040E855E260E0CB
:1002B00070E08CE191E00E948D048CE191E00E945D
:1002C00006040E94930068EC70E080E090E00C94DB
:1002D000F8018CE191E00E94AA03892B71F08CE176
:1002E00091E00E94AA03181619069CF78CE191E090
:1002F0000E94C3030E941C01ECCF6FE070E080E01D
:1003000090E00E94F8010E94F3006AE070E080E053
:1003100090E00C94F8011F920F920FB60F921124E7
:100320002F933F938F939F93AF93BF93809114012B
:1003300090911501A0911601B09117013091130110
:1003400023E0230F2D3720F40196A11DB11D05C018
:1003500026E8230F0296A11DB11D2093130180935F
:10036000140190931501A0931601B0931701809189
:10037000180190911901A0911A01B0911B010196E9
:10038000A11DB11D8093180190931901A0931A012A
:10039000B0931B01BF91AF919F918F913F912F918E
:1003A0000F900FBE0F901F9018953FB7F894809153
:1003B000180190911901A0911A01B0911B0126B565
:1003C000A89B05C02F3F19F00196A11DB11D3FBF8D
:1003D0006627782F892F9A2F620F711D811D911D1D
:1003E00042E0660F771F881F991F4A95D1F708953D
:1003F0008F929F92AF92BF92CF92DF92EF92FF9235
:100400006B017C010E94D5014B015C01C114D10438
:10041000E104F104F1F00E94CC050E94D5016819B5
:1004200079098A099B09683E73408105910570F33B
:1004300021E0C21AD108E108F10888EE880E83E0B5
:10044000981EA11CB11CC114D104E104F10429F7C8
:10045000DDCFFF90EF90DF90CF90BF90AF909F9057
:100460008F900895789484B5826084BD84B581604E
:1004700084BD85B5826085BD85B5816085BDEEE6AC
:10048000F0E0808181608083E1E8F0E0108280818B
:1004900082608083808181608083E0E8F0E08081F9
:1004A00081608083E1EBF0E0808184608083E0EB19
:1004B000F0E0808181608083EAE7F0E08081846001
:1004C000808380818260808380818160808380815D
:1004D000806880831092C10008958E3008F08E509D
:1004E00087702091000190E4299F90011124822BB4
:1004F00080937C0080917A00806480937A00809160
:100500007A0086FDFCCF809178002091790090E000
:10051000922B08951F93CF93DF93182FEB0161E087
:100520000E941203209711F460E004C0CF3FD10570
:1005300039F461E0812FDF91CF911F910C944B032F
:10054000E12FF0E0E859FF4FE491E330F9F048F48F
:10055000E130B9F0E230A1F584B5806284BDC8BD58
:1005600034C0E730E9F0E83019F1E43049F5809122
:100570008000806280938000D0938B00C0938A00BB
:1005800024C084B5806884BDC7BD1FC08091800031
:10059000806880938000D0938900C093880015C044
:1005A0008091B00080688093B000C093B3000DC00C
:1005B0008091B00080628093B000C093B40005C009
:1005C000C038D1050CF0B5CFAFCFDF91CF911F91DF
:1005D0000895833081F028F4813099F08230A1F0C1
:1005E00008958730A9F08830B9F08430D1F4809133
:1005F00080008F7D03C0809180008F778093800082
:10060000089584B58F7702C084B58F7D84BD089529
:100610008091B0008F7703C08091B0008F7D809370
:10062000B0000895CF93DF9390E0FC01E458FF4FB2
:100630002491FC01E057FF4F8491882349F190E019
:10064000880F991FFC01E854FF4FA591B491825582
:100650009F4FFC01C591D4919FB7611108C0F894D8
:100660008C91209582238C93888182230AC06230EA
:1006700051F4F8948C91322F309583238C93888198
:10068000822B888304C0F8948C91822B8C939FBF1B
:10069000DF91CF9108950F931F93CF93DF931F9214
:1006A000CDB7DEB7282F30E0F901E859FF4F84912C
:1006B000F901E458FF4F1491F901E057FF4F0491FD
:1006C0000023C9F0882321F069830E94E90269812F
:1006D000E02FF0E0EE0FFF1FE255FF4FA591B49120
:1006E0009FB7F8948C91611103C01095812301C0CC
:1006F000812B8C939FBF0F90DF91CF911F910F9112
:100700000895CF93DF93282F30E0F901E859FF4F88
:100710008491F901E458FF4FD491F901E057FF4F5C
:10072000C491CC2391F081110E94E902EC2FF0E0FA
:10073000EE0FFF1FEC55FF4FA591B4912C912D2387
:1007400081E090E021F480E002C080E090E0DF9161
:10075000CF910895FC01818D228D90E0805C9F4FA8
:10076000821B91098F7399270895FC01918D828DC9
:10077000981731F0828DE80FF11D858D90E0089576
:100780008FEF9FEF0895FC01918D828D981761F096
:10079000828DDF01A80FB11D5D968C91928D9F5FB8
:1007A0009F73928F90E008958FEF9FEF089587E4F5
:1007B00095E0892B49F080E090E0892B29F00E9498
:1007C000470581110C9400000895FC01848DDF0120
:1007D000A80FB11DA35ABF4F2C91848D90E00196B4
:1007E0008F739927848FA689B7892C93A089B189A3
:1007F0008C9180648C93938D848D981306C00288AD
:10080000F389E02D80818F7D80830895CF93DF93DE
:10081000EC01888D8823C9F0EA89FB89808185FDF8
:1008200005C0A889B9898C9186FD0FC00FB607FC59
:10083000F5CF808185FFF2CFA889B9898C9185FF9A
:10084000EDCFCE010E94E503E7CFDF91CF91089570
:10085000CF92DF92FF920F931F93CF93DF931F925C
:10086000CDB7DEB76C0181E0D60158968C935897CE
:100870005B969C915B975C968C915C97981307C0F4
:100880005096ED91FC915197808185FD2EC0F60127
:10089000038D10E00F5F1F4F0F731127F02EF6012D
:1008A000848DF81211C00FB607FCF9CFD60150960F
:1008B000ED91FC915197808185FFF1CFC60169834D
:1008C0000E94E5036981EBCF838DE80FF11DE35AA8
:1008D000FF4F6083D6015B960C935B975296ED9128
:1008E000FC915397808180620CC0D6015696ED91A1
:1008F000FC91579760835096ED91FC9151978081C0
:100900008064808381E090E00F90DF91CF911F9110
:100910000F91FF90DF90CF900895BF92CF92DF921A
:10092000EF92FF92CF93DF93EC016A017B01B22E2D
:10093000E889F98982E08083411581EE58076105D5
:100940007105A1F060E079E08DE390E0A7019601E8
:100950000E94CD052150310941095109569547950D
:1009600037952795211580E1380798F0E889F989AE
:10097000108260E874E88EE190E0A70196010E9481
:10098000CD052150310941095109569547953795B3
:100990002795EC85FD853083EE85FF852083188EB5
:1009A000EC89FD89B082EA89FB898081806180833E
:1009B000EA89FB89808188608083EA89FB8980815C
:1009C00080688083EA89FB8980818F7D8083DF91C5
:1009D000CF91FF90EF90DF90CF90BF9008951F923E
:1009E0000F920FB60F9211242F938F939F93EF9333
:1009F000FF93E0912C01F0912D018081E091320173
:100A0000F091330182FD12C09081809135018F5F9A
:100A10008F7320913601821751F0E0913501F0E09B
:100A2000E45EFE4F958F8093350101C08081FF9178
:100A3000EF919F918F912F910F900FBE0F901F906C
:100A400018951F920F920FB60F9211242F933F9378
:100A50004F935F936F937F938F939F93AF93BF93C6
:100A6000EF93FF938CE191E00E94E503FF91EF91FA
:100A7000BF91AF919F918F917F916F915F914F91B6
:100A80003F912F910F900FBE0F901F9018958CE102
:100A900091E00E94AA0321E0892B09F420E0822F33
:100AA000089510921F0110921E0188EE93E0A0E0BD
:100AB000B0E08093200190932101A0932201B09394
:100AC000230185E091E090931D0180931C0185EC4A
:100AD00090E0909329018093280184EC90E090931A
:100AE0002B0180932A0180EC90E090932D0180935C
:100AF0002C0181EC90E090932F0180932E0182ECE9
:100B000090E0909331018093300186EC90E09093D7
:100B10003301809332011092350110923601109208
:100B20003701109238010895CF92DF92EF92FF9231
:100B30000F931F93CF93DF937C016A01EB0100E0D9
:100B400010E00C151D0571F06991D701ED91FC9134
:100B50000190F081E02DC7010995892B19F00F5FF5
:100B60001F4FEFCFC801DF91CF911F910F91FF90E1
:100B7000EF90DF90CF90089508950E9432020E9476
:100B8000BC050E945401C7EDD3E00E946901209783
:100B9000E1F30E94D703F9CF0895A1E21A2EAA1B10
:100BA000BB1BFD010DC0AA1FBB1FEE1FFF1FA2171D
:100BB000B307E407F50720F0A21BB30BE40BF50B1A
:100BC000661F771F881F991F1A9469F760957095A3
:100BD000809590959B01AC01BD01CF010895EE0F6A
:0E0BE000FF1F0590F491E02D0994F894FFCFCB
:100BEE00010000000028049405AA03C303B5030600
:020BFE000400F1
:107E0000112484B714BE81FFF0D085E080938100F7
:107E100082E08093C00088E18093C10086E0809377
:107E2000C20080E18093C4008EE0C9D0259A86E02C
:107E300020E33CEF91E0309385002093840096BBD3
:107E4000B09BFECF1D9AA8958150A9F7CC24DD24C4
:107E500088248394B5E0AB2EA1E19A2EF3E0BF2EE7
:107E6000A2D0813461F49FD0082FAFD0023811F036
:107E7000013811F484E001C083E08DD089C08234E0
:107E800011F484E103C0853419F485E0A6D080C0E4
:107E9000853579F488D0E82EFF2485D0082F10E0AE
:107EA000102F00270E291F29000F111F8ED06801E7
:107EB0006FC0863521F484E090D080E0DECF843638
:107EC00009F040C070D06FD0082F6DD080E0C81688
:107ED00080E7D80618F4F601B7BEE895C0E0D1E017
:107EE00062D089930C17E1F7F0E0CF16F0E7DF06D8
:107EF00018F0F601B7BEE89568D007B600FCFDCFD4
:107F0000A601A0E0B1E02C9130E011968C91119780
:107F100090E0982F8827822B932B1296FA010C0160
:107F200087BEE89511244E5F5F4FF1E0A038BF0790
:107F300051F7F601A7BEE89507B600FCFDCF97BE46
:107F4000E89526C08437B1F42ED02DD0F82E2BD052
:107F50003CD0F601EF2C8F010F5F1F4F84911BD097
:107F6000EA94F801C1F70894C11CD11CFA94CF0C13
:107F7000D11C0EC0853739F428D08EE10CD085E9AC
:107F80000AD08FE07ACF813511F488E018D01DD067
:107F900080E101D065CF982F8091C00085FFFCCF94
:107FA0009093C60008958091C00087FFFCCF809118
:107FB000C00084FD01C0A8958091C6000895E0E648
:107FC000F0E098E1908380830895EDDF803219F02E
:107FD00088E0F5DFFFCF84E1DECF1F93182FE3DFCA
:107FE0001150E9F7F2DF1F91089580E0E8DFEE27F6
:047FF000FF270994CA
:027FFE00040479
:0400000300007E007B
:00000001FF
